{
  "contractName": "ArthMahaTestnetOracle",
  "abi": [
    {
      "inputs": [],
      "stateMutability": "nonpayable",
      "type": "constructor"
    },
    {
      "anonymous": false,
      "inputs": [
        {
          "indexed": true,
          "internalType": "address",
          "name": "previousOwner",
          "type": "address"
        },
        {
          "indexed": true,
          "internalType": "address",
          "name": "newOwner",
          "type": "address"
        }
      ],
      "name": "OwnershipTransferred",
      "type": "event"
    },
    {
      "anonymous": false,
      "inputs": [
        {
          "indexed": false,
          "internalType": "uint256",
          "name": "price0CumulativeLast",
          "type": "uint256"
        },
        {
          "indexed": false,
          "internalType": "uint256",
          "name": "price1CumulativeLast",
          "type": "uint256"
        }
      ],
      "name": "Updated",
      "type": "event"
    },
    {
      "inputs": [],
      "name": "getPrice",
      "outputs": [
        {
          "internalType": "uint256",
          "name": "",
          "type": "uint256"
        }
      ],
      "stateMutability": "view",
      "type": "function"
    },
    {
      "inputs": [],
      "name": "name",
      "outputs": [
        {
          "internalType": "string",
          "name": "",
          "type": "string"
        }
      ],
      "stateMutability": "view",
      "type": "function"
    },
    {
      "inputs": [],
      "name": "owner",
      "outputs": [
        {
          "internalType": "address",
          "name": "",
          "type": "address"
        }
      ],
      "stateMutability": "view",
      "type": "function"
    },
    {
      "inputs": [],
      "name": "price",
      "outputs": [
        {
          "internalType": "uint256",
          "name": "",
          "type": "uint256"
        }
      ],
      "stateMutability": "view",
      "type": "function"
    },
    {
      "inputs": [],
      "name": "renounceOwnership",
      "outputs": [],
      "stateMutability": "nonpayable",
      "type": "function"
    },
    {
      "inputs": [
        {
          "internalType": "uint256",
          "name": "_price",
          "type": "uint256"
        }
      ],
      "name": "setPrice",
      "outputs": [],
      "stateMutability": "nonpayable",
      "type": "function"
    },
    {
      "inputs": [
        {
          "internalType": "address",
          "name": "newOwner",
          "type": "address"
        }
      ],
      "name": "transferOwnership",
      "outputs": [],
      "stateMutability": "nonpayable",
      "type": "function"
    }
  ],
  "bytecode": "0x608060405260016002553480156200001657600080fd5b50604051620014ce380380620014ce833981810160405260c08110156200003c57600080fd5b508051602082015160408301516060840151608085015160a09095015193949293919290918585858560006003878781818580620000796200027a565b600080546001600160a01b0319166001600160a01b0383169081178255604051929350917f8be0079c531659141344cd1fd0a4f28419497f9722a3daafe3b4186f6b6457e0908290a350620000cd6200027a565b600180546001600160a01b0319166001600160a01b0392831617908190556040519116906000907f74da04524d50c64947f5dd5381ef1a4dca5cba8ed1d816243f9e48aa0b5617ed908290a360028390556003829055620001566200013f82856200027e602090811b62000ba017901c565b600354620002e560201b62000c021790919060201c565b6004555050506002831015620001b3576040805162461bcd60e51b815260206004820152601360248201527f4174206c656173742074776f20746f6b656e7300000000000000000000000000604482015290519081900360640190fd5b60048311156200020a576040805162461bcd60e51b815260206004820152601360248201527f4174206d6f737420666f757220746f6b656e7300000000000000000000000000604482015290519081900360640190fd5b5050600580546001600160a01b03199081166001600160a01b0398891617909155600680548216968816969096179095556007805486169487169490941790935560088054851692861692909217909155600980549093169316929092179055600a555062000340945050505050565b3390565b6000826200028f57506000620002df565b828202828482816200029d57fe5b0414620002dc5760405162461bcd60e51b8152600401808060200182810382526021815260200180620014ad6021913960400191505060405180910390fd5b90505b92915050565b600082820183811015620002dc576040805162461bcd60e51b815260206004820152601b60248201527f536166654d6174683a206164646974696f6e206f766572666c6f770000000000604482015290519081900360640190fd5b61115d80620003506000396000f3fe608060405234801561001057600080fd5b506004361061018d5760003560e01c8063735de9f7116100e3578063c5967c261161008c578063ef14101e11610066578063ef14101e146102d9578063efe97d05146102e1578063f2fde38b146102e95761018d565b8063c5967c26146102c1578063c828371e146102c9578063d21220a7146102d15761018d565b8063a2e62045116100bd578063a2e62045146102a9578063a64ed8ba146102b1578063b97dd9e2146102b95761018d565b8063735de9f7146102915780638da5cb5b1461029957806398d5fdca146102a15761018d565b8063398bac63116101455780636a2ab6021161011f5780636a2ab602146102495780636d91c0e214610251578063715018a6146102895761018d565b8063398bac631461021d5780634456eda214610225578063570ca735146102415761018d565b80631ed24195116101765780631ed24195146101d557806325be124e146101ef57806329605e77146101f75761018d565b80630dfe1681146101925780630f3a9f65146101b6575b600080fd5b61019a61030f565b604080516001600160a01b039092168252519081900360200190f35b6101d3600480360360208110156101cc57600080fd5b503561031e565b005b6101dd61036c565b60408051918252519081900360200190f35b61019a610373565b6101d36004803603602081101561020d57600080fd5b50356001600160a01b0316610382565b6101dd6103f8565b61022d610422565b604080519115158252519081900360200190f35b61019a610448565b61022d610457565b61019a6004803603606081101561026757600080fd5b506001600160a01b038135811691602081013582169160409091013516610470565b6101d3610485565b61019a610546565b61019a610555565b6101dd610564565b6101d361056a565b6101dd6109ed565b6101dd6109f3565b6101dd610a13565b6101dd610a35565b61019a610a3b565b61019a610a4a565b6101dd610a59565b6101d3600480360360208110156102ff57600080fd5b50356001600160a01b0316610a89565b6006546001600160a01b031681565b6001546001600160a01b031633146103675760405162461bcd60e51b81526004018080602001828103825260248152602001806111046024913960400191505060405180910390fd5b600255565b6002545b90565b6008546001600160a01b031681565b61038a610c5c565b6000546001600160a01b039081169116146103ec576040805162461bcd60e51b815260206004820181905260248201527f4f776e61626c653a2063616c6c6572206973206e6f7420746865206f776e6572604482015290519081900360640190fd5b6103f581610c60565b50565b600061041d600254610417600354600454610d0a90919063ffffffff16565b90610d4c565b905090565b6001546000906001600160a01b0316610439610c5c565b6001600160a01b031614905090565b6001546001600160a01b031690565b6000610461610a59565b6104696109f3565b1015905090565b600061047d848484610d8e565b949350505050565b61048d610c5c565b6000546001600160a01b039081169116146104ef576040805162461bcd60e51b815260206004820181905260248201527f4f776e61626c653a2063616c6c6572206973206e6f7420746865206f776e6572604482015290519081900360640190fd5b600080546040516001600160a01b03909116907f8be0079c531659141344cd1fd0a4f28419497f9722a3daafe3b4186f6b6457e0908390a36000805473ffffffffffffffffffffffffffffffffffffffff19169055565b6005546001600160a01b031681565b6000546001600160a01b031690565b600b5490565b60035442116105c0576040805162461bcd60e51b815260206004820152601660248201527f45706f63683a206e6f7420737461727465642079657400000000000000000000604482015290519081900360640190fd5b6105c8610457565b610619576040805162461bcd60e51b815260206004820152601260248201527f45706f63683a206e6f7420616c6c6f7765640000000000000000000000000000604482015290519081900360640190fd5b6060600a5467ffffffffffffffff8111801561063457600080fd5b5060405190808252806020026020018201604052801561065e578160200160208202803683370190505b509050600a54600214156106d85760065481516001600160a01b0390911690829060009061068857fe5b6001600160a01b0392831660209182029290920101526007548251911690829060019081106106b357fe5b60200260200101906001600160a01b031690816001600160a01b031681525050610813565b600a54600314156107555760065481516001600160a01b039091169082906000906106ff57fe5b6001600160a01b03928316602091820292909201015260075482519116908290600190811061072a57fe5b6001600160a01b0392831660209182029290920101526008548251911690829060029081106106b357fe5b60065481516001600160a01b0390911690829060009061077157fe5b6001600160a01b03928316602091820292909201015260075482519116908290600190811061079c57fe5b6001600160a01b0392831660209182029290920101526008548251911690829060029081106107c757fe5b6001600160a01b0392831660209182029290920101526009548251911690829060039081106107f257fe5b60200260200101906001600160a01b031690816001600160a01b0316815250505b600554604080517fd06ca61f000000000000000000000000000000000000000000000000000000008152670de0b6b3a764000060048201818152602483019384528551604484015285516060956001600160a01b03169463d06ca61f948893926064909101906020808601910280838360005b8381101561089e578181015183820152602001610886565b50505050905001935050505060006040518083038186803b1580156108c257600080fd5b505afa1580156108d6573d6000803e3d6000fd5b505050506040513d6000823e601f3d908101601f1916820160405260208110156108ff57600080fd5b810190808051604051939291908464010000000082111561091f57600080fd5b90830190602082018581111561093457600080fd5b825186602082028301116401000000008211171561095157600080fd5b82525081516020918201928201910280838360005b8381101561097e578181015183820152602001610966565b505050509050016040525050509050806001600a54038151811061099e57fe5b6020026020010151600b819055507f208509800c5cb9707f116ef96a1d456499ab9fa3c8edc1cdf381fe5216d5b173600b546040518082815260200191505060405180910390a1505042600455565b600a5481565b600061041d600254610417600354610a0d60035442610e79565b90610d0a565b600061041d610a2c600254610a26610a59565b90610ba0565b60035490610c02565b60035490565b6007546001600160a01b031681565b6009546001600160a01b031681565b60006004546003541415610a7657610a6f6103f8565b9050610370565b61041d6001610a836103f8565b90610c02565b610a91610c5c565b6000546001600160a01b03908116911614610af3576040805162461bcd60e51b815260206004820181905260248201527f4f776e61626c653a2063616c6c6572206973206e6f7420746865206f776e6572604482015290519081900360640190fd5b6001600160a01b038116610b385760405162461bcd60e51b815260040180806020018281038252602681526020018061106b6026913960400191505060405180910390fd5b600080546040516001600160a01b03808516939216917f8be0079c531659141344cd1fd0a4f28419497f9722a3daafe3b4186f6b6457e091a36000805473ffffffffffffffffffffffffffffffffffffffff19166001600160a01b0392909216919091179055565b600082610baf57506000610bfc565b82820282848281610bbc57fe5b0414610bf95760405162461bcd60e51b81526004018080602001828103825260218152602001806110e36021913960400191505060405180910390fd5b90505b92915050565b600082820183811015610bf9576040805162461bcd60e51b815260206004820152601b60248201527f536166654d6174683a206164646974696f6e206f766572666c6f770000000000604482015290519081900360640190fd5b3390565b6001600160a01b038116610ca55760405162461bcd60e51b815260040180806020018281038252602d8152602001806110b6602d913960400191505060405180910390fd5b6040516001600160a01b038216906000907f74da04524d50c64947f5dd5381ef1a4dca5cba8ed1d816243f9e48aa0b5617ed908290a36001805473ffffffffffffffffffffffffffffffffffffffff19166001600160a01b0392909216919091179055565b6000610bf983836040518060400160405280601e81526020017f536166654d6174683a207375627472616374696f6e206f766572666c6f770000815250610e90565b6000610bf983836040518060400160405280601a81526020017f536166654d6174683a206469766973696f6e206279207a65726f000000000000815250610f27565b6000806000610d9d8585610f8c565b604080517fffffffffffffffffffffffffffffffffffffffff000000000000000000000000606094851b811660208084019190915293851b81166034830152825160288184030181526048830184528051908501207fff0000000000000000000000000000000000000000000000000000000000000060688401529a90941b9093166069840152607d8301989098527f96e8ac4277198ff8b6f785478aa9a39f403cb768dd02cbee326c3e7da348845f609d808401919091528851808403909101815260bd909201909752805196019590952095945050505050565b600081831015610e895781610bf9565b5090919050565b60008184841115610f1f5760405162461bcd60e51b81526004018080602001828103825283818151815260200191508051906020019080838360005b83811015610ee4578181015183820152602001610ecc565b50505050905090810190601f168015610f115780820380516001836020036101000a031916815260200191505b509250505060405180910390fd5b505050900390565b60008183610f765760405162461bcd60e51b8152602060048201818152835160248401528351909283926044909101919085019080838360008315610ee4578181015183820152602001610ecc565b506000838581610f8257fe5b0495945050505050565b600080826001600160a01b0316846001600160a01b03161415610fe05760405162461bcd60e51b81526004018080602001828103825260258152602001806110916025913960400191505060405180910390fd5b826001600160a01b0316846001600160a01b031610611000578284611003565b83835b90925090506001600160a01b038216611063576040805162461bcd60e51b815260206004820152601e60248201527f556e697377617056324c6962726172793a205a45524f5f414444524553530000604482015290519081900360640190fd5b925092905056fe4f776e61626c653a206e6577206f776e657220697320746865207a65726f2061646472657373556e697377617056324c6962726172793a204944454e544943414c5f4144445245535345536f70657261746f723a207a65726f206164647265737320676976656e20666f72206e6577206f70657261746f72536166654d6174683a206d756c7469706c69636174696f6e206f766572666c6f776f70657261746f723a2063616c6c6572206973206e6f7420746865206f70657261746f72a2646970667358221220b0554ead5c8c237ed808ff0b618359aeebbd2ed4ab2319795b396a89cf01a2dd64736f6c634300060c0033536166654d6174683a206d756c7469706c69636174696f6e206f766572666c6f77",
  "immutableReferences": {},
  "source": "// SPDX-License-Identifier: MIT\n\npragma solidity ^0.6.12;\n\nimport './core/MultiUniswapOracle.sol';\n\ncontract ArthMahaTestnetOracle is MultiUniswapOracle {\n    constructor(\n        address _router,\n        address _arth,\n        address _dai,\n        address _maha,\n        uint256 _period,\n        uint256 _startTime\n    )\n        public\n        MultiUniswapOracle(\n            _router,\n            _arth,\n            _dai,\n            _maha,\n            address(0),\n            3,\n            _period,\n            _startTime\n        )\n    {}\n}\n",
  "sourcePath": "/Users/enamakel/Work/mahadao/arthcoin/arthcoin-v2/contracts/oracles/ArthMahaTestnetOracle.sol",
  "compiler": {
    "name": "solc",
    "version": "0.6.12+commit.27d51765.Emscripten.clang"
  },
  "schemaVersion": "3.3.3",
  "updatedAt": "2021-01-22T05:56:56.743Z",
  "networkType": "ethereum",
  "devdoc": {
    "kind": "dev",
    "methods": {
      "owner()": {
        "details": "Returns the address of the current owner."
      },
      "renounceOwnership()": {
        "details": "Leaves the contract without owner. It will not be possible to call `onlyOwner` functions anymore. Can only be called by the current owner. NOTE: Renouncing ownership will leave the contract without an owner, thereby removing any functionality that is only available to the owner."
      },
      "transferOwnership(address)": {
        "details": "Transfers ownership of the contract to a new account (`newOwner`). Can only be called by the current owner."
      },
      "update()": {
        "details": "Updates 1-day EMA price from Uniswap.  "
      }
    },
    "version": 1
  },
  "userdoc": {
    "kind": "user",
    "methods": {},
    "version": 1
  }
}