{
  "contractName": "BondRedemtionOracle",
  "abi": [
    {
      "inputs": [
        {
          "internalType": "address",
          "name": "_factory",
          "type": "address"
        },
        {
          "internalType": "address",
          "name": "_cash",
          "type": "address"
        },
        {
          "internalType": "address",
          "name": "_dai",
          "type": "address"
        },
        {
          "internalType": "uint256",
          "name": "_period",
          "type": "uint256"
        },
        {
          "internalType": "uint256",
          "name": "_startTime",
          "type": "uint256"
        }
      ],
      "stateMutability": "nonpayable",
      "type": "constructor"
    },
    {
      "anonymous": false,
      "inputs": [
        {
          "indexed": true,
          "internalType": "address",
          "name": "previousOperator",
          "type": "address"
        },
        {
          "indexed": true,
          "internalType": "address",
          "name": "newOperator",
          "type": "address"
        }
      ],
      "name": "OperatorTransferred",
      "type": "event"
    },
    {
      "anonymous": false,
      "inputs": [
        {
          "indexed": true,
          "internalType": "address",
          "name": "previousOwner",
          "type": "address"
        },
        {
          "indexed": true,
          "internalType": "address",
          "name": "newOwner",
          "type": "address"
        }
      ],
      "name": "OwnershipTransferred",
      "type": "event"
    },
    {
      "anonymous": false,
      "inputs": [
        {
          "indexed": false,
          "internalType": "uint256",
          "name": "price0CumulativeLast",
          "type": "uint256"
        },
        {
          "indexed": false,
          "internalType": "uint256",
          "name": "price1CumulativeLast",
          "type": "uint256"
        }
      ],
      "name": "Updated",
      "type": "event"
    },
    {
      "inputs": [],
      "name": "blockTimestampLast",
      "outputs": [
        {
          "internalType": "uint32",
          "name": "",
          "type": "uint32"
        }
      ],
      "stateMutability": "view",
      "type": "function",
      "constant": true
    },
    {
      "inputs": [],
      "name": "callable",
      "outputs": [
        {
          "internalType": "bool",
          "name": "",
          "type": "bool"
        }
      ],
      "stateMutability": "view",
      "type": "function",
      "constant": true
    },
    {
      "inputs": [
        {
          "internalType": "address",
          "name": "token",
          "type": "address"
        },
        {
          "internalType": "uint256",
          "name": "amountIn",
          "type": "uint256"
        }
      ],
      "name": "consult",
      "outputs": [
        {
          "internalType": "uint144",
          "name": "amountOut",
          "type": "uint144"
        }
      ],
      "stateMutability": "view",
      "type": "function",
      "constant": true
    },
    {
      "inputs": [
        {
          "internalType": "address",
          "name": "token",
          "type": "address"
        },
        {
          "internalType": "uint256",
          "name": "amountIn",
          "type": "uint256"
        }
      ],
      "name": "expectedPrice",
      "outputs": [
        {
          "internalType": "uint224",
          "name": "amountOut",
          "type": "uint224"
        }
      ],
      "stateMutability": "view",
      "type": "function",
      "constant": true
    },
    {
      "inputs": [],
      "name": "getCurrentEpoch",
      "outputs": [
        {
          "internalType": "uint256",
          "name": "",
          "type": "uint256"
        }
      ],
      "stateMutability": "view",
      "type": "function",
      "constant": true
    },
    {
      "inputs": [],
      "name": "getLastEpoch",
      "outputs": [
        {
          "internalType": "uint256",
          "name": "",
          "type": "uint256"
        }
      ],
      "stateMutability": "view",
      "type": "function",
      "constant": true
    },
    {
      "inputs": [],
      "name": "getNextEpoch",
      "outputs": [
        {
          "internalType": "uint256",
          "name": "",
          "type": "uint256"
        }
      ],
      "stateMutability": "view",
      "type": "function",
      "constant": true
    },
    {
      "inputs": [],
      "name": "getPeriod",
      "outputs": [
        {
          "internalType": "uint256",
          "name": "",
          "type": "uint256"
        }
      ],
      "stateMutability": "view",
      "type": "function",
      "constant": true
    },
    {
      "inputs": [],
      "name": "getStartTime",
      "outputs": [
        {
          "internalType": "uint256",
          "name": "",
          "type": "uint256"
        }
      ],
      "stateMutability": "view",
      "type": "function",
      "constant": true
    },
    {
      "inputs": [],
      "name": "isOperator",
      "outputs": [
        {
          "internalType": "bool",
          "name": "",
          "type": "bool"
        }
      ],
      "stateMutability": "view",
      "type": "function",
      "constant": true
    },
    {
      "inputs": [],
      "name": "nextEpochPoint",
      "outputs": [
        {
          "internalType": "uint256",
          "name": "",
          "type": "uint256"
        }
      ],
      "stateMutability": "view",
      "type": "function",
      "constant": true
    },
    {
      "inputs": [],
      "name": "operator",
      "outputs": [
        {
          "internalType": "address",
          "name": "",
          "type": "address"
        }
      ],
      "stateMutability": "view",
      "type": "function",
      "constant": true
    },
    {
      "inputs": [],
      "name": "owner",
      "outputs": [
        {
          "internalType": "address",
          "name": "",
          "type": "address"
        }
      ],
      "stateMutability": "view",
      "type": "function",
      "constant": true
    },
    {
      "inputs": [],
      "name": "pair",
      "outputs": [
        {
          "internalType": "contract IUniswapV2Pair",
          "name": "",
          "type": "address"
        }
      ],
      "stateMutability": "view",
      "type": "function",
      "constant": true
    },
    {
      "inputs": [
        {
          "internalType": "address",
          "name": "factory",
          "type": "address"
        },
        {
          "internalType": "address",
          "name": "tokenA",
          "type": "address"
        },
        {
          "internalType": "address",
          "name": "tokenB",
          "type": "address"
        }
      ],
      "name": "pairFor",
      "outputs": [
        {
          "internalType": "address",
          "name": "lpt",
          "type": "address"
        }
      ],
      "stateMutability": "pure",
      "type": "function",
      "constant": true
    },
    {
      "inputs": [],
      "name": "price0Average",
      "outputs": [
        {
          "internalType": "uint224",
          "name": "_x",
          "type": "uint224"
        }
      ],
      "stateMutability": "view",
      "type": "function",
      "constant": true
    },
    {
      "inputs": [],
      "name": "price0CumulativeLast",
      "outputs": [
        {
          "internalType": "uint256",
          "name": "",
          "type": "uint256"
        }
      ],
      "stateMutability": "view",
      "type": "function",
      "constant": true
    },
    {
      "inputs": [],
      "name": "price1Average",
      "outputs": [
        {
          "internalType": "uint224",
          "name": "_x",
          "type": "uint224"
        }
      ],
      "stateMutability": "view",
      "type": "function",
      "constant": true
    },
    {
      "inputs": [],
      "name": "price1CumulativeLast",
      "outputs": [
        {
          "internalType": "uint256",
          "name": "",
          "type": "uint256"
        }
      ],
      "stateMutability": "view",
      "type": "function",
      "constant": true
    },
    {
      "inputs": [],
      "name": "renounceOwnership",
      "outputs": [],
      "stateMutability": "nonpayable",
      "type": "function"
    },
    {
      "inputs": [
        {
          "internalType": "uint256",
          "name": "_period",
          "type": "uint256"
        }
      ],
      "name": "setPeriod",
      "outputs": [],
      "stateMutability": "nonpayable",
      "type": "function"
    },
    {
      "inputs": [],
      "name": "token0",
      "outputs": [
        {
          "internalType": "address",
          "name": "",
          "type": "address"
        }
      ],
      "stateMutability": "view",
      "type": "function",
      "constant": true
    },
    {
      "inputs": [],
      "name": "token1",
      "outputs": [
        {
          "internalType": "address",
          "name": "",
          "type": "address"
        }
      ],
      "stateMutability": "view",
      "type": "function",
      "constant": true
    },
    {
      "inputs": [
        {
          "internalType": "address",
          "name": "newOperator_",
          "type": "address"
        }
      ],
      "name": "transferOperator",
      "outputs": [],
      "stateMutability": "nonpayable",
      "type": "function"
    },
    {
      "inputs": [
        {
          "internalType": "address",
          "name": "newOwner",
          "type": "address"
        }
      ],
      "name": "transferOwnership",
      "outputs": [],
      "stateMutability": "nonpayable",
      "type": "function"
    },
    {
      "inputs": [],
      "name": "update",
      "outputs": [],
      "stateMutability": "nonpayable",
      "type": "function"
    }
  ],
  "bytecode": "0x608060405260016002553480156200001657600080fd5b5060405162001d6b38038062001d6b833981810160405260a08110156200003c57600080fd5b50805160208201516040830151606084015160809094015192939192909190848484848481816000806200006f620004ad565b600080546001600160a01b0319166001600160a01b0383169081178255604051929350917f8be0079c531659141344cd1fd0a4f28419497f9722a3daafe3b4186f6b6457e0908290a350620000c3620004ad565b600180546001600160a01b0319166001600160a01b0392831617908190556040519116906000907f74da04524d50c64947f5dd5381ef1a4dca5cba8ed1d816243f9e48aa0b5617ed908290a3600283905560038290556200014c620001358285620004b1602090811b62000c9617901c565b6003546200051860201b62000cef1790919060201c565b60048190555050505060006200016f8686866200057360201b62000d491760201c565b905080600760006101000a8154816001600160a01b0302191690836001600160a01b03160217905550806001600160a01b0316630dfe16816040518163ffffffff1660e01b815260040160206040518083038186803b158015620001d257600080fd5b505afa158015620001e7573d6000803e3d6000fd5b505050506040513d6020811015620001fe57600080fd5b5051600580546001600160a01b0319166001600160a01b039283161790556040805163d21220a760e01b815290519183169163d21220a791600480820192602092909190829003018186803b1580156200025757600080fd5b505afa1580156200026c573d6000803e3d6000fd5b505050506040513d60208110156200028357600080fd5b5051600680546001600160a01b0319166001600160a01b0392831617905560408051635909c0d560e01b8152905191831691635909c0d591600480820192602092909190829003018186803b158015620002dc57600080fd5b505afa158015620002f1573d6000803e3d6000fd5b505050506040513d60208110156200030857600080fd5b505160085560408051635a3d549360e01b815290516001600160a01b03831691635a3d5493916004808301926020929190829003018186803b1580156200034e57600080fd5b505afa15801562000363573d6000803e3d6000fd5b505050506040513d60208110156200037a57600080fd5b505160095560408051630240bc6b60e21b8152905160009182916001600160a01b03851691630902f1ac916004808301926060929190829003018186803b158015620003c557600080fd5b505afa158015620003da573d6000803e3d6000fd5b505050506040513d6060811015620003f157600080fd5b50805160208201516040909201516007805463ffffffff909216600160a01b0263ffffffff60a01b19909216919091179055925090506001600160701b038216158015906200044857506001600160701b03811615155b6200049a576040805162461bcd60e51b815260206004820152601360248201527f4f7261636c653a204e4f5f524553455256455300000000000000000000000000604482015290519081900360640190fd5b505050505050505050505050506200072a565b3390565b600082620004c25750600062000512565b82820282848281620004d057fe5b04146200050f5760405162461bcd60e51b815260040180806020018281038252602181526020018062001d4a6021913960400191505060405180910390fd5b90505b92915050565b6000828201838110156200050f576040805162461bcd60e51b815260206004820152601b60248201527f536166654d6174683a206164646974696f6e206f766572666c6f770000000000604482015290519081900360640190fd5b6000808062000583858562000647565b604080516001600160601b0319606094851b811660208084019190915293851b81166034830152825160288184030181526048830184528051908501207fff0000000000000000000000000000000000000000000000000000000000000060688401529a90941b9093166069840152607d8301989098527f96e8ac4277198ff8b6f785478aa9a39f403cb768dd02cbee326c3e7da348845f609d808401919091528851808403909101815260bd909201909752805196019590952095945050505050565b600080826001600160a01b0316846001600160a01b031614156200069d5760405162461bcd60e51b815260040180806020018281038252602581526020018062001d256025913960400191505060405180910390fd5b826001600160a01b0316846001600160a01b031610620006bf578284620006c2565b83835b90925090506001600160a01b03821662000723576040805162461bcd60e51b815260206004820152601e60248201527f556e697377617056324c6962726172793a205a45524f5f414444524553530000604482015290519081900360640190fd5b9250929050565b6115eb806200073a6000396000f3fe608060405234801561001057600080fd5b50600436106101ae5760003560e01c8063715018a6116100ee578063c5700a0211610097578063d21220a711610071578063d21220a71461038a578063efe97d0514610392578063f00d371c1461039a578063f2fde38b146103c6576101ae565b8063c5700a0214610359578063c5967c261461037a578063c828371e14610382576101ae565b8063a6bb4539116100c8578063a6bb453914610341578063a8aa1b3114610349578063b97dd9e214610351576101ae565b8063715018a6146103295780638da5cb5b14610331578063a2e6204514610339576101ae565b80634456eda21161015b5780635a3d5493116101355780635a3d5493146102bd5780635e6aaf2c146102c55780636a2ab602146102e95780636d91c0e2146102f1576101ae565b80634456eda214610291578063570ca735146102ad5780635909c0d5146102b5576101ae565b806329605e771161018c57806329605e7714610210578063398bac63146102365780633ddac9531461023e576101ae565b80630dfe1681146101b35780630f3a9f65146101d75780631ed24195146101f6575b600080fd5b6101bb6103ec565b604080516001600160a01b039092168252519081900360200190f35b6101f4600480360360208110156101ed57600080fd5b50356103fb565b005b6101fe610449565b60408051918252519081900360200190f35b6101f46004803603602081101561022657600080fd5b50356001600160a01b0316610450565b6101fe6104c6565b61026a6004803603604081101561025457600080fd5b506001600160a01b0381351690602001356104f0565b6040805171ffffffffffffffffffffffffffffffffffff9092168252519081900360200190f35b6102996105ce565b604080519115158252519081900360200190f35b6101bb6105f4565b6101fe610603565b6101fe610609565b6102cd61060f565b604080516001600160e01b039092168252519081900360200190f35b61029961061e565b6101bb6004803603606081101561030757600080fd5b506001600160a01b038135811691602081013582169160409091013516610637565b6101f461064c565b6101bb61070d565b6101f461071c565b6102cd610954565b6101bb610963565b6101fe610972565b610361610992565b6040805163ffffffff9092168252519081900360200190f35b6101fe6109a5565b6101fe6109c7565b6101bb6109cd565b6101fe6109dc565b6102cd600480360360408110156103b057600080fd5b506001600160a01b038135169060200135610a0c565b6101f4600480360360208110156103dc57600080fd5b50356001600160a01b0316610b7f565b6005546001600160a01b031681565b6001546001600160a01b031633146104445760405162461bcd60e51b815260040180806020018281038252602481526020018061156f6024913960400191505060405180910390fd5b600255565b6002545b90565b610458610e34565b6000546001600160a01b039081169116146104ba576040805162461bcd60e51b815260206004820181905260248201527f4f776e61626c653a2063616c6c6572206973206e6f7420746865206f776e6572604482015290519081900360640190fd5b6104c381610e38565b50565b60006104eb6002546104e5600354600454610ee290919063ffffffff16565b90610f24565b905090565b6005546000906001600160a01b038481169116141561053c576040805160208101909152600a546001600160e01b03168152610535906105309084610f66565b610fe4565b90506105c8565b6006546001600160a01b0384811691161461059e576040805162461bcd60e51b815260206004820152601560248201527f4f7261636c653a20494e56414c49445f544f4b454e0000000000000000000000604482015290519081900360640190fd5b6040805160208101909152600b546001600160e01b031681526105c5906105309084610f66565b90505b92915050565b6001546000906001600160a01b03166105e5610e34565b6001600160a01b031614905090565b6001546001600160a01b031690565b60085481565b60095481565b600b546001600160e01b031681565b60006106286109dc565b610630610972565b1015905090565b6000610644848484610d49565b949350505050565b610654610e34565b6000546001600160a01b039081169116146106b6576040805162461bcd60e51b815260206004820181905260248201527f4f776e61626c653a2063616c6c6572206973206e6f7420746865206f776e6572604482015290519081900360640190fd5b600080546040516001600160a01b03909116907f8be0079c531659141344cd1fd0a4f28419497f9722a3daafe3b4186f6b6457e0908390a36000805473ffffffffffffffffffffffffffffffffffffffff19169055565b6000546001600160a01b031690565b6003544211610772576040805162461bcd60e51b815260206004820152601660248201527f45706f63683a206e6f7420737461727465642079657400000000000000000000604482015290519081900360640190fd5b61077a61061e565b6107cb576040805162461bcd60e51b815260206004820152601260248201527f45706f63683a206e6f7420616c6c6f7765640000000000000000000000000000604482015290519081900360640190fd5b600754600090819081906107e7906001600160a01b0316610feb565b600754929550909350915063ffffffff600160a01b90910481168203908116610813575050505061094e565b60405180602001604052808263ffffffff1660085487038161083157fe5b046001600160e01b039081169091529051600a80547fffffffff0000000000000000000000000000000000000000000000000000000016919092161790556040805160208101909152600954819063ffffffff84169086038161089057fe5b046001600160e01b039081169091529051600b80547fffffffff00000000000000000000000000000000000000000000000000000000169190921617905560088490556009839055600780547fffffffffffffffff00000000ffffffffffffffffffffffffffffffffffffffff16600160a01b63ffffffff851602179055604080518581526020810185905281517fd78a0cb8bb633d06981248b816e7bd33c2a35a6089241d099fa519e361cab902929181900390910190a1505050505b42600455565b600a546001600160e01b031681565b6007546001600160a01b031681565b60006104eb6002546104e560035461098c600354426111ec565b90610ee2565b600754600160a01b900463ffffffff1681565b60006104eb6109be6002546109b86109dc565b90610c96565b60035490610cef565b60035490565b6006546001600160a01b031681565b600060045460035414156109f9576109f26104c6565b905061044d565b6104eb6001610a066104c6565b90610cef565b600754600090819081908190610a2a906001600160a01b0316610feb565b6007549295509093509150600160a01b900463ffffffff168103610a4c6114b0565b60405180602001604052808363ffffffff16600854880381610a6a57fe5b046001600160e01b03168152509050610a816114b0565b60405180602001604052808463ffffffff16600954880381610a9f57fe5b046001600160e01b031690526005549091506001600160a01b03908116908a161415610aed57610ad2610530838a610f66565b71ffffffffffffffffffffffffffffffffffff169650610b73565b6006546001600160a01b038a8116911614610b4f576040805162461bcd60e51b815260206004820152601560248201527f4f7261636c653a20494e56414c49445f544f4b454e0000000000000000000000604482015290519081900360640190fd5b610b5c610530828a610f66565b71ffffffffffffffffffffffffffffffffffff1696505b50505050505092915050565b610b87610e34565b6000546001600160a01b03908116911614610be9576040805162461bcd60e51b815260206004820181905260248201527f4f776e61626c653a2063616c6c6572206973206e6f7420746865206f776e6572604482015290519081900360640190fd5b6001600160a01b038116610c2e5760405162461bcd60e51b81526004018080602001828103825260268152602001806114d66026913960400191505060405180910390fd5b600080546040516001600160a01b03808516939216917f8be0079c531659141344cd1fd0a4f28419497f9722a3daafe3b4186f6b6457e091a36000805473ffffffffffffffffffffffffffffffffffffffff19166001600160a01b0392909216919091179055565b600082610ca5575060006105c8565b82820282848281610cb257fe5b04146105c55760405162461bcd60e51b815260040180806020018281038252602181526020018061154e6021913960400191505060405180910390fd5b6000828201838110156105c5576040805162461bcd60e51b815260206004820152601b60248201527f536166654d6174683a206164646974696f6e206f766572666c6f770000000000604482015290519081900360640190fd5b6000806000610d588585611203565b604080517fffffffffffffffffffffffffffffffffffffffff000000000000000000000000606094851b811660208084019190915293851b81166034830152825160288184030181526048830184528051908501207fff0000000000000000000000000000000000000000000000000000000000000060688401529a90941b9093166069840152607d8301989098527f96e8ac4277198ff8b6f785478aa9a39f403cb768dd02cbee326c3e7da348845f609d808401919091528851808403909101815260bd909201909752805196019590952095945050505050565b3390565b6001600160a01b038116610e7d5760405162461bcd60e51b815260040180806020018281038252602d815260200180611521602d913960400191505060405180910390fd5b6040516001600160a01b038216906000907f74da04524d50c64947f5dd5381ef1a4dca5cba8ed1d816243f9e48aa0b5617ed908290a36001805473ffffffffffffffffffffffffffffffffffffffff19166001600160a01b0392909216919091179055565b60006105c583836040518060400160405280601e81526020017f536166654d6174683a207375627472616374696f6e206f766572666c6f7700008152506112e1565b60006105c583836040518060400160405280601a81526020017f536166654d6174683a206469766973696f6e206279207a65726f000000000000815250611378565b610f6e6114c2565b6000821580610f9457505082516001600160e01b031682810290838281610f9157fe5b04145b610fcf5760405162461bcd60e51b81526004018080602001828103825260238152602001806115936023913960400191505060405180910390fd5b60408051602081019091529081529392505050565b5160701c90565b6000806000610ff86113dd565b9050836001600160a01b0316635909c0d56040518163ffffffff1660e01b815260040160206040518083038186803b15801561103357600080fd5b505afa158015611047573d6000803e3d6000fd5b505050506040513d602081101561105d57600080fd5b5051604080517f5a3d549300000000000000000000000000000000000000000000000000000000815290519194506001600160a01b03861691635a3d549391600480820192602092909190829003018186803b1580156110bc57600080fd5b505afa1580156110d0573d6000803e3d6000fd5b505050506040513d60208110156110e657600080fd5b5051604080517f0902f1ac0000000000000000000000000000000000000000000000000000000081529051919350600091829182916001600160a01b03891691630902f1ac916004808301926060929190829003018186803b15801561114b57600080fd5b505afa15801561115f573d6000803e3d6000fd5b505050506040513d606081101561117557600080fd5b5080516020820151604090920151909450909250905063ffffffff808216908516146111e25780840363ffffffff81166111af84866113e7565b516001600160e01b031602969096019563ffffffff81166111d085856113e7565b516001600160e01b0316029590950194505b5050509193909250565b6000818310156111fc57816105c5565b5090919050565b600080826001600160a01b0316846001600160a01b031614156112575760405162461bcd60e51b81526004018080602001828103825260258152602001806114fc6025913960400191505060405180910390fd5b826001600160a01b0316846001600160a01b03161061127757828461127a565b83835b90925090506001600160a01b0382166112da576040805162461bcd60e51b815260206004820152601e60248201527f556e697377617056324c6962726172793a205a45524f5f414444524553530000604482015290519081900360640190fd5b9250929050565b600081848411156113705760405162461bcd60e51b81526004018080602001828103825283818151815260200191508051906020019080838360005b8381101561133557818101518382015260200161131d565b50505050905090810190601f1680156113625780820380516001836020036101000a031916815260200191505b509250505060405180910390fd5b505050900390565b600081836113c75760405162461bcd60e51b815260206004820181815283516024840152835190928392604490910191908501908083836000831561133557818101518382015260200161131d565b5060008385816113d357fe5b0495945050505050565b63ffffffff421690565b6113ef6114b0565b6000826dffffffffffffffffffffffffffff1611611454576040805162461bcd60e51b815260206004820152601760248201527f4669786564506f696e743a204449565f42595f5a45524f000000000000000000604482015290519081900360640190fd5b6040805160208101909152806dffffffffffffffffffffffffffff84167bffffffffffffffffffffffffffff0000000000000000000000000000607087901b168161149b57fe5b046001600160e01b0316815250905092915050565b60408051602081019091526000815290565b604051806020016040528060008152509056fe4f776e61626c653a206e6577206f776e657220697320746865207a65726f2061646472657373556e697377617056324c6962726172793a204944454e544943414c5f4144445245535345536f70657261746f723a207a65726f206164647265737320676976656e20666f72206e6577206f70657261746f72536166654d6174683a206d756c7469706c69636174696f6e206f766572666c6f776f70657261746f723a2063616c6c6572206973206e6f7420746865206f70657261746f724669786564506f696e743a204d554c5449504c49434154494f4e5f4f564552464c4f57a26469706673582212206122b0f8307689835508813ca2501137e27f387b922ad65a16d29272427e909664736f6c634300060c0033556e697377617056324c6962726172793a204944454e544943414c5f414444524553534553536166654d6174683a206d756c7469706c69636174696f6e206f766572666c6f77",
  "immutableReferences": {},
  "source": "// SPDX-License-Identifier: MIT\n\npragma solidity ^0.6.12;\n\nimport './core/UniswapOracle.sol';\n\n// Fixed window oracle that recomputes the average price for the entire period once every period\n// note that the price average is only guaranteed to be over at least 1 period, but may be over a\n// longer period.\ncontract BondRedemtionOracle is UniswapOracle {\n    constructor(\n        address _factory,\n        address _cash,\n        address _dai,\n        uint256 _period,\n        uint256 _startTime\n    ) public UniswapOracle(_factory, _cash, _dai, _period, _startTime) {}\n}\n",
  "sourcePath": "/Users/enamakel/Work/mahadao/arthcoin/arthcoin-v2/contracts/oracles/BondRedemtionOracle.sol",
  "compiler": {
    "name": "solc",
    "version": "0.6.12+commit.27d51765.Emscripten.clang"
  },
  "schemaVersion": "3.3.3",
  "updatedAt": "2021-01-22T05:56:53.139Z",
  "networkType": "ethereum",
  "devdoc": {
    "kind": "dev",
    "methods": {
      "owner()": {
        "details": "Returns the address of the current owner."
      },
      "renounceOwnership()": {
        "details": "Leaves the contract without owner. It will not be possible to call `onlyOwner` functions anymore. Can only be called by the current owner. NOTE: Renouncing ownership will leave the contract without an owner, thereby removing any functionality that is only available to the owner."
      },
      "transferOwnership(address)": {
        "details": "Transfers ownership of the contract to a new account (`newOwner`). Can only be called by the current owner."
      },
      "update()": {
        "details": "Updates 1-day EMA price from Uniswap.  "
      }
    },
    "version": 1
  },
  "userdoc": {
    "kind": "user",
    "methods": {},
    "version": 1
  }
}