{
  "contractName": "BondRedemtionOracle",
  "abi": [
    {
      "inputs": [
        {
          "internalType": "address",
          "name": "_factory",
          "type": "address"
        },
        {
          "internalType": "address",
          "name": "_tokenA",
          "type": "address"
        },
        {
          "internalType": "address",
          "name": "_tokenB",
          "type": "address"
        },
        {
          "internalType": "uint256",
          "name": "_period",
          "type": "uint256"
        },
        {
          "internalType": "uint256",
          "name": "_startTime",
          "type": "uint256"
        }
      ],
      "stateMutability": "nonpayable",
      "type": "constructor"
    },
    {
      "anonymous": false,
      "inputs": [
        {
          "indexed": true,
          "internalType": "address",
          "name": "previousOperator",
          "type": "address"
        },
        {
          "indexed": true,
          "internalType": "address",
          "name": "newOperator",
          "type": "address"
        }
      ],
      "name": "OperatorTransferred",
      "type": "event"
    },
    {
      "anonymous": false,
      "inputs": [
        {
          "indexed": true,
          "internalType": "address",
          "name": "previousOwner",
          "type": "address"
        },
        {
          "indexed": true,
          "internalType": "address",
          "name": "newOwner",
          "type": "address"
        }
      ],
      "name": "OwnershipTransferred",
      "type": "event"
    },
    {
      "anonymous": false,
      "inputs": [
        {
          "indexed": false,
          "internalType": "uint256",
          "name": "price0CumulativeLast",
          "type": "uint256"
        },
        {
          "indexed": false,
          "internalType": "uint256",
          "name": "price1CumulativeLast",
          "type": "uint256"
        }
      ],
      "name": "Updated",
      "type": "event"
    },
    {
      "inputs": [],
      "name": "blockTimestampLast",
      "outputs": [
        {
          "internalType": "uint32",
          "name": "",
          "type": "uint32"
        }
      ],
      "stateMutability": "view",
      "type": "function"
    },
    {
      "inputs": [
        {
          "internalType": "address",
          "name": "token",
          "type": "address"
        },
        {
          "internalType": "uint256",
          "name": "amountIn",
          "type": "uint256"
        }
      ],
      "name": "consult",
      "outputs": [
        {
          "internalType": "uint144",
          "name": "amountOut",
          "type": "uint144"
        }
      ],
      "stateMutability": "view",
      "type": "function"
    },
    {
      "inputs": [],
      "name": "getCurrentEpoch",
      "outputs": [
        {
          "internalType": "uint256",
          "name": "",
          "type": "uint256"
        }
      ],
      "stateMutability": "view",
      "type": "function"
    },
    {
      "inputs": [],
      "name": "getPeriod",
      "outputs": [
        {
          "internalType": "uint256",
          "name": "",
          "type": "uint256"
        }
      ],
      "stateMutability": "view",
      "type": "function"
    },
    {
      "inputs": [],
      "name": "getStartTime",
      "outputs": [
        {
          "internalType": "uint256",
          "name": "",
          "type": "uint256"
        }
      ],
      "stateMutability": "view",
      "type": "function"
    },
    {
      "inputs": [],
      "name": "isOperator",
      "outputs": [
        {
          "internalType": "bool",
          "name": "",
          "type": "bool"
        }
      ],
      "stateMutability": "view",
      "type": "function"
    },
    {
      "inputs": [],
      "name": "nextEpochPoint",
      "outputs": [
        {
          "internalType": "uint256",
          "name": "",
          "type": "uint256"
        }
      ],
      "stateMutability": "view",
      "type": "function"
    },
    {
      "inputs": [],
      "name": "operator",
      "outputs": [
        {
          "internalType": "address",
          "name": "",
          "type": "address"
        }
      ],
      "stateMutability": "view",
      "type": "function"
    },
    {
      "inputs": [],
      "name": "owner",
      "outputs": [
        {
          "internalType": "address",
          "name": "",
          "type": "address"
        }
      ],
      "stateMutability": "view",
      "type": "function"
    },
    {
      "inputs": [],
      "name": "pair",
      "outputs": [
        {
          "internalType": "contract IUniswapV2Pair",
          "name": "",
          "type": "address"
        }
      ],
      "stateMutability": "view",
      "type": "function"
    },
    {
      "inputs": [
        {
          "internalType": "address",
          "name": "factory",
          "type": "address"
        },
        {
          "internalType": "address",
          "name": "tokenA",
          "type": "address"
        },
        {
          "internalType": "address",
          "name": "tokenB",
          "type": "address"
        }
      ],
      "name": "pairFor",
      "outputs": [
        {
          "internalType": "address",
          "name": "lpt",
          "type": "address"
        }
      ],
      "stateMutability": "pure",
      "type": "function"
    },
    {
      "inputs": [],
      "name": "price0Average",
      "outputs": [
        {
          "internalType": "uint224",
          "name": "_x",
          "type": "uint224"
        }
      ],
      "stateMutability": "view",
      "type": "function"
    },
    {
      "inputs": [],
      "name": "price0CumulativeLast",
      "outputs": [
        {
          "internalType": "uint256",
          "name": "",
          "type": "uint256"
        }
      ],
      "stateMutability": "view",
      "type": "function"
    },
    {
      "inputs": [],
      "name": "price1Average",
      "outputs": [
        {
          "internalType": "uint224",
          "name": "_x",
          "type": "uint224"
        }
      ],
      "stateMutability": "view",
      "type": "function"
    },
    {
      "inputs": [],
      "name": "price1CumulativeLast",
      "outputs": [
        {
          "internalType": "uint256",
          "name": "",
          "type": "uint256"
        }
      ],
      "stateMutability": "view",
      "type": "function"
    },
    {
      "inputs": [],
      "name": "renounceOwnership",
      "outputs": [],
      "stateMutability": "nonpayable",
      "type": "function"
    },
    {
      "inputs": [
        {
          "internalType": "uint256",
          "name": "_period",
          "type": "uint256"
        }
      ],
      "name": "setPeriod",
      "outputs": [],
      "stateMutability": "nonpayable",
      "type": "function"
    },
    {
      "inputs": [],
      "name": "token0",
      "outputs": [
        {
          "internalType": "address",
          "name": "",
          "type": "address"
        }
      ],
      "stateMutability": "view",
      "type": "function"
    },
    {
      "inputs": [],
      "name": "token1",
      "outputs": [
        {
          "internalType": "address",
          "name": "",
          "type": "address"
        }
      ],
      "stateMutability": "view",
      "type": "function"
    },
    {
      "inputs": [
        {
          "internalType": "address",
          "name": "newOperator_",
          "type": "address"
        }
      ],
      "name": "transferOperator",
      "outputs": [],
      "stateMutability": "nonpayable",
      "type": "function"
    },
    {
      "inputs": [
        {
          "internalType": "address",
          "name": "newOwner",
          "type": "address"
        }
      ],
      "name": "transferOwnership",
      "outputs": [],
      "stateMutability": "nonpayable",
      "type": "function"
    },
    {
      "inputs": [],
      "name": "update",
      "outputs": [],
      "stateMutability": "nonpayable",
      "type": "function"
    }
  ],
  "bytecode": "0x60806040523480156200001157600080fd5b506040516200180138038062001801833981810160405260a08110156200003757600080fd5b50805160208201516040830151606084015160809094015192939192909190848484848481816000806200006a6200046f565b600080546001600160a01b0319166001600160a01b0383169081178255604051929350917f8be0079c531659141344cd1fd0a4f28419497f9722a3daafe3b4186f6b6457e0908290a350620000be6200046f565b600180546001600160a01b0319166001600160a01b0392831617908190556040519116906000907f74da04524d50c64947f5dd5381ef1a4dca5cba8ed1d816243f9e48aa0b5617ed908290a360029290925560035560045560006200013186868662000473602090811b62000a0817901c565b905080600760006101000a8154816001600160a01b0302191690836001600160a01b03160217905550806001600160a01b0316630dfe16816040518163ffffffff1660e01b815260040160206040518083038186803b1580156200019457600080fd5b505afa158015620001a9573d6000803e3d6000fd5b505050506040513d6020811015620001c057600080fd5b5051600580546001600160a01b0319166001600160a01b039283161790556040805163d21220a760e01b815290519183169163d21220a791600480820192602092909190829003018186803b1580156200021957600080fd5b505afa1580156200022e573d6000803e3d6000fd5b505050506040513d60208110156200024557600080fd5b5051600680546001600160a01b0319166001600160a01b0392831617905560408051635909c0d560e01b8152905191831691635909c0d591600480820192602092909190829003018186803b1580156200029e57600080fd5b505afa158015620002b3573d6000803e3d6000fd5b505050506040513d6020811015620002ca57600080fd5b505160085560408051635a3d549360e01b815290516001600160a01b03831691635a3d5493916004808301926020929190829003018186803b1580156200031057600080fd5b505afa15801562000325573d6000803e3d6000fd5b505050506040513d60208110156200033c57600080fd5b505160095560408051630240bc6b60e21b8152905160009182916001600160a01b03851691630902f1ac916004808301926060929190829003018186803b1580156200038757600080fd5b505afa1580156200039c573d6000803e3d6000fd5b505050506040513d6060811015620003b357600080fd5b50805160208201516040909201516007805463ffffffff909216600160a01b0263ffffffff60a01b19909216919091179055925090506001600160701b038216158015906200040a57506001600160701b03811615155b6200045c576040805162461bcd60e51b815260206004820152601360248201527f4f7261636c653a204e4f5f524553455256455300000000000000000000000000604482015290519081900360640190fd5b505050505050505050505050506200062a565b3390565b6000808062000483858562000547565b604080516001600160601b0319606094851b811660208084019190915293851b81166034830152825160288184030181526048830184528051908501207fff0000000000000000000000000000000000000000000000000000000000000060688401529a90941b9093166069840152607d8301989098527f96e8ac4277198ff8b6f785478aa9a39f403cb768dd02cbee326c3e7da348845f609d808401919091528851808403909101815260bd909201909752805196019590952095945050505050565b600080826001600160a01b0316846001600160a01b031614156200059d5760405162461bcd60e51b8152600401808060200182810382526025815260200180620017dc6025913960400191505060405180910390fd5b826001600160a01b0316846001600160a01b031610620005bf578284620005c2565b83835b90925090506001600160a01b03821662000623576040805162461bcd60e51b815260206004820152601e60248201527f556e697377617056324c6962726172793a205a45524f5f414444524553530000604482015290519081900360640190fd5b9250929050565b6111a2806200063a6000396000f3fe608060405234801561001057600080fd5b50600436106101825760003560e01c8063715018a6116100d8578063b97dd9e21161008c578063c828371e11610066578063c828371e14610346578063d21220a71461034e578063f2fde38b1461035657610182565b8063b97dd9e214610315578063c5700a021461031d578063c5967c261461033e57610182565b8063a2e62045116100bd578063a2e62045146102fd578063a6bb453914610305578063a8aa1b311461030d57610182565b8063715018a6146102ed5780638da5cb5b146102f557610182565b80634456eda21161013a5780635a3d5493116101145780635a3d5493146102895780635e6aaf2c146102915780636d91c0e2146102b557610182565b80634456eda21461025d578063570ca735146102795780635909c0d51461028157610182565b80631ed241951161016b5780631ed24195146101ca57806329605e77146101e45780633ddac9531461020a57610182565b80630dfe1681146101875780630f3a9f65146101ab575b600080fd5b61018f61037c565b604080516001600160a01b039092168252519081900360200190f35b6101c8600480360360208110156101c157600080fd5b503561038b565b005b6101d26103fa565b60408051918252519081900360200190f35b6101c8600480360360208110156101fa57600080fd5b50356001600160a01b0316610400565b6102366004803603604081101561022057600080fd5b506001600160a01b038135169060200135610476565b6040805171ffffffffffffffffffffffffffffffffffff9092168252519081900360200190f35b610265610554565b604080519115158252519081900360200190f35b61018f61057a565b6101d2610589565b6101d261058f565b610299610595565b604080516001600160e01b039092168252519081900360200190f35b61018f600480360360608110156102cb57600080fd5b506001600160a01b0381358116916020810135821691604090910135166105a4565b6101c86105b9565b61018f61067a565b6101c8610689565b61029961087b565b61018f61088a565b6101d2610899565b61032561089f565b6040805163ffffffff9092168252519081900360200190f35b6101d26108b2565b6101d26108dc565b61018f6108e2565b6101c86004803603602081101561036c57600080fd5b50356001600160a01b03166108f1565b6005546001600160a01b031681565b610393610af3565b6000546001600160a01b039081169116146103f5576040805162461bcd60e51b815260206004820181905260248201527f4f776e61626c653a2063616c6c6572206973206e6f7420746865206f776e6572604482015290519081900360640190fd5b600255565b60025490565b610408610af3565b6000546001600160a01b0390811691161461046a576040805162461bcd60e51b815260206004820181905260248201527f4f776e61626c653a2063616c6c6572206973206e6f7420746865206f776e6572604482015290519081900360640190fd5b61047381610af7565b50565b6005546000906001600160a01b03848116911614156104c2576040805160208101909152600a546001600160e01b031681526104bb906104b69084610ba1565b610c1f565b905061054e565b6006546001600160a01b03848116911614610524576040805162461bcd60e51b815260206004820152601560248201527f4f7261636c653a20494e56414c49445f544f4b454e0000000000000000000000604482015290519081900360640190fd5b6040805160208101909152600b546001600160e01b0316815261054b906104b69084610ba1565b90505b92915050565b6001546000906001600160a01b031661056b610af3565b6001600160a01b031614905090565b6001546001600160a01b031690565b60085481565b60095481565b600b546001600160e01b031681565b60006105b1848484610a08565b949350505050565b6105c1610af3565b6000546001600160a01b03908116911614610623576040805162461bcd60e51b815260206004820181905260248201527f4f776e61626c653a2063616c6c6572206973206e6f7420746865206f776e6572604482015290519081900360640190fd5b600080546040516001600160a01b03909116907f8be0079c531659141344cd1fd0a4f28419497f9722a3daafe3b4186f6b6457e0908390a36000805473ffffffffffffffffffffffffffffffffffffffff19169055565b6000546001600160a01b031690565b6106916108b2565b4210156106e5576040805162461bcd60e51b815260206004820152601260248201527f45706f63683a206e6f7420616c6c6f7765640000000000000000000000000000604482015290519081900360640190fd5b60075460009081908190610701906001600160a01b0316610c26565b600754929550909350915063ffffffff600160a01b9091048116820390811661072d5750505050610868565b60405180602001604052808263ffffffff1660085487038161074b57fe5b046001600160e01b039081169091529051600a80547fffffffff0000000000000000000000000000000000000000000000000000000016919092161790556040805160208101909152600954819063ffffffff8416908603816107aa57fe5b046001600160e01b039081169091529051600b80547fffffffff00000000000000000000000000000000000000000000000000000000169190921617905560088490556009839055600780547fffffffffffffffff00000000ffffffffffffffffffffffffffffffffffffffff16600160a01b63ffffffff851602179055604080518581526020810185905281517fd78a0cb8bb633d06981248b816e7bd33c2a35a6089241d099fa519e361cab902929181900390910190a1505050505b600454610876906001610e27565b600455565b600a546001600160e01b031681565b6007546001600160a01b031681565b60045490565b600754600160a01b900463ffffffff1681565b60006108d76108ce600254600454610e8190919063ffffffff16565b60035490610e27565b905090565b60035490565b6006546001600160a01b031681565b6108f9610af3565b6000546001600160a01b0390811691161461095b576040805162461bcd60e51b815260206004820181905260248201527f4f776e61626c653a2063616c6c6572206973206e6f7420746865206f776e6572604482015290519081900360640190fd5b6001600160a01b0381166109a05760405162461bcd60e51b81526004018080602001828103825260268152602001806110b16026913960400191505060405180910390fd5b600080546040516001600160a01b03808516939216917f8be0079c531659141344cd1fd0a4f28419497f9722a3daafe3b4186f6b6457e091a36000805473ffffffffffffffffffffffffffffffffffffffff19166001600160a01b0392909216919091179055565b6000806000610a178585610eda565b604080517fffffffffffffffffffffffffffffffffffffffff000000000000000000000000606094851b811660208084019190915293851b81166034830152825160288184030181526048830184528051908501207fff0000000000000000000000000000000000000000000000000000000000000060688401529a90941b9093166069840152607d8301989098527f96e8ac4277198ff8b6f785478aa9a39f403cb768dd02cbee326c3e7da348845f609d808401919091528851808403909101815260bd909201909752805196019590952095945050505050565b3390565b6001600160a01b038116610b3c5760405162461bcd60e51b815260040180806020018281038252602d8152602001806110fc602d913960400191505060405180910390fd5b6040516001600160a01b038216906000907f74da04524d50c64947f5dd5381ef1a4dca5cba8ed1d816243f9e48aa0b5617ed908290a36001805473ffffffffffffffffffffffffffffffffffffffff19166001600160a01b0392909216919091179055565b610ba961108b565b6000821580610bcf57505082516001600160e01b031682810290838281610bcc57fe5b04145b610c0a5760405162461bcd60e51b815260040180806020018281038252602381526020018061114a6023913960400191505060405180910390fd5b60408051602081019091529081529392505050565b5160701c90565b6000806000610c33610fb8565b9050836001600160a01b0316635909c0d56040518163ffffffff1660e01b815260040160206040518083038186803b158015610c6e57600080fd5b505afa158015610c82573d6000803e3d6000fd5b505050506040513d6020811015610c9857600080fd5b5051604080517f5a3d549300000000000000000000000000000000000000000000000000000000815290519194506001600160a01b03861691635a3d549391600480820192602092909190829003018186803b158015610cf757600080fd5b505afa158015610d0b573d6000803e3d6000fd5b505050506040513d6020811015610d2157600080fd5b5051604080517f0902f1ac0000000000000000000000000000000000000000000000000000000081529051919350600091829182916001600160a01b03891691630902f1ac916004808301926060929190829003018186803b158015610d8657600080fd5b505afa158015610d9a573d6000803e3d6000fd5b505050506040513d6060811015610db057600080fd5b5080516020820151604090920151909450909250905063ffffffff80821690851614610e1d5780840363ffffffff8116610dea8486610fc2565b516001600160e01b031602969096019563ffffffff8116610e0b8585610fc2565b516001600160e01b0316029590950194505b5050509193909250565b60008282018381101561054b576040805162461bcd60e51b815260206004820152601b60248201527f536166654d6174683a206164646974696f6e206f766572666c6f770000000000604482015290519081900360640190fd5b600082610e905750600061054e565b82820282848281610e9d57fe5b041461054b5760405162461bcd60e51b81526004018080602001828103825260218152602001806111296021913960400191505060405180910390fd5b600080826001600160a01b0316846001600160a01b03161415610f2e5760405162461bcd60e51b81526004018080602001828103825260258152602001806110d76025913960400191505060405180910390fd5b826001600160a01b0316846001600160a01b031610610f4e578284610f51565b83835b90925090506001600160a01b038216610fb1576040805162461bcd60e51b815260206004820152601e60248201527f556e697377617056324c6962726172793a205a45524f5f414444524553530000604482015290519081900360640190fd5b9250929050565b63ffffffff421690565b610fca61109e565b6000826dffffffffffffffffffffffffffff161161102f576040805162461bcd60e51b815260206004820152601760248201527f4669786564506f696e743a204449565f42595f5a45524f000000000000000000604482015290519081900360640190fd5b6040805160208101909152806dffffffffffffffffffffffffffff84167bffffffffffffffffffffffffffff0000000000000000000000000000607087901b168161107657fe5b046001600160e01b0316815250905092915050565b6040518060200160405280600081525090565b6040805160208101909152600081529056fe4f776e61626c653a206e6577206f776e657220697320746865207a65726f2061646472657373556e697377617056324c6962726172793a204944454e544943414c5f4144445245535345536f70657261746f723a207a65726f206164647265737320676976656e20666f72206e6577206f70657261746f72536166654d6174683a206d756c7469706c69636174696f6e206f766572666c6f774669786564506f696e743a204d554c5449504c49434154494f4e5f4f564552464c4f57a2646970667358221220fea7150df8d48c8071652805eb61ddfb096fc305697b4213391e63f87f81a80764736f6c634300060c0033556e697377617056324c6962726172793a204944454e544943414c5f414444524553534553",
  "immutableReferences": {},
  "source": "// SPDX-License-Identifier: MIT\n\npragma solidity ^0.6.0;\n\nimport './UniswapOracle.sol';\n\n// Fixed window oracle that recomputes the average price for the entire period once every period\n// note that the price average is only guaranteed to be over at least 1 period, but may be over a\n// longer period.\ncontract BondRedemtionOracle is UniswapOracle {\n    constructor(\n        address _factory,\n        address _tokenA,\n        address _tokenB,\n        uint256 _period,\n        uint256 _startTime\n    ) public UniswapOracle(_factory, _tokenA, _tokenB, _period, _startTime) {}\n}\n",
  "sourcePath": "/home/enamakel/Work/mahadao.com/arthcoin/smart-contracts/contracts/oracles/BondRedemtionOracle.sol",
  "compiler": {
    "name": "solc",
    "version": "0.6.12+commit.27d51765.Emscripten.clang"
  },
  "schemaVersion": "3.3.3",
  "updatedAt": "2021-01-06T08:57:37.808Z",
  "devdoc": {
    "kind": "dev",
    "methods": {
      "owner()": {
        "details": "Returns the address of the current owner."
      },
      "renounceOwnership()": {
        "details": "Leaves the contract without owner. It will not be possible to call `onlyOwner` functions anymore. Can only be called by the current owner. NOTE: Renouncing ownership will leave the contract without an owner, thereby removing any functionality that is only available to the owner."
      },
      "transferOwnership(address)": {
        "details": "Transfers ownership of the contract to a new account (`newOwner`). Can only be called by the current owner."
      },
      "update()": {
        "details": "Updates 1-day EMA price from Uniswap.  "
      }
    },
    "version": 1
  },
  "userdoc": {
    "kind": "user",
    "methods": {},
    "version": 1
  }
}