{
  "contractName": "GMUOracle",
  "abi": [
    {
      "inputs": [
        {
          "internalType": "uint256",
          "name": "_price",
          "type": "uint256"
        }
      ],
      "stateMutability": "nonpayable",
      "type": "constructor"
    },
    {
      "anonymous": false,
      "inputs": [
        {
          "indexed": true,
          "internalType": "address",
          "name": "previousOwner",
          "type": "address"
        },
        {
          "indexed": true,
          "internalType": "address",
          "name": "newOwner",
          "type": "address"
        }
      ],
      "name": "OwnershipTransferred",
      "type": "event"
    },
    {
      "anonymous": false,
      "inputs": [
        {
          "indexed": false,
          "internalType": "uint256",
          "name": "price0CumulativeLast",
          "type": "uint256"
        },
        {
          "indexed": false,
          "internalType": "uint256",
          "name": "price1CumulativeLast",
          "type": "uint256"
        }
      ],
      "name": "Updated",
      "type": "event"
    },
    {
      "inputs": [],
      "name": "getPrice",
      "outputs": [
        {
          "internalType": "uint256",
          "name": "",
          "type": "uint256"
        }
      ],
      "stateMutability": "view",
      "type": "function",
      "constant": true
    },
    {
      "inputs": [],
      "name": "name",
      "outputs": [
        {
          "internalType": "string",
          "name": "",
          "type": "string"
        }
      ],
      "stateMutability": "view",
      "type": "function",
      "constant": true
    },
    {
      "inputs": [],
      "name": "owner",
      "outputs": [
        {
          "internalType": "address",
          "name": "",
          "type": "address"
        }
      ],
      "stateMutability": "view",
      "type": "function",
      "constant": true
    },
    {
      "inputs": [],
      "name": "price",
      "outputs": [
        {
          "internalType": "uint256",
          "name": "",
          "type": "uint256"
        }
      ],
      "stateMutability": "view",
      "type": "function",
      "constant": true
    },
    {
      "inputs": [],
      "name": "renounceOwnership",
      "outputs": [],
      "stateMutability": "nonpayable",
      "type": "function"
    },
    {
      "inputs": [
        {
          "internalType": "uint256",
          "name": "_price",
          "type": "uint256"
        }
      ],
      "name": "setPrice",
      "outputs": [],
      "stateMutability": "nonpayable",
      "type": "function"
    },
    {
      "inputs": [
        {
          "internalType": "address",
          "name": "newOwner",
          "type": "address"
        }
      ],
      "name": "transferOwnership",
      "outputs": [],
      "stateMutability": "nonpayable",
      "type": "function"
    }
  ],
  "bytecode": "0x6080604052670de0b6b3a764000060015534801561001c57600080fd5b506040516106713803806106718339818101604052602081101561003f57600080fd5b505160408051808201909152600a815269474d55204f7261636c6560b01b602082015281600061006d6100d6565b600080546001600160a01b0319166001600160a01b0383169081178255604051929350917f8be0079c531659141344cd1fd0a4f28419497f9722a3daafe3b4186f6b6457e0908290a35081516100ca9060029060208501906100da565b506001555061016d9050565b3390565b828054600181600116156101000203166002900490600052602060002090601f016020900481019282601f1061011b57805160ff1916838001178555610148565b82800160010185558215610148579182015b8281111561014857825182559160200191906001019061012d565b50610154929150610158565b5090565b5b808211156101545760008155600101610159565b6104f58061017c6000396000f3fe608060405234801561001057600080fd5b506004361061007d5760003560e01c806391b7f5ed1161005b57806391b7f5ed1461012d57806398d5fdca1461014a578063a035b1fe14610164578063f2fde38b1461016c5761007d565b806306fdde0314610082578063715018a6146100ff5780638da5cb5b14610109575b600080fd5b61008a610192565b6040805160208082528351818301528351919283929083019185019080838360005b838110156100c45781810151838201526020016100ac565b50505050905090810190601f1680156100f15780820380516001836020036101000a031916815260200191505b509250505060405180910390f35b61010761021d565b005b6101116102e9565b604080516001600160a01b039092168252519081900360200190f35b6101076004803603602081101561014357600080fd5b50356102f8565b610152610367565b60408051918252519081900360200190f35b61015261036d565b6101076004803603602081101561018257600080fd5b50356001600160a01b0316610373565b6002805460408051602060018416156101000260001901909316849004601f810184900484028201840190925281815292918301828280156102155780601f106101ea57610100808354040283529160200191610215565b820191906000526020600020905b8154815290600101906020018083116101f857829003601f168201915b505050505081565b610225610495565b6000546001600160a01b03908116911614610287576040805162461bcd60e51b815260206004820181905260248201527f4f776e61626c653a2063616c6c6572206973206e6f7420746865206f776e6572604482015290519081900360640190fd5b600080546040516001600160a01b03909116907f8be0079c531659141344cd1fd0a4f28419497f9722a3daafe3b4186f6b6457e0908390a3600080547fffffffffffffffffffffffff0000000000000000000000000000000000000000169055565b6000546001600160a01b031690565b610300610495565b6000546001600160a01b03908116911614610362576040805162461bcd60e51b815260206004820181905260248201527f4f776e61626c653a2063616c6c6572206973206e6f7420746865206f776e6572604482015290519081900360640190fd5b600155565b60015490565b60015481565b61037b610495565b6000546001600160a01b039081169116146103dd576040805162461bcd60e51b815260206004820181905260248201527f4f776e61626c653a2063616c6c6572206973206e6f7420746865206f776e6572604482015290519081900360640190fd5b6001600160a01b0381166104225760405162461bcd60e51b815260040180806020018281038252602681526020018061049a6026913960400191505060405180910390fd5b600080546040516001600160a01b03808516939216917f8be0079c531659141344cd1fd0a4f28419497f9722a3daafe3b4186f6b6457e091a3600080547fffffffffffffffffffffffff0000000000000000000000000000000000000000166001600160a01b0392909216919091179055565b339056fe4f776e61626c653a206e6577206f776e657220697320746865207a65726f2061646472657373a2646970667358221220f01c816ab1281569f3f70192fa78d2f43b5f095129312ff3deaab83681b039d664736f6c634300060c0033",
  "immutableReferences": {},
  "source": "// SPDX-License-Identifier: MIT\n\npragma solidity ^0.6.12;\n\nimport './core/SimpleOracle.sol';\n\ncontract GMUOracle is SimpleOracle {\n    constructor(uint256 _price) public SimpleOracle('GMU Oracle', _price) {}\n}\n",
  "sourcePath": "/Users/enamakel/Work/mahadao/arthcoin/arthcoin-v2/contracts/oracles/GMUOracle.sol",
  "compiler": {
    "name": "solc",
    "version": "0.6.12+commit.27d51765.Emscripten.clang"
  },
  "schemaVersion": "3.3.3",
  "updatedAt": "2021-01-22T05:56:56.745Z",
  "networkType": "ethereum",
  "devdoc": {
    "kind": "dev",
    "methods": {
      "owner()": {
        "details": "Returns the address of the current owner."
      },
      "renounceOwnership()": {
        "details": "Leaves the contract without owner. It will not be possible to call `onlyOwner` functions anymore. Can only be called by the current owner. NOTE: Renouncing ownership will leave the contract without an owner, thereby removing any functionality that is only available to the owner."
      },
      "transferOwnership(address)": {
        "details": "Transfers ownership of the contract to a new account (`newOwner`). Can only be called by the current owner."
      }
    },
    "version": 1
  },
  "userdoc": {
    "kind": "user",
    "methods": {},
    "version": 1
  }
}