{
  "contractName": "Treasury",
  "abi": [
    {
      "inputs": [
        {
          "internalType": "address",
          "name": "_cash",
          "type": "address"
        },
        {
          "internalType": "address",
          "name": "_bond",
          "type": "address"
        },
        {
          "internalType": "address",
          "name": "_share",
          "type": "address"
        },
        {
          "internalType": "address",
          "name": "_bondOracle",
          "type": "address"
        },
        {
          "internalType": "address",
          "name": "_mahausdOracle",
          "type": "address"
        },
        {
          "internalType": "address",
          "name": "_seigniorageOracle",
          "type": "address"
        },
        {
          "internalType": "address",
          "name": "_arthLiquidityBoardroom",
          "type": "address"
        },
        {
          "internalType": "address",
          "name": "_arthBoardroom",
          "type": "address"
        },
        {
          "internalType": "address",
          "name": "_fund",
          "type": "address"
        },
        {
          "internalType": "address",
          "name": "_burnbackFund",
          "type": "address"
        },
        {
          "internalType": "address",
          "name": "_gmuOracle",
          "type": "address"
        },
        {
          "internalType": "uint256",
          "name": "_startTime",
          "type": "uint256"
        }
      ],
      "stateMutability": "nonpayable",
      "type": "constructor"
    },
    {
      "anonymous": false,
      "inputs": [
        {
          "indexed": true,
          "internalType": "address",
          "name": "operator",
          "type": "address"
        },
        {
          "indexed": false,
          "internalType": "address",
          "name": "newFund",
          "type": "address"
        }
      ],
      "name": "ArthBoardroomChanged",
      "type": "event"
    },
    {
      "anonymous": false,
      "inputs": [
        {
          "indexed": true,
          "internalType": "address",
          "name": "operator",
          "type": "address"
        },
        {
          "indexed": false,
          "internalType": "uint256",
          "name": "newRate",
          "type": "uint256"
        }
      ],
      "name": "ArthBoardroomRateChanged",
      "type": "event"
    },
    {
      "anonymous": false,
      "inputs": [
        {
          "indexed": true,
          "internalType": "address",
          "name": "operator",
          "type": "address"
        },
        {
          "indexed": false,
          "internalType": "address",
          "name": "newFund",
          "type": "address"
        }
      ],
      "name": "ArthLiquidityBoardroomChanged",
      "type": "event"
    },
    {
      "anonymous": false,
      "inputs": [
        {
          "indexed": true,
          "internalType": "address",
          "name": "operator",
          "type": "address"
        },
        {
          "indexed": false,
          "internalType": "uint256",
          "name": "newRate",
          "type": "uint256"
        }
      ],
      "name": "ArthLiquidityBoardroomRateChanged",
      "type": "event"
    },
    {
      "anonymous": false,
      "inputs": [
        {
          "indexed": false,
          "internalType": "uint256",
          "name": "timestamp",
          "type": "uint256"
        },
        {
          "indexed": false,
          "internalType": "uint256",
          "name": "seigniorage",
          "type": "uint256"
        }
      ],
      "name": "BoardroomFunded",
      "type": "event"
    },
    {
      "anonymous": false,
      "inputs": [
        {
          "indexed": true,
          "internalType": "address",
          "name": "from",
          "type": "address"
        },
        {
          "indexed": false,
          "internalType": "uint256",
          "name": "amount",
          "type": "uint256"
        }
      ],
      "name": "BoughtBonds",
      "type": "event"
    },
    {
      "anonymous": false,
      "inputs": [
        {
          "indexed": true,
          "internalType": "address",
          "name": "operator",
          "type": "address"
        },
        {
          "indexed": false,
          "internalType": "address",
          "name": "newFund",
          "type": "address"
        }
      ],
      "name": "BurnBackPoolChanged",
      "type": "event"
    },
    {
      "anonymous": false,
      "inputs": [
        {
          "indexed": false,
          "internalType": "uint256",
          "name": "timestamp",
          "type": "uint256"
        },
        {
          "indexed": false,
          "internalType": "uint256",
          "name": "seigniorage",
          "type": "uint256"
        }
      ],
      "name": "BurnBackPoolFunded",
      "type": "event"
    },
    {
      "anonymous": false,
      "inputs": [
        {
          "indexed": true,
          "internalType": "address",
          "name": "operator",
          "type": "address"
        },
        {
          "indexed": false,
          "internalType": "uint256",
          "name": "newRate",
          "type": "uint256"
        }
      ],
      "name": "BurnBackPoolRateChanged",
      "type": "event"
    },
    {
      "anonymous": false,
      "inputs": [
        {
          "indexed": true,
          "internalType": "address",
          "name": "operator",
          "type": "address"
        },
        {
          "indexed": false,
          "internalType": "address",
          "name": "newFund",
          "type": "address"
        }
      ],
      "name": "ContributionPoolChanged",
      "type": "event"
    },
    {
      "anonymous": false,
      "inputs": [
        {
          "indexed": false,
          "internalType": "uint256",
          "name": "timestamp",
          "type": "uint256"
        },
        {
          "indexed": false,
          "internalType": "uint256",
          "name": "seigniorage",
          "type": "uint256"
        }
      ],
      "name": "ContributionPoolFunded",
      "type": "event"
    },
    {
      "anonymous": false,
      "inputs": [
        {
          "indexed": true,
          "internalType": "address",
          "name": "operator",
          "type": "address"
        },
        {
          "indexed": false,
          "internalType": "uint256",
          "name": "newRate",
          "type": "uint256"
        }
      ],
      "name": "ContributionPoolRateChanged",
      "type": "event"
    },
    {
      "anonymous": false,
      "inputs": [
        {
          "indexed": true,
          "internalType": "address",
          "name": "executor",
          "type": "address"
        },
        {
          "indexed": false,
          "internalType": "uint256",
          "name": "at",
          "type": "uint256"
        }
      ],
      "name": "Initialized",
      "type": "event"
    },
    {
      "anonymous": false,
      "inputs": [
        {
          "indexed": true,
          "internalType": "address",
          "name": "target",
          "type": "address"
        }
      ],
      "name": "Migration",
      "type": "event"
    },
    {
      "anonymous": false,
      "inputs": [
        {
          "indexed": true,
          "internalType": "address",
          "name": "previousOperator",
          "type": "address"
        },
        {
          "indexed": true,
          "internalType": "address",
          "name": "newOperator",
          "type": "address"
        }
      ],
      "name": "OperatorTransferred",
      "type": "event"
    },
    {
      "anonymous": false,
      "inputs": [
        {
          "indexed": true,
          "internalType": "address",
          "name": "previousOwner",
          "type": "address"
        },
        {
          "indexed": true,
          "internalType": "address",
          "name": "newOwner",
          "type": "address"
        }
      ],
      "name": "OwnershipTransferred",
      "type": "event"
    },
    {
      "anonymous": false,
      "inputs": [
        {
          "indexed": true,
          "internalType": "address",
          "name": "from",
          "type": "address"
        },
        {
          "indexed": false,
          "internalType": "uint256",
          "name": "amount",
          "type": "uint256"
        }
      ],
      "name": "RedeemedBonds",
      "type": "event"
    },
    {
      "anonymous": false,
      "inputs": [
        {
          "indexed": false,
          "internalType": "uint256",
          "name": "timestamp",
          "type": "uint256"
        },
        {
          "indexed": false,
          "internalType": "uint256",
          "name": "seigniorage",
          "type": "uint256"
        }
      ],
      "name": "TreasuryFunded",
      "type": "event"
    },
    {
      "inputs": [],
      "name": "accumulatedSeigniorage",
      "outputs": [
        {
          "internalType": "uint256",
          "name": "",
          "type": "uint256"
        }
      ],
      "stateMutability": "view",
      "type": "function"
    },
    {
      "inputs": [],
      "name": "arthBoardroom",
      "outputs": [
        {
          "internalType": "address",
          "name": "",
          "type": "address"
        }
      ],
      "stateMutability": "view",
      "type": "function"
    },
    {
      "inputs": [],
      "name": "arthBoardroomAllocationRate",
      "outputs": [
        {
          "internalType": "uint256",
          "name": "",
          "type": "uint256"
        }
      ],
      "stateMutability": "view",
      "type": "function"
    },
    {
      "inputs": [],
      "name": "arthLiquidityBoardroom",
      "outputs": [
        {
          "internalType": "address",
          "name": "",
          "type": "address"
        }
      ],
      "stateMutability": "view",
      "type": "function"
    },
    {
      "inputs": [],
      "name": "arthLiquidityBoardroomAllocationRate",
      "outputs": [
        {
          "internalType": "uint256",
          "name": "",
          "type": "uint256"
        }
      ],
      "stateMutability": "view",
      "type": "function"
    },
    {
      "inputs": [],
      "name": "bond",
      "outputs": [
        {
          "internalType": "address",
          "name": "",
          "type": "address"
        }
      ],
      "stateMutability": "view",
      "type": "function"
    },
    {
      "inputs": [],
      "name": "bondDepletionFloor",
      "outputs": [
        {
          "internalType": "uint256",
          "name": "",
          "type": "uint256"
        }
      ],
      "stateMutability": "view",
      "type": "function"
    },
    {
      "inputs": [],
      "name": "bondOracle",
      "outputs": [
        {
          "internalType": "address",
          "name": "",
          "type": "address"
        }
      ],
      "stateMutability": "view",
      "type": "function"
    },
    {
      "inputs": [],
      "name": "burnbackAllocationRate",
      "outputs": [
        {
          "internalType": "uint256",
          "name": "",
          "type": "uint256"
        }
      ],
      "stateMutability": "view",
      "type": "function"
    },
    {
      "inputs": [],
      "name": "burnbackFund",
      "outputs": [
        {
          "internalType": "address",
          "name": "",
          "type": "address"
        }
      ],
      "stateMutability": "view",
      "type": "function"
    },
    {
      "inputs": [],
      "name": "cash",
      "outputs": [
        {
          "internalType": "address",
          "name": "",
          "type": "address"
        }
      ],
      "stateMutability": "view",
      "type": "function"
    },
    {
      "inputs": [],
      "name": "cashPriceCeiling",
      "outputs": [
        {
          "internalType": "uint256",
          "name": "",
          "type": "uint256"
        }
      ],
      "stateMutability": "view",
      "type": "function"
    },
    {
      "inputs": [],
      "name": "cashTargetPrice",
      "outputs": [
        {
          "internalType": "uint256",
          "name": "",
          "type": "uint256"
        }
      ],
      "stateMutability": "view",
      "type": "function"
    },
    {
      "inputs": [],
      "name": "developmentFund",
      "outputs": [
        {
          "internalType": "address",
          "name": "",
          "type": "address"
        }
      ],
      "stateMutability": "view",
      "type": "function"
    },
    {
      "inputs": [],
      "name": "fundAllocationRate",
      "outputs": [
        {
          "internalType": "uint256",
          "name": "",
          "type": "uint256"
        }
      ],
      "stateMutability": "view",
      "type": "function"
    },
    {
      "inputs": [],
      "name": "getCurrentEpoch",
      "outputs": [
        {
          "internalType": "uint256",
          "name": "",
          "type": "uint256"
        }
      ],
      "stateMutability": "view",
      "type": "function"
    },
    {
      "inputs": [],
      "name": "getPeriod",
      "outputs": [
        {
          "internalType": "uint256",
          "name": "",
          "type": "uint256"
        }
      ],
      "stateMutability": "view",
      "type": "function"
    },
    {
      "inputs": [],
      "name": "getStartTime",
      "outputs": [
        {
          "internalType": "uint256",
          "name": "",
          "type": "uint256"
        }
      ],
      "stateMutability": "view",
      "type": "function"
    },
    {
      "inputs": [],
      "name": "gmuOracle",
      "outputs": [
        {
          "internalType": "address",
          "name": "",
          "type": "address"
        }
      ],
      "stateMutability": "view",
      "type": "function"
    },
    {
      "inputs": [],
      "name": "initialCashPriceOne",
      "outputs": [
        {
          "internalType": "uint256",
          "name": "",
          "type": "uint256"
        }
      ],
      "stateMutability": "view",
      "type": "function"
    },
    {
      "inputs": [],
      "name": "initialized",
      "outputs": [
        {
          "internalType": "bool",
          "name": "",
          "type": "bool"
        }
      ],
      "stateMutability": "view",
      "type": "function"
    },
    {
      "inputs": [],
      "name": "isOperator",
      "outputs": [
        {
          "internalType": "bool",
          "name": "",
          "type": "bool"
        }
      ],
      "stateMutability": "view",
      "type": "function"
    },
    {
      "inputs": [],
      "name": "mahausdOracle",
      "outputs": [
        {
          "internalType": "address",
          "name": "",
          "type": "address"
        }
      ],
      "stateMutability": "view",
      "type": "function"
    },
    {
      "inputs": [],
      "name": "migrated",
      "outputs": [
        {
          "internalType": "bool",
          "name": "",
          "type": "bool"
        }
      ],
      "stateMutability": "view",
      "type": "function"
    },
    {
      "inputs": [],
      "name": "nextEpochPoint",
      "outputs": [
        {
          "internalType": "uint256",
          "name": "",
          "type": "uint256"
        }
      ],
      "stateMutability": "view",
      "type": "function"
    },
    {
      "inputs": [],
      "name": "operator",
      "outputs": [
        {
          "internalType": "address",
          "name": "",
          "type": "address"
        }
      ],
      "stateMutability": "view",
      "type": "function"
    },
    {
      "inputs": [],
      "name": "owner",
      "outputs": [
        {
          "internalType": "address",
          "name": "",
          "type": "address"
        }
      ],
      "stateMutability": "view",
      "type": "function"
    },
    {
      "inputs": [],
      "name": "renounceOwnership",
      "outputs": [],
      "stateMutability": "nonpayable",
      "type": "function"
    },
    {
      "inputs": [],
      "name": "seigniorageOracle",
      "outputs": [
        {
          "internalType": "address",
          "name": "",
          "type": "address"
        }
      ],
      "stateMutability": "view",
      "type": "function"
    },
    {
      "inputs": [
        {
          "internalType": "uint256",
          "name": "_period",
          "type": "uint256"
        }
      ],
      "name": "setPeriod",
      "outputs": [],
      "stateMutability": "nonpayable",
      "type": "function"
    },
    {
      "inputs": [],
      "name": "share",
      "outputs": [
        {
          "internalType": "address",
          "name": "",
          "type": "address"
        }
      ],
      "stateMutability": "view",
      "type": "function"
    },
    {
      "inputs": [],
      "name": "stabilityFee",
      "outputs": [
        {
          "internalType": "uint256",
          "name": "",
          "type": "uint256"
        }
      ],
      "stateMutability": "view",
      "type": "function"
    },
    {
      "inputs": [
        {
          "internalType": "address",
          "name": "newOperator_",
          "type": "address"
        }
      ],
      "name": "transferOperator",
      "outputs": [],
      "stateMutability": "nonpayable",
      "type": "function"
    },
    {
      "inputs": [
        {
          "internalType": "address",
          "name": "newOwner",
          "type": "address"
        }
      ],
      "name": "transferOwnership",
      "outputs": [],
      "stateMutability": "nonpayable",
      "type": "function"
    },
    {
      "inputs": [],
      "name": "getReserve",
      "outputs": [
        {
          "internalType": "uint256",
          "name": "",
          "type": "uint256"
        }
      ],
      "stateMutability": "view",
      "type": "function"
    },
    {
      "inputs": [],
      "name": "getBondOraclePrice",
      "outputs": [
        {
          "internalType": "uint256",
          "name": "",
          "type": "uint256"
        }
      ],
      "stateMutability": "view",
      "type": "function"
    },
    {
      "inputs": [],
      "name": "getGMUOraclePrice",
      "outputs": [
        {
          "internalType": "uint256",
          "name": "",
          "type": "uint256"
        }
      ],
      "stateMutability": "view",
      "type": "function"
    },
    {
      "inputs": [],
      "name": "getMAHAUSDOraclePrice",
      "outputs": [
        {
          "internalType": "uint256",
          "name": "",
          "type": "uint256"
        }
      ],
      "stateMutability": "view",
      "type": "function"
    },
    {
      "inputs": [],
      "name": "getSeigniorageOraclePrice",
      "outputs": [
        {
          "internalType": "uint256",
          "name": "",
          "type": "uint256"
        }
      ],
      "stateMutability": "view",
      "type": "function"
    },
    {
      "inputs": [],
      "name": "initialize",
      "outputs": [],
      "stateMutability": "nonpayable",
      "type": "function"
    },
    {
      "inputs": [
        {
          "internalType": "address",
          "name": "target",
          "type": "address"
        }
      ],
      "name": "migrate",
      "outputs": [],
      "stateMutability": "nonpayable",
      "type": "function"
    },
    {
      "inputs": [
        {
          "internalType": "address",
          "name": "newFund",
          "type": "address"
        },
        {
          "internalType": "uint256",
          "name": "rate",
          "type": "uint256"
        }
      ],
      "name": "setFund",
      "outputs": [],
      "stateMutability": "nonpayable",
      "type": "function"
    },
    {
      "inputs": [
        {
          "internalType": "address",
          "name": "newFund",
          "type": "address"
        },
        {
          "internalType": "uint256",
          "name": "rate",
          "type": "uint256"
        }
      ],
      "name": "setBurnback",
      "outputs": [],
      "stateMutability": "nonpayable",
      "type": "function"
    },
    {
      "inputs": [
        {
          "internalType": "address",
          "name": "newFund",
          "type": "address"
        },
        {
          "internalType": "uint256",
          "name": "rate",
          "type": "uint256"
        }
      ],
      "name": "setArthBoardroom",
      "outputs": [],
      "stateMutability": "nonpayable",
      "type": "function"
    },
    {
      "inputs": [
        {
          "internalType": "address",
          "name": "newFund",
          "type": "address"
        },
        {
          "internalType": "uint256",
          "name": "rate",
          "type": "uint256"
        }
      ],
      "name": "setArthLiquidityBoardroom",
      "outputs": [],
      "stateMutability": "nonpayable",
      "type": "function"
    },
    {
      "inputs": [
        {
          "internalType": "uint256",
          "name": "amount",
          "type": "uint256"
        },
        {
          "internalType": "uint256",
          "name": "targetPrice",
          "type": "uint256"
        }
      ],
      "name": "buyBonds",
      "outputs": [],
      "stateMutability": "nonpayable",
      "type": "function"
    },
    {
      "inputs": [
        {
          "internalType": "uint256",
          "name": "amount",
          "type": "uint256"
        },
        {
          "internalType": "uint256",
          "name": "targetPrice",
          "type": "uint256"
        }
      ],
      "name": "redeemBonds",
      "outputs": [],
      "stateMutability": "nonpayable",
      "type": "function"
    },
    {
      "inputs": [],
      "name": "allocateSeigniorage",
      "outputs": [],
      "stateMutability": "nonpayable",
      "type": "function"
    }
  ],
  "bytecode": "0x60806040526006805461ffff19169055600060155560026016556005601755601460185560506019556001601a553480156200003a57600080fd5b50604051620046613803806200466183398181016040526101808110156200006157600080fd5b508051602082015160408301516060840151608085015160a086015160c087015160e08801516101008901516101208a01516101408b0151610160909b0151999a9899979896979596949593949293919290916201518081600080620000c66200042a565b600180546001600160a01b0319166001600160a01b038316908117909155604051919250906000907f8be0079c531659141344cd1fd0a4f28419497f9722a3daafe3b4186f6b6457e0908290a3506200011e6200042a565b600280546001600160a01b0319166001600160a01b0392831617908190556040519116906000907f74da04524d50c64947f5dd5381ef1a4dca5cba8ed1d816243f9e48aa0b5617ed908290a38260038190555081600481905550806005819055505050508b600660026101000a8154816001600160a01b0302191690836001600160a01b031602179055508a600760006101000a8154816001600160a01b0302191690836001600160a01b0316021790555089600860006101000a8154816001600160a01b0302191690836001600160a01b0316021790555088600f60006101000a8154816001600160a01b0302191690836001600160a01b0316021790555087600a60006101000a8154816001600160a01b0302191690836001600160a01b0316021790555086601060006101000a8154816001600160a01b0302191690836001600160a01b0316021790555081600960006101000a8154816001600160a01b0302191690836001600160a01b0316021790555085600b60006101000a8154816001600160a01b0302191690836001600160a01b0316021790555084600c60006101000a8154816001600160a01b0302191690836001600160a01b0316021790555083600e60006101000a8154816001600160a01b0302191690836001600160a01b0316021790555082600d60006101000a8154816001600160a01b0302191690836001600160a01b03160217905550600960009054906101000a90046001600160a01b03166001600160a01b03166398d5fdca6040518163ffffffff1660e01b815260040160206040518083038186803b1580156200037e57600080fd5b505afa15801562000393573d6000803e3d6000fd5b505050506040513d6020811015620003aa57600080fd5b505160138190556011819055620003ec90606490620003d8906005906200042e602090811b6200345f17901c565b6200049560201b620034c11790919060201c565b60115401601281905550620004146011546103e86200042e60201b6200345f1790919060201c565b60145550620005869a5050505050505050505050565b3390565b6000826200043f575060006200048f565b828202828482816200044d57fe5b04146200048c5760405162461bcd60e51b8152600401808060200182810382526021815260200180620046406021913960400191505060405180910390fd5b90505b92915050565b60006200048c83836040518060400160405280601a81526020017f536166654d6174683a206469766973696f6e206279207a65726f000000000000815250620004df60201b60201c565b600081836200056f5760405162461bcd60e51b81526004018080602001828103825283818151815260200191508051906020019080838360005b838110156200053357818101518382015260200162000519565b50505050905090810190601f168015620005615780820380516001836020036101000a031916815260200191505b509250505060405180910390fd5b5060008385816200057c57fe5b0495945050505050565b6140aa80620005966000396000f3fe608060405234801561001057600080fd5b50600436106103205760003560e01c80635fb80455116101a7578063a8d5fd65116100ee578063c5967c2611610097578063e03047b711610071578063e03047b7146105c4578063f2fde38b146105cc578063f40fda1d146105f257610320565b8063c5967c261461058e578063c828371e14610596578063ce5494bb1461059e57610320565b8063bd257f96116100c8578063bd257f9614610576578063c1a297721461057e578063c1aa39001461058657610320565b8063a8d5fd651461055e578063b8e2cf8e14610566578063b97dd9e21461056e57610320565b806386eba51711610150578063961be3911161012a578063961be391146105465780639d42f96f1461054e5780639da3fe2e1461055657610320565b806386eba5171461052e5780638a2381d7146105365780638da5cb5b1461053e57610320565b8063715018a611610181578063715018a6146104f25780637f804a20146104fa5780638129fc1c1461052657610320565b80635fb80455146104da57806364c9ec6f146104e25780636d19921d146104ea57610320565b806329605e771161026b5780634456eda211610214578063570ca735116101ee578063570ca735146104c257806359bf5d39146104ca5780635b756179146104d257610320565b80634456eda21461048f57806354f04a1114610497578063558d07bc146104ba57610320565b80633253e9bf116102455780633253e9bf14610477578063333064201461047f578063361416e11461048757610320565b806329605e771461041d5780632c678c641461044357806330770ada1461044b57610320565b8063158ef93e116102cd57806323ced135116102a757806323ced1351461040557806327aef8221461040d578063283349081461041557610320565b8063158ef93e146103b557806316061bd4146103d15780631ed24195146103fd57610320565b80631039825a116102fe5780631039825a14610366578063118ebbf91461036e578063132eeaa71461039157610320565b80630266fdb414610325578063038ff0351461033f5780630f3a9f6514610347575b600080fd5b61032d61061e565b60408051918252519081900360200190f35b61032d610694565b6103646004803603602081101561035d57600080fd5b503561069a565b005b61032d610709565b6103646004803603604081101561038457600080fd5b508035906020013561070f565b610399610e58565b604080516001600160a01b039092168252519081900360200190f35b6103bd610e67565b604080519115158252519081900360200190f35b610364600480360360408110156103e757600080fd5b506001600160a01b038135169060200135610e75565b61032d610f72565b61032d610f78565b61032d610f7e565b61032d610f84565b6103646004803603602081101561043357600080fd5b50356001600160a01b0316610f8a565b6103bd611000565b6103646004803603604081101561046157600080fd5b506001600160a01b038135169060200135611009565b610399611117565b61032d611126565b61032d61112c565b6103bd611132565b610364600480360360408110156104ad57600080fd5b5080359060200135611158565b610399611767565b610399611776565b61032d611785565b61036461178b565b61032d61226f565b610399612275565b610399612284565b610364612293565b6103646004803603604081101561051057600080fd5b506001600160a01b038135169060200135612347565b610364612444565b61032d6128b0565b6103996128f5565b610399612904565b610399612913565b610399612928565b610399612937565b610399612946565b61032d612955565b61032d612972565b610399612978565b61032d612987565b61032d61299f565b61032d6129a5565b61032d6129ca565b610364600480360360208110156105b457600080fd5b50356001600160a01b03166129d0565b61032d613240565b610364600480360360208110156105e257600080fd5b50356001600160a01b0316613246565b6103646004803603604081101561060857600080fd5b506001600160a01b038135169060200135613351565b60095460408051634c6afee560e11b815290516000926001600160a01b0316916398d5fdca916004808301926020929190829003018186803b15801561066357600080fd5b505afa158015610677573d6000803e3d6000fd5b505050506040513d602081101561068d57600080fd5b5051905090565b60175481565b6106a2613503565b6001546001600160a01b03908116911614610704576040805162461bcd60e51b815260206004820181905260248201527f4f776e61626c653a2063616c6c6572206973206e6f7420746865206f776e6572604482015290519081900360640190fd5b600355565b60135481565b610717613507565b156107535760405162461bcd60e51b81526004018080602001828103825260268152602001806140196026913960400191505060405180910390fd5b61075b613526565b156107975760405162461bcd60e51b81526004018080602001828103825260268152602001806140196026913960400191505060405180910390fd5b60065460ff16156107ef576040805162461bcd60e51b815260206004820152601260248201527f54726561737572793a206d696772617465640000000000000000000000000000604482015290519081900360640190fd5b600454421015610846576040805162461bcd60e51b815260206004820152601660248201527f45706f63683a206e6f7420737461727465642079657400000000000000000000604482015290519081900360640190fd5b6006546040805163570ca73560e01b8152905130926201000090046001600160a01b03169163570ca735916004808301926020929190829003018186803b15801561089057600080fd5b505afa1580156108a4573d6000803e3d6000fd5b505050506040513d60208110156108ba57600080fd5b50516001600160a01b031614801561094857506007546040805163570ca73560e01b8152905130926001600160a01b03169163570ca735916004808301926020929190829003018186803b15801561091157600080fd5b505afa158015610925573d6000803e3d6000fd5b505050506040513d602081101561093b57600080fd5b50516001600160a01b0316145b80156109ca5750600b546040805163570ca73560e01b8152905130926001600160a01b03169163570ca735916004808301926020929190829003018186803b15801561099357600080fd5b505afa1580156109a7573d6000803e3d6000fd5b505050506040513d60208110156109bd57600080fd5b50516001600160a01b0316145b8015610a4c5750600c546040805163570ca73560e01b8152905130926001600160a01b03169163570ca735916004808301926020929190829003018186803b158015610a1557600080fd5b505afa158015610a29573d6000803e3d6000fd5b505050506040513d6020811015610a3f57600080fd5b50516001600160a01b0316145b610a9d576040805162461bcd60e51b815260206004820152601e60248201527f54726561737572793a206e656564206d6f7265207065726d697373696f6e0000604482015290519081900360640190fd5b60008211610adc5760405162461bcd60e51b815260040180806020018281038252602e815260200180613e92602e913960400191505060405180910390fd5b600f54600090610af4906001600160a01b0316613545565b9050818114610b4a576040805162461bcd60e51b815260206004820152601a60248201527f54726561737572793a2063617368207072696365206d6f766564000000000000604482015290519081900360640190fd5b6012548111610b8a5760405162461bcd60e51b8152600401808060200182810382526032815260200180613ec06032913960400191505060405180910390fd5b600654604080516370a0823160e01b8152306004820152905185926201000090046001600160a01b0316916370a08231916024808301926020929190829003018186803b158015610bda57600080fd5b505afa158015610bee573d6000803e3d6000fd5b505050506040513d6020811015610c0457600080fd5b50511015610c435760405162461bcd60e51b8152600401808060200182810382526025815260200180613f1f6025913960400191505060405180910390fd5b610c5b610c5260155485613620565b60155490613636565b601555601a54600090610c7c90606490610c7690879061345f565b906134c1565b90506000610c92610c8b6128b0565b839061345f565b60085460408051636eb1769f60e11b815233600482015230602482015290519293506000926001600160a01b039092169163dd62ed3e91604480820192602092909190829003018186803b158015610ce957600080fd5b505afa158015610cfd573d6000803e3d6000fd5b505050506040513d6020811015610d1357600080fd5b50519050610d3830610d258385613678565b6008546001600160a01b031691906136d2565b600854610d50906001600160a01b0316333085613818565b6007546040805163079cc67960e41b81523360048201526024810189905290516001600160a01b03909216916379cc67909160448082019260009290919082900301818387803b158015610da357600080fd5b505af1158015610db7573d6000803e3d6000fd5b5050600654610dd992506201000090046001600160a01b0316905033886138a6565b610de1613926565b60408051878152905133917f9c3478f12dce08d85673d802af16ed5b9ebab8420ffd7b145d65d3157084b2ce919081900360200190a25050436000908152602081815260408083203284529091528082208054600160ff199182168117909255338452919092208054909116909117905550505050565b6010546001600160a01b031681565b600654610100900460ff1681565b610e7d613503565b6001546001600160a01b03908116911614610edf576040805162461bcd60e51b815260206004820181905260248201527f4f776e61626c653a2063616c6c6572206973206e6f7420746865206f776e6572604482015290519081900360640190fd5b600d80546001600160a01b0384166001600160a01b031990911681179091556017829055604080519182525133917f428af27efc294b3e949bf5d878cd02339dc92f73fbda8bfb58976662de23353d919081900360200190a260408051828152905133917f13f18440bd5bc12ad9c4a57cb05b0a10cfc5c2eb412a1dba1481cc6b2791c88e919081900360200190a25050565b60035490565b60125481565b60155481565b60195481565b610f92613503565b6001546001600160a01b03908116911614610ff4576040805162461bcd60e51b815260206004820181905260248201527f4f776e61626c653a2063616c6c6572206973206e6f7420746865206f776e6572604482015290519081900360640190fd5b610ffd81613a97565b50565b60065460ff1681565b611011613503565b6001546001600160a01b03908116911614611073576040805162461bcd60e51b815260206004820181905260248201527f4f776e61626c653a2063616c6c6572206973206e6f7420746865206f776e6572604482015290519081900360640190fd5b601854810160641461108457600080fd5b600c80546001600160a01b0384166001600160a01b031990911681179091556019829055604080519182525133917fb98132963277cb377d3217aaab40f3a1dd404fe0a8232013766929bf685cc4cc919081900360200190a260408051828152905133917fee9d28786567ba848c7805cbed0ebbc0b66a102d2ab3d621359221b6555e83a2919081900360200190a25050565b600a546001600160a01b031681565b60185481565b601a5481565b6002546000906001600160a01b0316611149613503565b6001600160a01b031614905090565b611160613507565b1561119c5760405162461bcd60e51b81526004018080602001828103825260268152602001806140196026913960400191505060405180910390fd5b6111a4613526565b156111e05760405162461bcd60e51b81526004018080602001828103825260268152602001806140196026913960400191505060405180910390fd5b60065460ff1615611238576040805162461bcd60e51b815260206004820152601260248201527f54726561737572793a206d696772617465640000000000000000000000000000604482015290519081900360640190fd5b60045442101561128f576040805162461bcd60e51b815260206004820152601660248201527f45706f63683a206e6f7420737461727465642079657400000000000000000000604482015290519081900360640190fd5b6006546040805163570ca73560e01b8152905130926201000090046001600160a01b03169163570ca735916004808301926020929190829003018186803b1580156112d957600080fd5b505afa1580156112ed573d6000803e3d6000fd5b505050506040513d602081101561130357600080fd5b50516001600160a01b031614801561139157506007546040805163570ca73560e01b8152905130926001600160a01b03169163570ca735916004808301926020929190829003018186803b15801561135a57600080fd5b505afa15801561136e573d6000803e3d6000fd5b505050506040513d602081101561138457600080fd5b50516001600160a01b0316145b80156114135750600b546040805163570ca73560e01b8152905130926001600160a01b03169163570ca735916004808301926020929190829003018186803b1580156113dc57600080fd5b505afa1580156113f0573d6000803e3d6000fd5b505050506040513d602081101561140657600080fd5b50516001600160a01b0316145b80156114955750600c546040805163570ca73560e01b8152905130926001600160a01b03169163570ca735916004808301926020929190829003018186803b15801561145e57600080fd5b505afa158015611472573d6000803e3d6000fd5b505050506040513d602081101561148857600080fd5b50516001600160a01b0316145b6114e6576040805162461bcd60e51b815260206004820152601e60248201527f54726561737572793a206e656564206d6f7265207065726d697373696f6e0000604482015290519081900360640190fd5b600082116115255760405162461bcd60e51b8152600401808060200182810382526030815260200180613f9b6030913960400191505060405180910390fd5b600f5460009061153d906001600160a01b0316613545565b905061154761061e565b60135580821461159e576040805162461bcd60e51b815260206004820152601a60248201527f54726561737572793a2063617368207072696365206d6f766564000000000000604482015290519081900360640190fd5b60135481106115de5760405162461bcd60e51b8152600401808060200182810382526032815260200180613ec06032913960400191505060405180910390fd5b6006546040805163079cc67960e41b8152336004820152602481018690529051620100009092046001600160a01b0316916379cc67909160448082019260009290919082900301818387803b15801561163657600080fd5b505af115801561164a573d6000803e3d6000fd5b50506007546001600160a01b031691506340c10f1990503361167884610c7688670de0b6b3a764000061345f565b6040518363ffffffff1660e01b815260040180836001600160a01b0316815260200182815260200192505050602060405180830381600087803b1580156116be57600080fd5b505af11580156116d2573d6000803e3d6000fd5b505050506040513d60208110156116e857600080fd5b506116f39050613926565b60408051848152905133917fdbf5270c3cf4729fec4fdac76fda864aa4f3d14d657ad21772ac28f627141ed9919081900360200190a25050436000908152602081815260408083203284529091528082208054600160ff199182168117909255338452919092208054909116909117905550565b600c546001600160a01b031681565b6002546001600160a01b031690565b60155490565b611793613507565b156117cf5760405162461bcd60e51b81526004018080602001828103825260268152602001806140196026913960400191505060405180910390fd5b6117d7613526565b156118135760405162461bcd60e51b81526004018080602001828103825260268152602001806140196026913960400191505060405180910390fd5b60065460ff161561186b576040805162461bcd60e51b815260206004820152601260248201527f54726561737572793a206d696772617465640000000000000000000000000000604482015290519081900360640190fd5b6004544210156118c2576040805162461bcd60e51b815260206004820152601660248201527f45706f63683a206e6f7420737461727465642079657400000000000000000000604482015290519081900360640190fd5b6118ca6129a5565b42101561191e576040805162461bcd60e51b815260206004820152601260248201527f45706f63683a206e6f7420616c6c6f7765640000000000000000000000000000604482015290519081900360640190fd5b6006546040805163570ca73560e01b8152905130926201000090046001600160a01b03169163570ca735916004808301926020929190829003018186803b15801561196857600080fd5b505afa15801561197c573d6000803e3d6000fd5b505050506040513d602081101561199257600080fd5b50516001600160a01b0316148015611a2057506007546040805163570ca73560e01b8152905130926001600160a01b03169163570ca735916004808301926020929190829003018186803b1580156119e957600080fd5b505afa1580156119fd573d6000803e3d6000fd5b505050506040513d6020811015611a1357600080fd5b50516001600160a01b0316145b8015611aa25750600b546040805163570ca73560e01b8152905130926001600160a01b03169163570ca735916004808301926020929190829003018186803b158015611a6b57600080fd5b505afa158015611a7f573d6000803e3d6000fd5b505050506040513d6020811015611a9557600080fd5b50516001600160a01b0316145b8015611b245750600c546040805163570ca73560e01b8152905130926001600160a01b03169163570ca735916004808301926020929190829003018186803b158015611aed57600080fd5b505afa158015611b01573d6000803e3d6000fd5b505050506040513d6020811015611b1757600080fd5b50516001600160a01b0316145b611b75576040805162461bcd60e51b815260206004820152601e60248201527f54726561737572793a206e656564206d6f7265207065726d697373696f6e0000604482015290519081900360640190fd5b611b7d613926565b601054600090611b95906001600160a01b0316613545565b90506012548111611ba65750612223565b6000611c2e601554600660029054906101000a90046001600160a01b03166001600160a01b03166318160ddd6040518163ffffffff1660e01b815260040160206040518083038186803b158015611bfc57600080fd5b505afa158015611c10573d6000803e3d6000fd5b505050506040513d6020811015611c2657600080fd5b505190613636565b9050611c3861061e565b6013819055600090611c4b908490613636565b90506000611c65670de0b6b3a7640000610c76858561345f565b600654604080517f40c10f19000000000000000000000000000000000000000000000000000000008152306004820152602481018490529051929350620100009091046001600160a01b0316916340c10f19916044808201926020929091908290030181600087803b158015611cda57600080fd5b505af1158015611cee573d6000803e3d6000fd5b505050506040513d6020811015611d0457600080fd5b5050601654600090611d1e90606490610c7690859061345f565b90508015611e2f57600e54600654611d49916001600160a01b036201000090920482169116836136d2565b600e5460065460408051635ff03ed360e11b8152620100009092046001600160a01b0390811660048401526024830185905260606044840152602060648401527f54726561737572793a20536569676e696f7261676520416c6c6f636174696f6e6084840152905192169163bfe07da69160a48082019260009290919082900301818387803b158015611ddb57600080fd5b505af1158015611def573d6000803e3d6000fd5b5050604080514281526020810185905281517f4caa64211297e9263667fef70732dc65ca7a8e8c60dc72539ed94518628212d09450908190039091019150a15b6000611e4b6064610c766016548661345f90919063ffffffff16565b90508015611f5c57600d54600654611e76916001600160a01b036201000090920482169116836136d2565b600d5460065460408051635ff03ed360e11b8152620100009092046001600160a01b0390811660048401526024830185905260606044840152602060648401527f54726561737572793a20536569676e696f7261676520416c6c6f636174696f6e6084840152905192169163bfe07da69160a48082019260009290919082900301818387803b158015611f0857600080fd5b505af1158015611f1c573d6000803e3d6000fd5b5050604080514281526020810185905281517f91779b2b2ce357465eacbc744a6202c17a1d4fff9f8213d65937e784da13b4779450908190039091019150a15b611f7081611f6a8585613636565b90613636565b92506000611fd184611fcc601554600760009054906101000a90046001600160a01b03166001600160a01b03166318160ddd6040518163ffffffff1660e01b815260040160206040518083038186803b158015611bfc57600080fd5b613620565b9050801561202557601554611fe69082613678565b601555604080514281526020810183905281517ff705142bf09f04297640495ddf7c59b7fd6f51894c5aea9602d631cf05f0efc2929181900390910190a15b60006120318583613636565b905060008111612048575050505050505050612223565b60006120646064610c766018548561345f90919063ffffffff16565b905060006120826064610c766019548661345f90919063ffffffff16565b9050811561214e57600b546006546120ad916001600160a01b036201000090920482169116846136d2565b600b54604080516397ffe1d760e01b81526004810185905290516001600160a01b03909216916397ffe1d79160248082019260009290919082900301818387803b1580156120fa57600080fd5b505af115801561210e573d6000803e3d6000fd5b5050604080514281526020810186905281517f03ca7276ab7799bf73fb79d27ff0610cd7049574f2508ef8445162833d439aea9450908190039091019150a15b801561221857600c54600654612177916001600160a01b036201000090920482169116836136d2565b600c54604080516397ffe1d760e01b81526004810184905290516001600160a01b03909216916397ffe1d79160248082019260009290919082900301818387803b1580156121c457600080fd5b505af11580156121d8573d6000803e3d6000fd5b5050604080514281526020810185905281517f03ca7276ab7799bf73fb79d27ff0610cd7049574f2508ef8445162833d439aea9450908190039091019150a15b505050505050505050505b600554612231906001613678565b600555436000908152602081815260408083203284529091528082208054600160ff1991821681179092553384529190922080549091169091179055565b60115481565b6007546001600160a01b031681565b600f546001600160a01b031681565b61229b613503565b6001546001600160a01b039081169116146122fd576040805162461bcd60e51b815260206004820181905260248201527f4f776e61626c653a2063616c6c6572206973206e6f7420746865206f776e6572604482015290519081900360640190fd5b6001546040516000916001600160a01b0316907f8be0079c531659141344cd1fd0a4f28419497f9722a3daafe3b4186f6b6457e0908390a3600180546001600160a01b0319169055565b61234f613503565b6001546001600160a01b039081169116146123b1576040805162461bcd60e51b815260206004820181905260248201527f4f776e61626c653a2063616c6c6572206973206e6f7420746865206f776e6572604482015290519081900360640190fd5b600e80546001600160a01b0384166001600160a01b031990911681179091556016829055604080519182525133917f970b0c70d6e9879d19345f9dbfd8bacae71546478b8bb2d8a56ad8927d3d436e919081900360200190a260408051828152905133917f25ba333c9a98f8f18bb40ff507a4a1fb423614f442759c754d038a9de3f81cf3919081900360200190a25050565b6006546040805163570ca73560e01b8152905130926201000090046001600160a01b03169163570ca735916004808301926020929190829003018186803b15801561248e57600080fd5b505afa1580156124a2573d6000803e3d6000fd5b505050506040513d60208110156124b857600080fd5b50516001600160a01b031614801561254657506007546040805163570ca73560e01b8152905130926001600160a01b03169163570ca735916004808301926020929190829003018186803b15801561250f57600080fd5b505afa158015612523573d6000803e3d6000fd5b505050506040513d602081101561253957600080fd5b50516001600160a01b0316145b80156125c85750600b546040805163570ca73560e01b8152905130926001600160a01b03169163570ca735916004808301926020929190829003018186803b15801561259157600080fd5b505afa1580156125a5573d6000803e3d6000fd5b505050506040513d60208110156125bb57600080fd5b50516001600160a01b0316145b801561264a5750600c546040805163570ca73560e01b8152905130926001600160a01b03169163570ca735916004808301926020929190829003018186803b15801561261357600080fd5b505afa158015612627573d6000803e3d6000fd5b505050506040513d602081101561263d57600080fd5b50516001600160a01b0316145b61269b576040805162461bcd60e51b815260206004820152601e60248201527f54726561737572793a206e656564206d6f7265207065726d697373696f6e0000604482015290519081900360640190fd5b600654610100900460ff16156126f8576040805162461bcd60e51b815260206004820152601560248201527f54726561737572793a20696e697469616c697a65640000000000000000000000604482015290519081900360640190fd5b600654604080516370a0823160e01b81523060048201529051620100009092046001600160a01b0316916342966c689183916370a0823191602480820192602092909190829003018186803b15801561275057600080fd5b505afa158015612764573d6000803e3d6000fd5b505050506040513d602081101561277a57600080fd5b5051604080517fffffffff0000000000000000000000000000000000000000000000000000000060e085901b168152600481019290925251602480830192600092919082900301818387803b1580156127d257600080fd5b505af11580156127e6573d6000803e3d6000fd5b5050600654604080516370a0823160e01b81523060048201529051620100009092046001600160a01b031693506370a082319250602480820192602092909190829003018186803b15801561283a57600080fd5b505afa15801561284e573d6000803e3d6000fd5b505050506040513d602081101561286457600080fd5b50516015556006805461ff00191661010017905560408051438152905133917f25ff68dd81b34665b5ba7e553ee5511bf6812e12adb4a7e2c0d9e26b3099ce79919081900360200190a2565b600a5460408051634c6afee560e11b815290516000926001600160a01b0316916398d5fdca916004808301926020929190829003018186803b15801561066357600080fd5b600e546001600160a01b031681565b6001546001600160a01b031690565b6006546201000090046001600160a01b031681565b600b546001600160a01b031681565b6009546001600160a01b031681565b6008546001600160a01b031681565b60105460009061296d906001600160a01b0316613545565b905090565b60055490565b600d546001600160a01b031681565b600f5460009061296d906001600160a01b0316613545565b60165481565b600061296d6129c160035460055461345f90919063ffffffff16565b60045490613678565b60045490565b6002546001600160a01b03163314612a195760405162461bcd60e51b8152600401808060200182810382526024815260200180613fcb6024913960400191505060405180910390fd5b6006546040805163570ca73560e01b8152905130926201000090046001600160a01b03169163570ca735916004808301926020929190829003018186803b158015612a6357600080fd5b505afa158015612a77573d6000803e3d6000fd5b505050506040513d6020811015612a8d57600080fd5b50516001600160a01b0316148015612b1b57506007546040805163570ca73560e01b8152905130926001600160a01b03169163570ca735916004808301926020929190829003018186803b158015612ae457600080fd5b505afa158015612af8573d6000803e3d6000fd5b505050506040513d6020811015612b0e57600080fd5b50516001600160a01b0316145b8015612b9d5750600b546040805163570ca73560e01b8152905130926001600160a01b03169163570ca735916004808301926020929190829003018186803b158015612b6657600080fd5b505afa158015612b7a573d6000803e3d6000fd5b505050506040513d6020811015612b9057600080fd5b50516001600160a01b0316145b8015612c1f5750600c546040805163570ca73560e01b8152905130926001600160a01b03169163570ca735916004808301926020929190829003018186803b158015612be857600080fd5b505afa158015612bfc573d6000803e3d6000fd5b505050506040513d6020811015612c1257600080fd5b50516001600160a01b0316145b612c70576040805162461bcd60e51b815260206004820152601e60248201527f54726561737572793a206e656564206d6f7265207065726d697373696f6e0000604482015290519081900360640190fd5b60065460ff1615612cc8576040805162461bcd60e51b815260206004820152601260248201527f54726561737572793a206d696772617465640000000000000000000000000000604482015290519081900360640190fd5b600660029054906101000a90046001600160a01b03166001600160a01b03166329605e77826040518263ffffffff1660e01b815260040180826001600160a01b03168152602001915050600060405180830381600087803b158015612d2c57600080fd5b505af1158015612d40573d6000803e3d6000fd5b50505050600660029054906101000a90046001600160a01b03166001600160a01b031663f2fde38b826040518263ffffffff1660e01b815260040180826001600160a01b03168152602001915050600060405180830381600087803b158015612da857600080fd5b505af1158015612dbc573d6000803e3d6000fd5b5050600654604080516370a0823160e01b81523060048201529051620100009092046001600160a01b0316935063a9059cbb9250849184916370a08231916024808301926020929190829003018186803b158015612e1957600080fd5b505afa158015612e2d573d6000803e3d6000fd5b505050506040513d6020811015612e4357600080fd5b5051604080517fffffffff0000000000000000000000000000000000000000000000000000000060e086901b1681526001600160a01b03909316600484015260248301919091525160448083019260209291908290030181600087803b158015612eac57600080fd5b505af1158015612ec0573d6000803e3d6000fd5b505050506040513d6020811015612ed657600080fd5b5050600754604080517f29605e770000000000000000000000000000000000000000000000000000000081526001600160a01b038481166004830152915191909216916329605e7791602480830192600092919082900301818387803b158015612f3f57600080fd5b505af1158015612f53573d6000803e3d6000fd5b5050600754604080517ff2fde38b0000000000000000000000000000000000000000000000000000000081526001600160a01b038681166004830152915191909216935063f2fde38b9250602480830192600092919082900301818387803b158015612fbe57600080fd5b505af1158015612fd2573d6000803e3d6000fd5b5050600754604080516370a0823160e01b815230600482015290516001600160a01b03909216935063a9059cbb9250849184916370a08231916024808301926020929190829003018186803b15801561302a57600080fd5b505afa15801561303e573d6000803e3d6000fd5b505050506040513d602081101561305457600080fd5b5051604080517fffffffff0000000000000000000000000000000000000000000000000000000060e086901b1681526001600160a01b03909316600484015260248301919091525160448083019260209291908290030181600087803b1580156130bd57600080fd5b505af11580156130d1573d6000803e3d6000fd5b505050506040513d60208110156130e757600080fd5b5050600854604080516370a0823160e01b815230600482015290516001600160a01b039092169163a9059cbb91849184916370a08231916024808301926020929190829003018186803b15801561313d57600080fd5b505afa158015613151573d6000803e3d6000fd5b505050506040513d602081101561316757600080fd5b5051604080517fffffffff0000000000000000000000000000000000000000000000000000000060e086901b1681526001600160a01b03909316600484015260248301919091525160448083019260209291908290030181600087803b1580156131d057600080fd5b505af11580156131e4573d6000803e3d6000fd5b505050506040513d60208110156131fa57600080fd5b50506006805460ff191660011790556040516001600160a01b038216907f0caca70b66aed56b0630989a049110023c5a3f37e0ea4b6ce96fc747663f3ebc90600090a250565b60145481565b61324e613503565b6001546001600160a01b039081169116146132b0576040805162461bcd60e51b815260206004820181905260248201527f4f776e61626c653a2063616c6c6572206973206e6f7420746865206f776e6572604482015290519081900360640190fd5b6001600160a01b0381166132f55760405162461bcd60e51b8152600401808060200182810382526026815260200180613e6c6026913960400191505060405180910390fd5b6001546040516001600160a01b038084169216907f8be0079c531659141344cd1fd0a4f28419497f9722a3daafe3b4186f6b6457e090600090a3600180546001600160a01b0319166001600160a01b0392909216919091179055565b613359613503565b6001546001600160a01b039081169116146133bb576040805162461bcd60e51b815260206004820181905260248201527f4f776e61626c653a2063616c6c6572206973206e6f7420746865206f776e6572604482015290519081900360640190fd5b60195481016064146133cc57600080fd5b600b80546001600160a01b0384166001600160a01b031990911681179091556018829055604080519182525133917f09bd253baf7f3f600456bb4918201a36c128307ef4f7afd11a402bfedf64e09b919081900360200190a260408051828152905133917f5eb2c43aaaecd8cfdfc1cb31d34012c4046714805e610c1e2c019ee60ddf388a919081900360200190a25050565b60008261346e575060006134bb565b8282028284828161347b57fe5b04146134b85760405162461bcd60e51b8152600401808060200182810382526021815260200180613f446021913960400191505060405180910390fd5b90505b92915050565b60006134b883836040518060400160405280601a81526020017f536166654d6174683a206469766973696f6e206279207a65726f000000000000815250613b34565b3390565b4360009081526020818152604080832032845290915290205460ff1690565b4360009081526020818152604080832033845290915290205460ff1690565b600654604080517f3ddac9530000000000000000000000000000000000000000000000000000000081526001600160a01b036201000090930483166004820152670de0b6b3a764000060248201529051600092841691633ddac953916044808301926020929190829003018186803b1580156135c057600080fd5b505afa9250505080156135e557506040513d60208110156135e057600080fd5b505160015b6134bb5760405162461bcd60e51b8152600401808060200182810382526036815260200180613f656036913960400191505060405180910390fd5b600081831061362f57816134b8565b5090919050565b60006134b883836040518060400160405280601e81526020017f536166654d6174683a207375627472616374696f6e206f766572666c6f770000815250613bd6565b6000828201838110156134b8576040805162461bcd60e51b815260206004820152601b60248201527f536166654d6174683a206164646974696f6e206f766572666c6f770000000000604482015290519081900360640190fd5b801580613758575060408051636eb1769f60e11b81523060048201526001600160a01b03848116602483015291519185169163dd62ed3e91604480820192602092909190829003018186803b15801561372a57600080fd5b505afa15801561373e573d6000803e3d6000fd5b505050506040513d602081101561375457600080fd5b5051155b6137935760405162461bcd60e51b815260040180806020018281038252603681526020018061403f6036913960400191505060405180910390fd5b604080516001600160a01b038416602482015260448082018490528251808303909101815260649091019091526020810180517bffffffffffffffffffffffffffffffffffffffffffffffffffffffff167f095ea7b300000000000000000000000000000000000000000000000000000000179052613813908490613c30565b505050565b604080516001600160a01b0380861660248301528416604482015260648082018490528251808303909101815260849091019091526020810180517bffffffffffffffffffffffffffffffffffffffffffffffffffffffff167f23b872dd000000000000000000000000000000000000000000000000000000001790526138a0908590613c30565b50505050565b604080516001600160a01b038416602482015260448082018490528251808303909101815260649091019091526020810180517bffffffffffffffffffffffffffffffffffffffffffffffffffffffff167fa9059cbb00000000000000000000000000000000000000000000000000000000179052613813908490613c30565b600f60009054906101000a90046001600160a01b03166001600160a01b031663a2e620456040518163ffffffff1660e01b8152600401600060405180830381600087803b15801561397657600080fd5b505af1925050508015613987575060015b50601060009054906101000a90046001600160a01b03166001600160a01b031663a2e620456040518163ffffffff1660e01b8152600401600060405180830381600087803b1580156139d857600080fd5b505af19250505080156139e9575060015b50600960009054906101000a90046001600160a01b03166001600160a01b03166398d5fdca6040518163ffffffff1660e01b815260040160206040518083038186803b158015613a3857600080fd5b505afa158015613a4c573d6000803e3d6000fd5b505050506040513d6020811015613a6257600080fd5b50516013819055613a7c90606490610c769060059061345f565b601354908101601255613a92906103e89061345f565b601455565b6001600160a01b038116613adc5760405162461bcd60e51b815260040180806020018281038252602d815260200180613ef2602d913960400191505060405180910390fd5b6040516001600160a01b038216906000907f74da04524d50c64947f5dd5381ef1a4dca5cba8ed1d816243f9e48aa0b5617ed908290a3600280546001600160a01b0319166001600160a01b0392909216919091179055565b60008183613bc05760405162461bcd60e51b81526004018080602001828103825283818151815260200191508051906020019080838360005b83811015613b85578181015183820152602001613b6d565b50505050905090810190601f168015613bb25780820380516001836020036101000a031916815260200191505b509250505060405180910390fd5b506000838581613bcc57fe5b0495945050505050565b60008184841115613c285760405162461bcd60e51b8152602060048201818152835160248401528351909283926044909101919085019080838360008315613b85578181015183820152602001613b6d565b505050900390565b6060613c85826040518060400160405280602081526020017f5361666545524332303a206c6f772d6c6576656c2063616c6c206661696c6564815250856001600160a01b0316613ce19092919063ffffffff16565b80519091501561381357808060200190516020811015613ca457600080fd5b50516138135760405162461bcd60e51b815260040180806020018281038252602a815260200180613fef602a913960400191505060405180910390fd5b6060613cf08484600085613cf8565b949350505050565b6060613d0385613e65565b613d54576040805162461bcd60e51b815260206004820152601d60248201527f416464726573733a2063616c6c20746f206e6f6e2d636f6e7472616374000000604482015290519081900360640190fd5b60006060866001600160a01b031685876040518082805190602001908083835b60208310613d935780518252601f199092019160209182019101613d74565b6001836020036101000a03801982511681845116808217855250505050505090500191505060006040518083038185875af1925050503d8060008114613df5576040519150601f19603f3d011682016040523d82523d6000602084013e613dfa565b606091505b50915091508115613e0e579150613cf09050565b805115613e1e5780518082602001fd5b60405162461bcd60e51b8152602060048201818152865160248401528651879391928392604401919085019080838360008315613b85578181015183820152602001613b6d565b3b15159056fe4f776e61626c653a206e6577206f776e657220697320746865207a65726f206164647265737354726561737572793a2063616e6e6f742072656465656d20626f6e64732077697468207a65726f20616d6f756e7454726561737572793a20636173685072696365206e6f7420656c696769626c6520666f7220626f6e642070757263686173656f70657261746f723a207a65726f206164647265737320676976656e20666f72206e6577206f70657261746f7254726561737572793a20747265617375727920686173206e6f206d6f726520627564676574536166654d6174683a206d756c7469706c69636174696f6e206f766572666c6f7754726561737572793a206661696c656420746f20636f6e73756c7420636173682070726963652066726f6d20746865206f7261636c6554726561737572793a2063616e6e6f7420707572636861736520626f6e64732077697468207a65726f20616d6f756e746f70657261746f723a2063616c6c6572206973206e6f7420746865206f70657261746f725361666545524332303a204552433230206f7065726174696f6e20646964206e6f742073756363656564436f6e747261637447756172643a206f6e6520626c6f636b2c206f6e652066756e6374696f6e5361666545524332303a20617070726f76652066726f6d206e6f6e2d7a65726f20746f206e6f6e2d7a65726f20616c6c6f77616e6365a26469706673582212201e3be3495640c6c69779198028ab598b32bd7f5730633a19ddc292a2187c52f064736f6c634300060c0033536166654d6174683a206d756c7469706c69636174696f6e206f766572666c6f77",
  "immutableReferences": {},
  "source": "// SPDX-License-Identifier: MIT\n\npragma solidity ^0.6.0;\n\nimport '@openzeppelin/contracts/math/Math.sol';\nimport '@openzeppelin/contracts/token/ERC20/IERC20.sol';\nimport '@openzeppelin/contracts/token/ERC20/SafeERC20.sol';\nimport '@openzeppelin/contracts/utils/ReentrancyGuard.sol';\n\nimport './interfaces/IOracle.sol';\nimport './interfaces/IBoardroom.sol';\nimport './interfaces/IBasisAsset.sol';\nimport './interfaces/ISimpleERCFund.sol';\nimport './lib/Babylonian.sol';\nimport './lib/FixedPoint.sol';\nimport './lib/Safe112.sol';\nimport './owner/Operator.sol';\nimport './utils/Epoch.sol';\nimport './utils/ContractGuard.sol';\nimport './interfaces/IGMUOracle.sol';\n\n/**\n * @title Basis ARTH Treasury contract\n * @notice Monetary policy logic to adjust supplies of basis cash assets\n * @author Summer Smith & Rick Sanchez\n */\ncontract Treasury is ContractGuard, Epoch {\n    using FixedPoint for *;\n    using SafeERC20 for IERC20;\n    using Address for address;\n    using SafeMath for uint256;\n    using Safe112 for uint112;\n\n    /* ========== STATE VARIABLES ========== */\n\n    // ========== FLAGS\n    bool public migrated = false;\n    bool public initialized = false;\n\n    // ========== CORE\n    address public cash;\n    address public bond;\n    address public share;\n    address public gmuOracle;\n    address public mahausdOracle;\n\n    address public arthLiquidityBoardroom;\n    address public arthBoardroom;\n    address public burnbackFund;\n    address public developmentFund;\n\n    address public bondOracle;\n    address public seigniorageOracle;\n\n    // ========== PARAMS\n    uint256 public initialCashPriceOne;\n    uint256 public cashPriceCeiling;\n    uint256 public cashTargetPrice;\n    uint256 public bondDepletionFloor;\n    uint256 public accumulatedSeigniorage = 0;\n\n    uint256 public fundAllocationRate = 2;\n    uint256 public burnbackAllocationRate = 5;\n    uint256 public arthLiquidityBoardroomAllocationRate = 20; // In %.\n    uint256 public arthBoardroomAllocationRate = 80; // IN %.\n    uint256 public stabilityFee = 1; // IN %;\n\n    /* ========== CONSTRUCTOR ========== */\n\n    constructor(\n        address _cash,\n        address _bond,\n        address _share,\n        address _bondOracle,\n        address _mahausdOracle,\n        address _seigniorageOracle,\n        address _arthLiquidityBoardroom,\n        address _arthBoardroom,\n        address _fund,\n        address _burnbackFund,\n        address _gmuOracle,\n        uint256 _startTime\n    ) public Epoch(1 days, _startTime, 0) {\n        cash = _cash;\n        bond = _bond;\n        share = _share;\n        bondOracle = _bondOracle;\n        mahausdOracle = _mahausdOracle;\n        seigniorageOracle = _seigniorageOracle;\n        gmuOracle = _gmuOracle;\n        arthLiquidityBoardroom = _arthLiquidityBoardroom;\n        arthBoardroom = _arthBoardroom;\n        developmentFund = _fund;\n        burnbackFund = _burnbackFund;\n\n        cashTargetPrice = IGMUOracle(gmuOracle).getPrice();\n        initialCashPriceOne = cashTargetPrice;\n\n        // Set the ceiling price to be 5% above the inital price.\n        cashPriceCeiling =\n            initialCashPriceOne +\n            uint256(5).mul(initialCashPriceOne).div(10**2);\n\n        bondDepletionFloor = uint256(1000).mul(initialCashPriceOne);\n    }\n\n    /* =================== Modifier =================== */\n\n    modifier checkMigration {\n        require(!migrated, 'Treasury: migrated');\n\n        _;\n    }\n\n    modifier checkOperator {\n        require(\n            IBasisAsset(cash).operator() == address(this) &&\n                IBasisAsset(bond).operator() == address(this) &&\n                Operator(arthLiquidityBoardroom).operator() == address(this) &&\n                Operator(arthBoardroom).operator() == address(this),\n            'Treasury: need more permission'\n        );\n\n        _;\n    }\n\n    /* ========== VIEW FUNCTIONS ========== */\n    // budget\n    function getReserve() public view returns (uint256) {\n        return accumulatedSeigniorage;\n    }\n\n    // oracle\n    function getBondOraclePrice() public view returns (uint256) {\n        return _getCashPrice(bondOracle);\n    }\n\n    function getGMUOraclePrice() public view returns (uint256) {\n        return IGMUOracle(gmuOracle).getPrice();\n    }\n\n    function getMAHAUSDOraclePrice() public view returns (uint256) {\n        return IGMUOracle(mahausdOracle).getPrice();\n    }\n\n    function getSeigniorageOraclePrice() public view returns (uint256) {\n        return _getCashPrice(seigniorageOracle);\n    }\n\n    function _getCashPrice(address oracle) internal view returns (uint256) {\n        try IOracle(oracle).consult(cash, 1e18) returns (uint256 price) {\n            return price;\n        } catch {\n            revert('Treasury: failed to consult cash price from the oracle');\n        }\n    }\n\n    /* ========== GOVERNANCE ========== */\n\n    function initialize() public checkOperator {\n        require(!initialized, 'Treasury: initialized');\n\n        // burn all of it's balance\n        IBasisAsset(cash).burn(IERC20(cash).balanceOf(address(this)));\n\n        // set accumulatedSeigniorage to it's balance\n        accumulatedSeigniorage = IERC20(cash).balanceOf(address(this));\n\n        initialized = true;\n        emit Initialized(msg.sender, block.number);\n    }\n\n    function migrate(address target) public onlyOperator checkOperator {\n        require(!migrated, 'Treasury: migrated');\n\n        // cash\n        Operator(cash).transferOperator(target);\n        Operator(cash).transferOwnership(target);\n        IERC20(cash).transfer(target, IERC20(cash).balanceOf(address(this)));\n\n        // bond\n        Operator(bond).transferOperator(target);\n        Operator(bond).transferOwnership(target);\n        IERC20(bond).transfer(target, IERC20(bond).balanceOf(address(this)));\n\n        // share - disabled ownership and operator functions as MAHA tokens don't have these\n        // Operator(share).transferOperator(target);\n        // Operator(share).transferOwnership(target);\n        IERC20(share).transfer(target, IERC20(share).balanceOf(address(this)));\n\n        migrated = true;\n        emit Migration(target);\n    }\n\n    function setFund(address newFund, uint256 rate) public onlyOwner {\n        developmentFund = newFund;\n        fundAllocationRate = rate;\n\n        emit ContributionPoolChanged(msg.sender, newFund);\n        emit ContributionPoolRateChanged(msg.sender, rate);\n    }\n\n    function setBurnback(address newFund, uint256 rate) public onlyOwner {\n        burnbackFund = newFund;\n        burnbackAllocationRate = rate;\n\n        emit BurnBackPoolChanged(msg.sender, newFund);\n        emit BurnBackPoolRateChanged(msg.sender, rate);\n    }\n\n    function setArthBoardroom(address newFund, uint256 rate) public onlyOwner {\n        require(rate + arthLiquidityBoardroomAllocationRate == 100);\n\n        arthBoardroom = newFund;\n        arthBoardroomAllocationRate = rate;\n\n        emit ArthBoardroomChanged(msg.sender, newFund);\n        emit ArthBoardroomRateChanged(msg.sender, rate);\n    }\n\n    function setArthLiquidityBoardroom(address newFund, uint256 rate)\n        public\n        onlyOwner\n    {\n        require(rate + arthBoardroomAllocationRate == 100);\n\n        arthLiquidityBoardroom = newFund;\n        arthLiquidityBoardroomAllocationRate = rate;\n\n        emit ArthLiquidityBoardroomChanged(msg.sender, newFund);\n        emit ArthLiquidityBoardroomRateChanged(msg.sender, rate);\n    }\n\n    /* ========== MUTABLE FUNCTIONS ========== */\n\n    function _updateCashPrice() internal {\n        try IOracle(bondOracle).update() {} catch {}\n        try IOracle(seigniorageOracle).update() {} catch {}\n\n        cashTargetPrice = IGMUOracle(gmuOracle).getPrice();\n\n        // Set the ceiling price to be 5% above the target price.\n        cashPriceCeiling =\n            cashTargetPrice +\n            uint256(5).mul(cashTargetPrice).div(10**2);\n\n        bondDepletionFloor = uint256(1000).mul(cashTargetPrice);\n    }\n\n    function buyBonds(uint256 amount, uint256 targetPrice)\n        external\n        onlyOneBlock\n        checkMigration\n        checkStartTime\n        checkOperator\n    {\n        require(amount > 0, 'Treasury: cannot purchase bonds with zero amount');\n\n        uint256 bondPrice = _getCashPrice(bondOracle);\n\n        cashTargetPrice = getGMUOraclePrice();\n\n        require(bondPrice == targetPrice, 'Treasury: cash price moved');\n        require(\n            bondPrice < cashTargetPrice, // price < $1\n            'Treasury: cashPrice not eligible for bond purchase'\n        );\n\n        IBasisAsset(cash).burnFrom(msg.sender, amount);\n        IBasisAsset(bond).mint(msg.sender, amount.mul(1e18).div(bondPrice));\n        _updateCashPrice();\n\n        emit BoughtBonds(msg.sender, amount);\n    }\n\n    function redeemBonds(uint256 amount, uint256 targetPrice)\n        external\n        onlyOneBlock\n        checkMigration\n        checkStartTime\n        checkOperator\n    {\n        require(amount > 0, 'Treasury: cannot redeem bonds with zero amount');\n\n        uint256 cashPrice = _getCashPrice(bondOracle);\n        require(cashPrice == targetPrice, 'Treasury: cash price moved');\n        require(\n            cashPrice > cashPriceCeiling, // price > $1.05\n            'Treasury: cashPrice not eligible for bond purchase'\n        );\n        require(\n            IERC20(cash).balanceOf(address(this)) >= amount,\n            'Treasury: treasury has no more budget'\n        );\n\n        accumulatedSeigniorage = accumulatedSeigniorage.sub(\n            Math.min(accumulatedSeigniorage, amount)\n        );\n\n        uint256 stabilityFeeAmount = amount.mul(stabilityFee).div(100);\n        uint256 stabilityFeeValue =\n            stabilityFeeAmount.mul(getMAHAUSDOraclePrice());\n\n        uint256 alreadyAllowed =\n            IERC20(share).allowance(msg.sender, address(this));\n\n        IERC20(share).safeApprove(\n            address(this),\n            alreadyAllowed.add(stabilityFeeValue)\n        );\n\n        IERC20(share).safeTransferFrom(\n            msg.sender,\n            address(this),\n            stabilityFeeValue\n        );\n\n        IBasisAsset(bond).burnFrom(msg.sender, amount);\n        IERC20(cash).safeTransfer(msg.sender, amount);\n        _updateCashPrice();\n\n        emit RedeemedBonds(msg.sender, amount);\n    }\n\n    function allocateSeigniorage()\n        external\n        onlyOneBlock\n        checkMigration\n        checkStartTime\n        checkEpoch\n        checkOperator\n    {\n        _updateCashPrice();\n        uint256 cashPrice = _getCashPrice(seigniorageOracle);\n        if (cashPrice <= cashPriceCeiling) {\n            return; // just advance epoch instead revert\n        }\n\n        // circulating supply\n        uint256 cashSupply =\n            IERC20(cash).totalSupply().sub(accumulatedSeigniorage);\n\n        cashTargetPrice = getGMUOraclePrice();\n\n        uint256 percentage = cashPrice.sub(cashTargetPrice);\n        uint256 seigniorage = cashSupply.mul(percentage).div(1e18);\n        IBasisAsset(cash).mint(address(this), seigniorage);\n\n        // ======================== BIP-3\n        // send funds to the community development fund\n        uint256 fundReserve = seigniorage.mul(fundAllocationRate).div(100);\n        if (fundReserve > 0) {\n            IERC20(cash).safeApprove(developmentFund, fundReserve);\n            ISimpleERCFund(developmentFund).deposit(\n                cash,\n                fundReserve,\n                'Treasury: Seigniorage Allocation'\n            );\n            emit ContributionPoolFunded(now, fundReserve);\n        }\n\n        // send funds to the burnback fund\n        uint256 burnbackReserve = seigniorage.mul(fundAllocationRate).div(100);\n        if (burnbackReserve > 0) {\n            IERC20(cash).safeApprove(burnbackFund, burnbackReserve);\n            ISimpleERCFund(burnbackFund).deposit(\n                cash,\n                burnbackReserve,\n                'Treasury: Seigniorage Allocation'\n            );\n\n            // TODO: yash\n            emit BurnBackPoolFunded(now, burnbackReserve);\n        }\n\n        seigniorage = seigniorage.sub(fundReserve).sub(burnbackReserve);\n\n        // ======================== BIP-4\n        // keep funds for all bond token holders\n        uint256 treasuryReserve =\n            Math.min(\n                seigniorage,\n                IERC20(bond).totalSupply().sub(accumulatedSeigniorage)\n            );\n\n        if (treasuryReserve > 0) {\n            accumulatedSeigniorage = accumulatedSeigniorage.add(\n                treasuryReserve\n            );\n            emit TreasuryFunded(now, treasuryReserve);\n        }\n\n        // boardroom\n        uint256 boardroomReserve = seigniorage.sub(treasuryReserve);\n        if (boardroomReserve <= 0) return;\n\n        // Calculate boardroom reserves.\n        uint256 arthLiquidityBoardroomReserve =\n            boardroomReserve.mul(arthLiquidityBoardroomAllocationRate).div(100);\n        uint256 arthBoardroomReserve =\n            boardroomReserve.mul(arthBoardroomAllocationRate).div(100);\n\n        if (arthLiquidityBoardroomReserve > 0) {\n            IERC20(cash).safeApprove(\n                arthLiquidityBoardroom,\n                arthLiquidityBoardroomReserve\n            );\n            IBoardroom(arthLiquidityBoardroom).allocateSeigniorage(\n                arthLiquidityBoardroomReserve\n            );\n            emit BoardroomFunded(now, arthLiquidityBoardroomReserve);\n        }\n\n        if (arthBoardroomReserve > 0) {\n            IERC20(cash).safeApprove(arthBoardroom, arthBoardroomReserve);\n            IBoardroom(arthBoardroom).allocateSeigniorage(arthBoardroomReserve);\n            emit BoardroomFunded(now, arthBoardroomReserve);\n        }\n\n        // uint256 pendingReserve = boardroomReserve.sub(mahaBoardroomReserve).sub(arthBoardroomReserve);\n        // if (pendingReserve > 0) {\n        //     // send it to staking pool rewards\n        // }\n    }\n\n    // GOV\n    event Initialized(address indexed executor, uint256 at);\n    event Migration(address indexed target);\n    event ContributionPoolChanged(address indexed operator, address newFund);\n    event ContributionPoolRateChanged(\n        address indexed operator,\n        uint256 newRate\n    );\n    event BurnBackPoolChanged(address indexed operator, address newFund);\n    event BurnBackPoolRateChanged(address indexed operator, uint256 newRate);\n    event ArthBoardroomChanged(address indexed operator, address newFund);\n    event ArthBoardroomRateChanged(address indexed operator, uint256 newRate);\n    event ArthLiquidityBoardroomChanged(\n        address indexed operator,\n        address newFund\n    );\n    event ArthLiquidityBoardroomRateChanged(\n        address indexed operator,\n        uint256 newRate\n    );\n\n    // CORE\n    event RedeemedBonds(address indexed from, uint256 amount);\n    event BoughtBonds(address indexed from, uint256 amount);\n    event TreasuryFunded(uint256 timestamp, uint256 seigniorage);\n    event BoardroomFunded(uint256 timestamp, uint256 seigniorage);\n    event ContributionPoolFunded(uint256 timestamp, uint256 seigniorage);\n    event BurnBackPoolFunded(uint256 timestamp, uint256 seigniorage);\n}\n",
  "sourcePath": "/home/enamakel/Work/mahadao.com/arthcoin/smart-contracts/contracts/Treasury.sol",
  "compiler": {
    "name": "solc",
    "version": "0.6.12+commit.27d51765.Emscripten.clang"
  },
  "schemaVersion": "3.3.3",
  "updatedAt": "2021-01-07T08:14:40.422Z",
  "devdoc": {
    "author": "Summer Smith & Rick Sanchez",
    "kind": "dev",
    "methods": {
      "owner()": {
        "details": "Returns the address of the current owner."
      },
      "renounceOwnership()": {
        "details": "Leaves the contract without owner. It will not be possible to call `onlyOwner` functions anymore. Can only be called by the current owner. NOTE: Renouncing ownership will leave the contract without an owner, thereby removing any functionality that is only available to the owner."
      },
      "transferOwnership(address)": {
        "details": "Transfers ownership of the contract to a new account (`newOwner`). Can only be called by the current owner."
      }
    },
    "title": "Basis ARTH Treasury contract",
    "version": 1
  },
  "userdoc": {
    "kind": "user",
    "methods": {},
    "notice": "Monetary policy logic to adjust supplies of basis cash assets",
    "version": 1
  }
}