{
  "contractName": "Treasury",
  "abi": [
    {
      "inputs": [
        {
          "internalType": "address",
          "name": "_dai",
          "type": "address"
        },
        {
          "internalType": "address",
          "name": "_cash",
          "type": "address"
        },
        {
          "internalType": "address",
          "name": "_bond",
          "type": "address"
        },
        {
          "internalType": "address",
          "name": "_share",
          "type": "address"
        },
        {
          "internalType": "address",
          "name": "_bondOracle",
          "type": "address"
        },
        {
          "internalType": "address",
          "name": "_arthMahaOracle",
          "type": "address"
        },
        {
          "internalType": "address",
          "name": "_seigniorageOracle",
          "type": "address"
        },
        {
          "internalType": "address",
          "name": "_arthLiquidityBoardroom",
          "type": "address"
        },
        {
          "internalType": "address",
          "name": "_mahaLiquidityBoardroom",
          "type": "address"
        },
        {
          "internalType": "address",
          "name": "_arthBoardroom",
          "type": "address"
        },
        {
          "internalType": "address",
          "name": "_fund",
          "type": "address"
        },
        {
          "internalType": "address",
          "name": "_uniswapRouter",
          "type": "address"
        },
        {
          "internalType": "address",
          "name": "_gmuOracle",
          "type": "address"
        },
        {
          "internalType": "uint256",
          "name": "_startTime",
          "type": "uint256"
        },
        {
          "internalType": "uint256",
          "name": "_period",
          "type": "uint256"
        }
      ],
      "stateMutability": "nonpayable",
      "type": "constructor"
    },
    {
      "anonymous": false,
      "inputs": [
        {
          "indexed": false,
          "internalType": "address",
          "name": "newFund",
          "type": "address"
        },
        {
          "indexed": false,
          "internalType": "uint256",
          "name": "newRate",
          "type": "uint256"
        },
        {
          "indexed": false,
          "internalType": "string",
          "name": "label",
          "type": "string"
        }
      ],
      "name": "BoardroomChanged",
      "type": "event"
    },
    {
      "anonymous": false,
      "inputs": [
        {
          "indexed": false,
          "internalType": "uint256",
          "name": "newRate",
          "type": "uint256"
        }
      ],
      "name": "BondSeigniorageRateChanged",
      "type": "event"
    },
    {
      "anonymous": false,
      "inputs": [
        {
          "indexed": false,
          "internalType": "uint256",
          "name": "limit",
          "type": "uint256"
        }
      ],
      "name": "BondsAllocated",
      "type": "event"
    },
    {
      "anonymous": false,
      "inputs": [
        {
          "indexed": true,
          "internalType": "address",
          "name": "from",
          "type": "address"
        },
        {
          "indexed": false,
          "internalType": "uint256",
          "name": "amountDaiIn",
          "type": "uint256"
        },
        {
          "indexed": false,
          "internalType": "uint256",
          "name": "amountBurnt",
          "type": "uint256"
        },
        {
          "indexed": false,
          "internalType": "uint256",
          "name": "bondsIssued",
          "type": "uint256"
        }
      ],
      "name": "BoughtBonds",
      "type": "event"
    },
    {
      "anonymous": false,
      "inputs": [
        {
          "indexed": false,
          "internalType": "address",
          "name": "newFund",
          "type": "address"
        },
        {
          "indexed": false,
          "internalType": "uint256",
          "name": "newRate",
          "type": "uint256"
        }
      ],
      "name": "EcosystemFundChanged",
      "type": "event"
    },
    {
      "anonymous": false,
      "inputs": [
        {
          "indexed": true,
          "internalType": "address",
          "name": "executor",
          "type": "address"
        },
        {
          "indexed": false,
          "internalType": "uint256",
          "name": "at",
          "type": "uint256"
        }
      ],
      "name": "Initialized",
      "type": "event"
    },
    {
      "anonymous": false,
      "inputs": [
        {
          "indexed": false,
          "internalType": "uint256",
          "name": "data",
          "type": "uint256"
        }
      ],
      "name": "Log",
      "type": "event"
    },
    {
      "anonymous": false,
      "inputs": [
        {
          "indexed": true,
          "internalType": "address",
          "name": "target",
          "type": "address"
        }
      ],
      "name": "Migration",
      "type": "event"
    },
    {
      "anonymous": false,
      "inputs": [
        {
          "indexed": true,
          "internalType": "address",
          "name": "previousOperator",
          "type": "address"
        },
        {
          "indexed": true,
          "internalType": "address",
          "name": "newOperator",
          "type": "address"
        }
      ],
      "name": "OperatorTransferred",
      "type": "event"
    },
    {
      "anonymous": false,
      "inputs": [
        {
          "indexed": true,
          "internalType": "address",
          "name": "operator",
          "type": "address"
        },
        {
          "indexed": false,
          "internalType": "address",
          "name": "oldOracle",
          "type": "address"
        },
        {
          "indexed": false,
          "internalType": "address",
          "name": "newOracle",
          "type": "address"
        },
        {
          "indexed": false,
          "internalType": "string",
          "name": "label",
          "type": "string"
        }
      ],
      "name": "OracleChanged",
      "type": "event"
    },
    {
      "anonymous": false,
      "inputs": [
        {
          "indexed": true,
          "internalType": "address",
          "name": "previousOwner",
          "type": "address"
        },
        {
          "indexed": true,
          "internalType": "address",
          "name": "newOwner",
          "type": "address"
        }
      ],
      "name": "OwnershipTransferred",
      "type": "event"
    },
    {
      "anonymous": false,
      "inputs": [
        {
          "indexed": true,
          "internalType": "address",
          "name": "pool",
          "type": "address"
        },
        {
          "indexed": false,
          "internalType": "uint256",
          "name": "seigniorage",
          "type": "uint256"
        },
        {
          "indexed": false,
          "internalType": "string",
          "name": "label",
          "type": "string"
        }
      ],
      "name": "PoolFunded",
      "type": "event"
    },
    {
      "anonymous": false,
      "inputs": [
        {
          "indexed": true,
          "internalType": "address",
          "name": "from",
          "type": "address"
        },
        {
          "indexed": false,
          "internalType": "uint256",
          "name": "amount",
          "type": "uint256"
        },
        {
          "indexed": false,
          "internalType": "bool",
          "name": "sellForDai",
          "type": "bool"
        }
      ],
      "name": "RedeemedBonds",
      "type": "event"
    },
    {
      "anonymous": false,
      "inputs": [
        {
          "indexed": false,
          "internalType": "uint256",
          "name": "seigniorage",
          "type": "uint256"
        }
      ],
      "name": "SeigniorageMinted",
      "type": "event"
    },
    {
      "anonymous": false,
      "inputs": [
        {
          "indexed": false,
          "internalType": "uint256",
          "name": "old",
          "type": "uint256"
        },
        {
          "indexed": false,
          "internalType": "uint256",
          "name": "newRate",
          "type": "uint256"
        }
      ],
      "name": "StabilityFeeChanged",
      "type": "event"
    },
    {
      "anonymous": false,
      "inputs": [
        {
          "indexed": true,
          "internalType": "address",
          "name": "from",
          "type": "address"
        },
        {
          "indexed": false,
          "internalType": "uint256",
          "name": "stabilityFeeValue",
          "type": "uint256"
        }
      ],
      "name": "StabilityFeesCharged",
      "type": "event"
    },
    {
      "anonymous": false,
      "inputs": [
        {
          "indexed": false,
          "internalType": "uint256",
          "name": "timestamp",
          "type": "uint256"
        },
        {
          "indexed": false,
          "internalType": "uint256",
          "name": "seigniorage",
          "type": "uint256"
        }
      ],
      "name": "TreasuryFunded",
      "type": "event"
    },
    {
      "inputs": [],
      "name": "accumulatedBonds",
      "outputs": [
        {
          "internalType": "uint256",
          "name": "",
          "type": "uint256"
        }
      ],
      "stateMutability": "view",
      "type": "function",
      "constant": true
    },
    {
      "inputs": [],
      "name": "accumulatedSeigniorage",
      "outputs": [
        {
          "internalType": "uint256",
          "name": "",
          "type": "uint256"
        }
      ],
      "stateMutability": "view",
      "type": "function",
      "constant": true
    },
    {
      "inputs": [],
      "name": "arthBoardroom",
      "outputs": [
        {
          "internalType": "address",
          "name": "",
          "type": "address"
        }
      ],
      "stateMutability": "view",
      "type": "function",
      "constant": true
    },
    {
      "inputs": [],
      "name": "arthBoardroomAllocationRate",
      "outputs": [
        {
          "internalType": "uint256",
          "name": "",
          "type": "uint256"
        }
      ],
      "stateMutability": "view",
      "type": "function",
      "constant": true
    },
    {
      "inputs": [],
      "name": "arthCirculatingSupply",
      "outputs": [
        {
          "internalType": "uint256",
          "name": "",
          "type": "uint256"
        }
      ],
      "stateMutability": "view",
      "type": "function",
      "constant": true
    },
    {
      "inputs": [],
      "name": "arthLiquidityBoardroom",
      "outputs": [
        {
          "internalType": "address",
          "name": "",
          "type": "address"
        }
      ],
      "stateMutability": "view",
      "type": "function",
      "constant": true
    },
    {
      "inputs": [],
      "name": "arthLiquidityBoardroomAllocationRate",
      "outputs": [
        {
          "internalType": "uint256",
          "name": "",
          "type": "uint256"
        }
      ],
      "stateMutability": "view",
      "type": "function",
      "constant": true
    },
    {
      "inputs": [],
      "name": "arthMahaOracle",
      "outputs": [
        {
          "internalType": "address",
          "name": "",
          "type": "address"
        }
      ],
      "stateMutability": "view",
      "type": "function",
      "constant": true
    },
    {
      "inputs": [],
      "name": "bond",
      "outputs": [
        {
          "internalType": "address",
          "name": "",
          "type": "address"
        }
      ],
      "stateMutability": "view",
      "type": "function",
      "constant": true
    },
    {
      "inputs": [],
      "name": "bondDiscount",
      "outputs": [
        {
          "internalType": "uint256",
          "name": "",
          "type": "uint256"
        }
      ],
      "stateMutability": "view",
      "type": "function",
      "constant": true
    },
    {
      "inputs": [],
      "name": "bondOracle",
      "outputs": [
        {
          "internalType": "address",
          "name": "",
          "type": "address"
        }
      ],
      "stateMutability": "view",
      "type": "function",
      "constant": true
    },
    {
      "inputs": [],
      "name": "bondSeigniorageRate",
      "outputs": [
        {
          "internalType": "uint256",
          "name": "",
          "type": "uint256"
        }
      ],
      "stateMutability": "view",
      "type": "function",
      "constant": true
    },
    {
      "inputs": [],
      "name": "callable",
      "outputs": [
        {
          "internalType": "bool",
          "name": "",
          "type": "bool"
        }
      ],
      "stateMutability": "view",
      "type": "function",
      "constant": true
    },
    {
      "inputs": [],
      "name": "cash",
      "outputs": [
        {
          "internalType": "address",
          "name": "",
          "type": "address"
        }
      ],
      "stateMutability": "view",
      "type": "function",
      "constant": true
    },
    {
      "inputs": [],
      "name": "cashTargetPrice",
      "outputs": [
        {
          "internalType": "uint256",
          "name": "",
          "type": "uint256"
        }
      ],
      "stateMutability": "view",
      "type": "function",
      "constant": true
    },
    {
      "inputs": [],
      "name": "cashToBondConversionLimit",
      "outputs": [
        {
          "internalType": "uint256",
          "name": "",
          "type": "uint256"
        }
      ],
      "stateMutability": "view",
      "type": "function",
      "constant": true
    },
    {
      "inputs": [],
      "name": "considerUniswapLiquidity",
      "outputs": [
        {
          "internalType": "bool",
          "name": "",
          "type": "bool"
        }
      ],
      "stateMutability": "view",
      "type": "function",
      "constant": true
    },
    {
      "inputs": [],
      "name": "dai",
      "outputs": [
        {
          "internalType": "address",
          "name": "",
          "type": "address"
        }
      ],
      "stateMutability": "view",
      "type": "function",
      "constant": true
    },
    {
      "inputs": [],
      "name": "ecosystemFund",
      "outputs": [
        {
          "internalType": "address",
          "name": "",
          "type": "address"
        }
      ],
      "stateMutability": "view",
      "type": "function",
      "constant": true
    },
    {
      "inputs": [],
      "name": "ecosystemFundAllocationRate",
      "outputs": [
        {
          "internalType": "uint256",
          "name": "",
          "type": "uint256"
        }
      ],
      "stateMutability": "view",
      "type": "function",
      "constant": true
    },
    {
      "inputs": [
        {
          "internalType": "uint256",
          "name": "price",
          "type": "uint256"
        }
      ],
      "name": "estimatePercentageOfBondsToIssue",
      "outputs": [
        {
          "internalType": "uint256",
          "name": "",
          "type": "uint256"
        }
      ],
      "stateMutability": "view",
      "type": "function",
      "constant": true
    },
    {
      "inputs": [
        {
          "internalType": "uint256",
          "name": "price",
          "type": "uint256"
        }
      ],
      "name": "estimateSeignorageToMint",
      "outputs": [
        {
          "internalType": "uint256",
          "name": "",
          "type": "uint256"
        }
      ],
      "stateMutability": "view",
      "type": "function",
      "constant": true
    },
    {
      "inputs": [],
      "name": "get1hourEpoch",
      "outputs": [
        {
          "internalType": "uint256",
          "name": "",
          "type": "uint256"
        }
      ],
      "stateMutability": "view",
      "type": "function",
      "constant": true
    },
    {
      "inputs": [],
      "name": "getArthMahaOraclePrice",
      "outputs": [
        {
          "internalType": "uint256",
          "name": "",
          "type": "uint256"
        }
      ],
      "stateMutability": "view",
      "type": "function",
      "constant": true
    },
    {
      "inputs": [],
      "name": "getBondOraclePrice",
      "outputs": [
        {
          "internalType": "uint256",
          "name": "",
          "type": "uint256"
        }
      ],
      "stateMutability": "view",
      "type": "function",
      "constant": true
    },
    {
      "inputs": [],
      "name": "getBondPurchasePrice",
      "outputs": [
        {
          "internalType": "uint256",
          "name": "",
          "type": "uint256"
        }
      ],
      "stateMutability": "view",
      "type": "function",
      "constant": true
    },
    {
      "inputs": [],
      "name": "getBondRedemtionPrice",
      "outputs": [
        {
          "internalType": "uint256",
          "name": "",
          "type": "uint256"
        }
      ],
      "stateMutability": "view",
      "type": "function",
      "constant": true
    },
    {
      "inputs": [],
      "name": "getCashSupplyInLiquidity",
      "outputs": [
        {
          "internalType": "uint256",
          "name": "",
          "type": "uint256"
        }
      ],
      "stateMutability": "view",
      "type": "function",
      "constant": true
    },
    {
      "inputs": [],
      "name": "getCurrentEpoch",
      "outputs": [
        {
          "internalType": "uint256",
          "name": "",
          "type": "uint256"
        }
      ],
      "stateMutability": "view",
      "type": "function",
      "constant": true
    },
    {
      "inputs": [],
      "name": "getExpansionLimitPrice",
      "outputs": [
        {
          "internalType": "uint256",
          "name": "",
          "type": "uint256"
        }
      ],
      "stateMutability": "view",
      "type": "function",
      "constant": true
    },
    {
      "inputs": [],
      "name": "getGMUOraclePrice",
      "outputs": [
        {
          "internalType": "uint256",
          "name": "",
          "type": "uint256"
        }
      ],
      "stateMutability": "view",
      "type": "function",
      "constant": true
    },
    {
      "inputs": [],
      "name": "getLastEpoch",
      "outputs": [
        {
          "internalType": "uint256",
          "name": "",
          "type": "uint256"
        }
      ],
      "stateMutability": "view",
      "type": "function",
      "constant": true
    },
    {
      "inputs": [],
      "name": "getNextEpoch",
      "outputs": [
        {
          "internalType": "uint256",
          "name": "",
          "type": "uint256"
        }
      ],
      "stateMutability": "view",
      "type": "function",
      "constant": true
    },
    {
      "inputs": [
        {
          "internalType": "uint256",
          "name": "price",
          "type": "uint256"
        },
        {
          "internalType": "uint256",
          "name": "targetPrice",
          "type": "uint256"
        }
      ],
      "name": "getPercentDeviationFromTarget",
      "outputs": [
        {
          "internalType": "uint256",
          "name": "",
          "type": "uint256"
        }
      ],
      "stateMutability": "pure",
      "type": "function",
      "constant": true
    },
    {
      "inputs": [],
      "name": "getPeriod",
      "outputs": [
        {
          "internalType": "uint256",
          "name": "",
          "type": "uint256"
        }
      ],
      "stateMutability": "view",
      "type": "function",
      "constant": true
    },
    {
      "inputs": [],
      "name": "getReserve",
      "outputs": [
        {
          "internalType": "uint256",
          "name": "",
          "type": "uint256"
        }
      ],
      "stateMutability": "view",
      "type": "function",
      "constant": true
    },
    {
      "inputs": [],
      "name": "getSeigniorageOraclePrice",
      "outputs": [
        {
          "internalType": "uint256",
          "name": "",
          "type": "uint256"
        }
      ],
      "stateMutability": "view",
      "type": "function",
      "constant": true
    },
    {
      "inputs": [],
      "name": "getStabilityFee",
      "outputs": [
        {
          "internalType": "uint256",
          "name": "",
          "type": "uint256"
        }
      ],
      "stateMutability": "view",
      "type": "function",
      "constant": true
    },
    {
      "inputs": [],
      "name": "getStartTime",
      "outputs": [
        {
          "internalType": "uint256",
          "name": "",
          "type": "uint256"
        }
      ],
      "stateMutability": "view",
      "type": "function",
      "constant": true
    },
    {
      "inputs": [],
      "name": "gmuOracle",
      "outputs": [
        {
          "internalType": "address",
          "name": "",
          "type": "address"
        }
      ],
      "stateMutability": "view",
      "type": "function",
      "constant": true
    },
    {
      "inputs": [],
      "name": "initialized",
      "outputs": [
        {
          "internalType": "bool",
          "name": "",
          "type": "bool"
        }
      ],
      "stateMutability": "view",
      "type": "function",
      "constant": true
    },
    {
      "inputs": [],
      "name": "isOperator",
      "outputs": [
        {
          "internalType": "bool",
          "name": "",
          "type": "bool"
        }
      ],
      "stateMutability": "view",
      "type": "function",
      "constant": true
    },
    {
      "inputs": [],
      "name": "mahaLiquidityBoardroom",
      "outputs": [
        {
          "internalType": "address",
          "name": "",
          "type": "address"
        }
      ],
      "stateMutability": "view",
      "type": "function",
      "constant": true
    },
    {
      "inputs": [],
      "name": "mahaLiquidityBoardroomAllocationRate",
      "outputs": [
        {
          "internalType": "uint256",
          "name": "",
          "type": "uint256"
        }
      ],
      "stateMutability": "view",
      "type": "function",
      "constant": true
    },
    {
      "inputs": [],
      "name": "maxDebtIncreasePerEpoch",
      "outputs": [
        {
          "internalType": "uint256",
          "name": "",
          "type": "uint256"
        }
      ],
      "stateMutability": "view",
      "type": "function",
      "constant": true
    },
    {
      "inputs": [],
      "name": "maxSupplyIncreasePerEpoch",
      "outputs": [
        {
          "internalType": "uint256",
          "name": "",
          "type": "uint256"
        }
      ],
      "stateMutability": "view",
      "type": "function",
      "constant": true
    },
    {
      "inputs": [],
      "name": "migrated",
      "outputs": [
        {
          "internalType": "bool",
          "name": "",
          "type": "bool"
        }
      ],
      "stateMutability": "view",
      "type": "function",
      "constant": true
    },
    {
      "inputs": [],
      "name": "nextEpochPoint",
      "outputs": [
        {
          "internalType": "uint256",
          "name": "",
          "type": "uint256"
        }
      ],
      "stateMutability": "view",
      "type": "function",
      "constant": true
    },
    {
      "inputs": [],
      "name": "operator",
      "outputs": [
        {
          "internalType": "address",
          "name": "",
          "type": "address"
        }
      ],
      "stateMutability": "view",
      "type": "function",
      "constant": true
    },
    {
      "inputs": [],
      "name": "owner",
      "outputs": [
        {
          "internalType": "address",
          "name": "",
          "type": "address"
        }
      ],
      "stateMutability": "view",
      "type": "function",
      "constant": true
    },
    {
      "inputs": [],
      "name": "renounceOwnership",
      "outputs": [],
      "stateMutability": "nonpayable",
      "type": "function"
    },
    {
      "inputs": [],
      "name": "safetyRegion",
      "outputs": [
        {
          "internalType": "uint256",
          "name": "",
          "type": "uint256"
        }
      ],
      "stateMutability": "view",
      "type": "function",
      "constant": true
    },
    {
      "inputs": [],
      "name": "seigniorageOracle",
      "outputs": [
        {
          "internalType": "address",
          "name": "",
          "type": "address"
        }
      ],
      "stateMutability": "view",
      "type": "function",
      "constant": true
    },
    {
      "inputs": [
        {
          "internalType": "address",
          "name": "newFund",
          "type": "address"
        },
        {
          "internalType": "uint256",
          "name": "rate",
          "type": "uint256"
        }
      ],
      "name": "setArthBoardroom",
      "outputs": [],
      "stateMutability": "nonpayable",
      "type": "function"
    },
    {
      "inputs": [
        {
          "internalType": "address",
          "name": "newFund",
          "type": "address"
        },
        {
          "internalType": "uint256",
          "name": "rate",
          "type": "uint256"
        }
      ],
      "name": "setArthLiquidityBoardroom",
      "outputs": [],
      "stateMutability": "nonpayable",
      "type": "function"
    },
    {
      "inputs": [
        {
          "internalType": "address",
          "name": "newOracle",
          "type": "address"
        }
      ],
      "name": "setArthMahaOracle",
      "outputs": [],
      "stateMutability": "nonpayable",
      "type": "function"
    },
    {
      "inputs": [
        {
          "internalType": "uint256",
          "name": "rate",
          "type": "uint256"
        }
      ],
      "name": "setBondDiscount",
      "outputs": [
        {
          "internalType": "uint256",
          "name": "",
          "type": "uint256"
        }
      ],
      "stateMutability": "nonpayable",
      "type": "function"
    },
    {
      "inputs": [
        {
          "internalType": "address",
          "name": "newOracle",
          "type": "address"
        }
      ],
      "name": "setBondOracle",
      "outputs": [],
      "stateMutability": "nonpayable",
      "type": "function"
    },
    {
      "inputs": [
        {
          "internalType": "uint256",
          "name": "rate",
          "type": "uint256"
        }
      ],
      "name": "setBondSeigniorageRate",
      "outputs": [],
      "stateMutability": "nonpayable",
      "type": "function"
    },
    {
      "inputs": [
        {
          "internalType": "address",
          "name": "newFund",
          "type": "address"
        },
        {
          "internalType": "uint256",
          "name": "rate",
          "type": "uint256"
        }
      ],
      "name": "setFund",
      "outputs": [],
      "stateMutability": "nonpayable",
      "type": "function"
    },
    {
      "inputs": [
        {
          "internalType": "address",
          "name": "newOracle",
          "type": "address"
        }
      ],
      "name": "setGMUOracle",
      "outputs": [],
      "stateMutability": "nonpayable",
      "type": "function"
    },
    {
      "inputs": [
        {
          "internalType": "address",
          "name": "newFund",
          "type": "address"
        },
        {
          "internalType": "uint256",
          "name": "rate",
          "type": "uint256"
        }
      ],
      "name": "setMahaLiquidityBoardroom",
      "outputs": [],
      "stateMutability": "nonpayable",
      "type": "function"
    },
    {
      "inputs": [
        {
          "internalType": "uint256",
          "name": "_period",
          "type": "uint256"
        }
      ],
      "name": "setPeriod",
      "outputs": [],
      "stateMutability": "nonpayable",
      "type": "function"
    },
    {
      "inputs": [
        {
          "internalType": "uint256",
          "name": "rate",
          "type": "uint256"
        }
      ],
      "name": "setSafetyRegion",
      "outputs": [
        {
          "internalType": "uint256",
          "name": "",
          "type": "uint256"
        }
      ],
      "stateMutability": "nonpayable",
      "type": "function"
    },
    {
      "inputs": [
        {
          "internalType": "address",
          "name": "newOracle",
          "type": "address"
        }
      ],
      "name": "setSeigniorageOracle",
      "outputs": [],
      "stateMutability": "nonpayable",
      "type": "function"
    },
    {
      "inputs": [
        {
          "internalType": "uint256",
          "name": "_stabilityFee",
          "type": "uint256"
        }
      ],
      "name": "setStabilityFee",
      "outputs": [],
      "stateMutability": "nonpayable",
      "type": "function"
    },
    {
      "inputs": [],
      "name": "share",
      "outputs": [
        {
          "internalType": "address",
          "name": "",
          "type": "address"
        }
      ],
      "stateMutability": "view",
      "type": "function",
      "constant": true
    },
    {
      "inputs": [],
      "name": "stabilityFee",
      "outputs": [
        {
          "internalType": "uint256",
          "name": "",
          "type": "uint256"
        }
      ],
      "stateMutability": "view",
      "type": "function",
      "constant": true
    },
    {
      "inputs": [
        {
          "internalType": "address",
          "name": "newOperator_",
          "type": "address"
        }
      ],
      "name": "transferOperator",
      "outputs": [],
      "stateMutability": "nonpayable",
      "type": "function"
    },
    {
      "inputs": [
        {
          "internalType": "address",
          "name": "newOwner",
          "type": "address"
        }
      ],
      "name": "transferOwnership",
      "outputs": [],
      "stateMutability": "nonpayable",
      "type": "function"
    },
    {
      "inputs": [],
      "name": "uniswapRouter",
      "outputs": [
        {
          "internalType": "address",
          "name": "",
          "type": "address"
        }
      ],
      "stateMutability": "view",
      "type": "function",
      "constant": true
    },
    {
      "inputs": [],
      "name": "initialize",
      "outputs": [],
      "stateMutability": "nonpayable",
      "type": "function"
    },
    {
      "inputs": [
        {
          "internalType": "address",
          "name": "target",
          "type": "address"
        }
      ],
      "name": "migrate",
      "outputs": [],
      "stateMutability": "nonpayable",
      "type": "function"
    },
    {
      "inputs": [
        {
          "internalType": "uint256",
          "name": "amountInDai",
          "type": "uint256"
        },
        {
          "internalType": "uint256",
          "name": "targetPrice",
          "type": "uint256"
        }
      ],
      "name": "buyBonds",
      "outputs": [
        {
          "internalType": "uint256",
          "name": "",
          "type": "uint256"
        }
      ],
      "stateMutability": "nonpayable",
      "type": "function"
    },
    {
      "inputs": [
        {
          "internalType": "uint256",
          "name": "amount",
          "type": "uint256"
        },
        {
          "internalType": "bool",
          "name": "sellForDai",
          "type": "bool"
        }
      ],
      "name": "redeemBonds",
      "outputs": [],
      "stateMutability": "nonpayable",
      "type": "function"
    },
    {
      "inputs": [],
      "name": "allocateSeigniorage",
      "outputs": [],
      "stateMutability": "nonpayable",
      "type": "function"
    }
  ],
  "bytecode": "0x6080604052600160038190556006805461ffff19169055670de0b6b3a76400006013556000601481815560158290556016919091556017805460ff19169055600560188190556019829055601a55600f601b556002601c55605a601d556046601e55601f55600a6020556021553480156200007957600080fd5b50604051620065033803806200650383398181016040526101e0811015620000a057600080fd5b508051602082015160408301516060840151608085015160a086015160c087015160e08801516101008901516101208a01516101408b01516101608c01516101808d01516101a08e01516101c0909e01519c9d9b9c9a9b999a9899979896979596949593949293919290919080826000806200011b62000415565b600180546001600160a01b0319166001600160a01b038316908117909155604051919250906000907f8be0079c531659141344cd1fd0a4f28419497f9722a3daafe3b4186f6b6457e0908290a3506200017362000415565b600280546001600160a01b0319166001600160a01b0392831617908190556040519116906000907f74da04524d50c64947f5dd5381ef1a4dca5cba8ed1d816243f9e48aa0b5617ed908290a360038390556004829055620001fc620001e5828562000419602090811b62004c7117901c565b6004546200048060201b62004cca1790919060201c565b6005819055505050508e600660026101000a8154816001600160a01b0302191690836001600160a01b031602179055508d600760006101000a8154816001600160a01b0302191690836001600160a01b031602179055508c600860006101000a8154816001600160a01b0302191690836001600160a01b031602179055508b600960006101000a8154816001600160a01b0302191690836001600160a01b031602179055508a600f60006101000a8154816001600160a01b0302191690836001600160a01b0316021790555089601260006101000a8154816001600160a01b0302191690836001600160a01b0316021790555088601060006101000a8154816001600160a01b0302191690836001600160a01b0316021790555082601160006101000a8154816001600160a01b0302191690836001600160a01b0316021790555087600b60006101000a8154816001600160a01b0302191690836001600160a01b0316021790555085600c60006101000a8154816001600160a01b0302191690836001600160a01b0316021790555086600d60006101000a8154816001600160a01b0302191690836001600160a01b0316021790555084600e60006101000a8154816001600160a01b0302191690836001600160a01b0316021790555083600a60006101000a8154816001600160a01b0302191690836001600160a01b03160217905550505050505050505050505050505050620004db565b3390565b6000826200042a575060006200047a565b828202828482816200043857fe5b0414620004775760405162461bcd60e51b8152600401808060200182810382526021815260200180620064e26021913960400191505060405180910390fd5b90505b92915050565b60008282018381101562000477576040805162461bcd60e51b815260206004820152601b60248201527f536166654d6174683a206164646974696f6e206f766572666c6f770000000000604482015290519081900360640190fd5b615ff780620004eb6000396000f3fe608060405234801561001057600080fd5b50600436106105145760003560e01c8063729d7ad0116102a1578063b9042a181161016b578063ce5494bb116100e3578063f40fda1d11610097578063f539a2cb1161007c578063f539a2cb146109d8578063f9caa583146109e0578063fb4ca35b146109e857610514565b8063f40fda1d146109a4578063f4b9fa75146109d057610514565b8063ecddf973116100c8578063ecddf9731461096e578063efe97d0514610976578063f2fde38b1461097e57610514565b8063ce5494bb14610922578063e06e9c651461094857610514565b8063c4020ca21161013a578063c5e5549d1161011f578063c5e5549d146108f5578063c828371e14610912578063ccc561b51461091a57610514565b8063c4020ca2146108c7578063c5967c26146108ed57610514565b8063b9042a1814610892578063b97dd9e2146108af578063bfe1ec91146108b7578063c1a29772146108bf57610514565b8063961be39111610219578063a6a122a4116101cd578063a8d5fd65116101b2578063a8d5fd651461087a578063a9d1e8d314610882578063b8e2cf8e1461088a57610514565b8063a6a122a41461086a578063a7d189631461087257610514565b80639da3fe2e116101fe5780639da3fe2e14610837578063a440e1c11461083f578063a48fd5ab1461086257610514565b8063961be391146108275780639d42f96f1461082f57610514565b80638129fc1c116102705780638d744cab116102555780638d744cab146107fa5780638da5cb5b1461080257806394e72cb71461080a57610514565b80638129fc1c146107ea5780638d0a0383146107f257610514565b8063729d7ad0146107a6578063735de9f7146107ae5780637ea2cdea146107b65780637f804a20146107be57610514565b8063398bac63116103e2578063558d07bc1161035a578063635408931161030e5780636a2ab602116102f35780636a2ab6021461078e5780636d19921d14610796578063715018a61461079e57610514565b8063635408931461077e57806364c9ec6f1461078657610514565b8063570ca7351161033f578063570ca7351461076657806359bf5d391461076e5780635b7561791461077657610514565b8063558d07bc14610756578063567c824f1461075e57610514565b80634bf3e02d116103b157806350a123871161039657806350a12387146106e757806351bae2ab1461070d57806354f04a111461073357610514565b80634bf3e02d146106ba5780634fecf145146106df57610514565b8063398bac631461069a5780633d3f6c2b146106a25780633d6c9057146106aa5780634456eda2146106b257610514565b806327aef822116104905780632d0dcca1116104445780633330642011610429578063333064201461066d578063357c8acd14610675578063361416e11461069257610514565b80632d0dcca11461063957806330770ada1461064157610514565b806329605e771161047557806329605e77146106035780632c678c64146106295780632d0a2f831461063157610514565b806327aef822146105f357806328334908146105fb57610514565b8063158ef93e116104e75780631d0cf683116104cc5780631d0cf683146105b75780631ed24195146105bf5780631ffc853b146105c757610514565b8063158ef93e1461057e5780631a6f12921461059a57610514565b80630266fdb4146105195780630f3a9f65146105335780631039825a14610552578063132eeaa71461055a575b600080fd5b610521610a05565b60408051918252519081900360200190f35b6105506004803603602081101561054957600080fd5b5035610a7c565b005b610521610aca565b610562610ad0565b604080516001600160a01b039092168252519081900360200190f35b610586610adf565b604080519115158252519081900360200190f35b610521600480360360208110156105b057600080fd5b5035610aed565b610562610bb8565b610521610bc7565b610550600480360360408110156105dd57600080fd5b506001600160a01b038135169060200135610bcd565b610521610d16565b610521610d1c565b6105506004803603602081101561061957600080fd5b50356001600160a01b0316610d22565b610586610d98565b610521610da1565b610521610da7565b6105506004803603604081101561065757600080fd5b506001600160a01b038135169060200135610dad565b610521610ede565b6105216004803603602081101561068b57600080fd5b5035610ee4565b610521610faf565b610521610fb5565b610521610fdf565b610521611024565b61058661102a565b610550600480360360408110156106d057600080fd5b50803590602001351515611050565b610521611b8a565b610550600480360360208110156106fd57600080fd5b50356001600160a01b0316611b90565b6105506004803603602081101561072357600080fd5b50356001600160a01b0316611c97565b6105216004803603604081101561074957600080fd5b5080359060200135611d9e565b610562612903565b610521612912565b61056261293b565b61052161294a565b610550612950565b6105626131c4565b6105626131d3565b6105866131e2565b6105626131fb565b61055061320a565b6105216132be565b6105626132c4565b6105626132d3565b610550600480360360408110156107d457600080fd5b506001600160a01b0381351690602001356132e2565b6105506133f8565b6105216137e9565b6105216137ef565b6105626137f5565b6105216004803603602081101561082057600080fd5b5035613804565b61056261382a565b610562613839565b610562613848565b6105216004803603604081101561085557600080fd5b5080359060200135613857565b61052161387f565b61058661389f565b6105216138a8565b6105626138ae565b6105216138bd565b6105216138c3565b610521600480360360208110156108a857600080fd5b50356138db565b610521613937565b610521613957565b6105216139b5565b610550600480360360208110156108dd57600080fd5b50356001600160a01b03166139cd565b610521613ad0565b6105506004803603602081101561090b57600080fd5b5035613aec565b610521613bdd565b610521613be3565b6105506004803603602081101561093857600080fd5b50356001600160a01b0316613e4d565b6105506004803603602081101561095e57600080fd5b50356001600160a01b031661471b565b61052161481e565b610521614874565b6105506004803603602081101561099457600080fd5b50356001600160a01b03166148a4565b610550600480360360408110156109ba57600080fd5b506001600160a01b0381351690602001356149af565b610562614af9565b610521614b0e565b610521614b14565b610550600480360360208110156109fe57600080fd5b5035614b1a565b60115460408051634c6afee560e11b815290516000926001600160a01b0316916398d5fdca916004808301926020929190829003018186803b158015610a4a57600080fd5b505afa158015610a5e573d6000803e3d6000fd5b505050506040513d6020811015610a7457600080fd5b505190505b90565b6002546001600160a01b03163314610ac55760405162461bcd60e51b8152600401808060200182810382526024815260200180615f186024913960400191505060405180910390fd5b600355565b60135481565b6010546001600160a01b031681565b600654610100900460ff1681565b6000610af7614d24565b6001546001600160a01b03908116911614610b59576040805162461bcd60e51b815260206004820181905260248201527f4f776e61626c653a2063616c6c6572206973206e6f7420746865206f776e6572604482015290519081900360640190fd5b6064821115610baf576040805162461bcd60e51b815260206004820152601d60248201527f54726561737572793a20726174652073686f756c64206265203e3d2030000000604482015290519081900360640190fd5b601a9190915590565b600e546001600160a01b031681565b60035490565b610bd5614d24565b6001546001600160a01b03908116911614610c37576040805162461bcd60e51b815260206004820181905260248201527f4f776e61626c653a2063616c6c6572206973206e6f7420746865206f776e6572604482015290519081900360640190fd5b60648110610c82576040805162461bcd60e51b8152602060048201526013602482015272054726561737572793a2072617465203e3d203606c1b604482015290519081900360640190fd5b600d80546001600160a01b0384166001600160a01b03199091168117825560208381556040805192835290820184905260608282018190528201929092527f6d6168614c697175696469747900000000000000000000000000000000000000608082015290517f1e735343686b5fc702ca1096085a657587a4c9f7b4d41dc028e97b53b67a42889181900360a00190a15050565b60165481565b601f5481565b610d2a614d24565b6001546001600160a01b03908116911614610d8c576040805162461bcd60e51b815260206004820181905260248201527f4f776e61626c653a2063616c6c6572206973206e6f7420746865206f776e6572604482015290519081900360640190fd5b610d9581614d28565b50565b60065460ff1681565b60135490565b601a5481565b610db5614d24565b6001546001600160a01b03908116911614610e17576040805162461bcd60e51b815260206004820181905260248201527f4f776e61626c653a2063616c6c6572206973206e6f7420746865206f776e6572604482015290519081900360640190fd5b60648110610e62576040805162461bcd60e51b8152602060048201526013602482015272054726561737572793a2072617465203e3d203606c1b604482015290519081900360640190fd5b600c80546001600160a01b0384166001600160a01b03199091168117909155601f82905560408051918252602082018390526060828201819052600490830152630c2e4e8d60e31b6080830152517f1e735343686b5fc702ca1096085a657587a4c9f7b4d41dc028e97b53b67a42889181900360a00190a15050565b601e5481565b6000610eee614d24565b6001546001600160a01b03908116911614610f50576040805162461bcd60e51b815260206004820181905260248201527f4f776e61626c653a2063616c6c6572206973206e6f7420746865206f776e6572604482015290519081900360640190fd5b6064821115610fa6576040805162461bcd60e51b815260206004820152601d60248201527f54726561737572793a20726174652073686f756c64206265203e3d2030000000604482015290519081900360640190fd5b60199190915590565b60215481565b6000610fda600354610fd4600454600554614dc590919063ffffffff16565b90614e07565b905090565b60125460408051634c6afee560e11b815290516000926001600160a01b0316916398d5fdca916004808301926020929190829003018186803b158015610a4a57600080fd5b60215490565b6002546000906001600160a01b0316611041614d24565b6001600160a01b031614905090565b611058614e49565b156110945760405162461bcd60e51b8152600401808060200182810382526026815260200180615f666026913960400191505060405180910390fd5b61109c614e68565b156110d85760405162461bcd60e51b8152600401808060200182810382526026815260200180615f666026913960400191505060405180910390fd5b60065460ff1615611130576040805162461bcd60e51b815260206004820152601260248201527f54726561737572793a206d696772617465640000000000000000000000000000604482015290519081900360640190fd5b600454421015611187576040805162461bcd60e51b815260206004820152601660248201527f45706f63683a206e6f7420737461727465642079657400000000000000000000604482015290519081900360640190fd5b6007546040805163570ca73560e01b8152905130926001600160a01b03169163570ca735916004808301926020929190829003018186803b1580156111cb57600080fd5b505afa1580156111df573d6000803e3d6000fd5b505050506040513d60208110156111f557600080fd5b50516001600160a01b031614801561128357506008546040805163570ca73560e01b8152905130926001600160a01b03169163570ca735916004808301926020929190829003018186803b15801561124c57600080fd5b505afa158015611260573d6000803e3d6000fd5b505050506040513d602081101561127657600080fd5b50516001600160a01b0316145b80156113055750600b546040805163570ca73560e01b8152905130926001600160a01b03169163570ca735916004808301926020929190829003018186803b1580156112ce57600080fd5b505afa1580156112e2573d6000803e3d6000fd5b505050506040513d60208110156112f857600080fd5b50516001600160a01b0316145b80156113875750600c546040805163570ca73560e01b8152905130926001600160a01b03169163570ca735916004808301926020929190829003018186803b15801561135057600080fd5b505afa158015611364573d6000803e3d6000fd5b505050506040513d602081101561137a57600080fd5b50516001600160a01b0316145b80156114095750600d546040805163570ca73560e01b8152905130926001600160a01b03169163570ca735916004808301926020929190829003018186803b1580156113d257600080fd5b505afa1580156113e6573d6000803e3d6000fd5b505050506040513d60208110156113fc57600080fd5b50516001600160a01b0316145b61145a576040805162461bcd60e51b815260206004820152601e60248201527f54726561737572793a206e656564206d6f7265207065726d697373696f6e0000604482015290519081900360640190fd5b600082116114995760405162461bcd60e51b815260040180806020018281038252602e815260200180615d8d602e913960400191505060405180910390fd5b600f546000906114b1906001600160a01b0316614e87565b90506114bb610da1565b81116114f85760405162461bcd60e51b8152600401808060200182810382526025815260200180615e446025913960400191505060405180910390fd5b600754604080516370a0823160e01b8152306004820152905185926001600160a01b0316916370a08231916024808301926020929190829003018186803b15801561154257600080fd5b505afa158015611556573d6000803e3d6000fd5b505050506040513d602081101561156c57600080fd5b505110156115ab5760405162461bcd60e51b8152600401808060200182810382526028815260200180615e696028913960400191505060405180910390fd5b6115b760165484614f29565b602154909350156116a75760006115de6064610fd460215487614c7190919063ffffffff16565b90506000611600670de0b6b3a7640000610fd4846115fa610fdf565b90614c71565b6009546040805163079cc67960e41b81523360048201526024810184905290519293506001600160a01b03909116916379cc67909160448082019260009290919082900301818387803b15801561165657600080fd5b505af115801561166a573d6000803e3d6000fd5b50506040805184815290513393507fb06ee95ceef482c3e542a811738c445874b74536a86980975c2fa25c8da4145692509081900360200190a250505b6016546116b49084614dc5565b6016556008546040805163079cc67960e41b81523360048201526024810186905290516001600160a01b03909216916379cc67909160448082019260009290919082900301818387803b15801561170a57600080fd5b505af115801561171e573d6000803e3d6000fd5b505050508115611af2576040805160028082526060808301845292602083019080368337505060075482519293506001600160a01b03169183915060009061176257fe5b6001600160a01b039283166020918202929092010152600654825162010000909104909116908290600190811061179557fe5b6001600160a01b03928316602091820292909201810191909152600a546040805163d06ca61f60e01b81526004810189815260248201928352865160448301528651606096949094169463d06ca61f948b9489949092606490910191858201910280838360005b838110156118145781810151838201526020016117fc565b50505050905001935050505060006040518083038186803b15801561183857600080fd5b505afa15801561184c573d6000803e3d6000fd5b505050506040513d6000823e601f3d908101601f19168201604052602081101561187557600080fd5b810190808051604051939291908464010000000082111561189557600080fd5b9083019060208201858111156118aa57600080fd5b82518660208202830111640100000000821117156118c757600080fd5b82525081516020918201928201910280838360005b838110156118f45781810151838201526020016118dc565b50505050905001604052505050905060008160018151811061191257fe5b6020908102919091010151600a5460075491925061193d916001600160a01b03908116911688614f3f565b600a60009054906101000a90046001600160a01b03166001600160a01b03166338ed173987838633426040518663ffffffff1660e01b81526004018086815260200185815260200180602001846001600160a01b03168152602001838152602001828103825285818151815260200191508051906020019060200280838360005b838110156119d65781810151838201526020016119be565b505050509050019650505050505050600060405180830381600087803b1580156119ff57600080fd5b505af1158015611a13573d6000803e3d6000fd5b505050506040513d6000823e601f3d908101601f191682016040526020811015611a3c57600080fd5b8101908080516040519392919084640100000000821115611a5c57600080fd5b908301906020820185811115611a7157600080fd5b8251866020820283011164010000000082111715611a8e57600080fd5b82525081516020918201928201910280838360005b83811015611abb578181015183820152602001611aa3565b50505050919091016040525050600a54600754611aea94506001600160a01b0390811693501690506000614f3f565b505050611b09565b600754611b09906001600160a01b0316338561509e565b604080518481528315156020820152815133927fdee8115ed8924fe8930e7f8d1a3394813c162b88199c9d456d44de819394bca8928290030190a250611b4d61511e565b5050436000908152602081815260408083203284529091528082208054600160ff1991821681179092553384529190922080549091169091179055565b601d5481565b611b98614d24565b6001546001600160a01b03908116911614611bfa576040805162461bcd60e51b815260206004820181905260248201527f4f776e61626c653a2063616c6c6572206973206e6f7420746865206f776e6572604482015290519081900360640190fd5b601054601280546001600160a01b038481166001600160a01b03199092168217909255604080519290931680835260208301919091526060828401819052600e908301527f617274684d6168614f7261636c650000000000000000000000000000000000006080830152915133917fca798e9a2cf1a302c5a9b4850b1a4b2b7e3cdd1f827df960076bd009b0b58fdf919081900360a00190a25050565b611c9f614d24565b6001546001600160a01b03908116911614611d01576040805162461bcd60e51b815260206004820181905260248201527f4f776e61626c653a2063616c6c6572206973206e6f7420746865206f776e6572604482015290519081900360640190fd5b601054601180546001600160a01b038481166001600160a01b031990921682179092556040805192909316808352602083019190915260608284018190526009908301527f676d754f7261636c6500000000000000000000000000000000000000000000006080830152915133917fca798e9a2cf1a302c5a9b4850b1a4b2b7e3cdd1f827df960076bd009b0b58fdf919081900360a00190a25050565b6000611da8614e49565b15611de45760405162461bcd60e51b8152600401808060200182810382526026815260200180615f666026913960400191505060405180910390fd5b611dec614e68565b15611e285760405162461bcd60e51b8152600401808060200182810382526026815260200180615f666026913960400191505060405180910390fd5b60065460ff1615611e80576040805162461bcd60e51b815260206004820152601260248201527f54726561737572793a206d696772617465640000000000000000000000000000604482015290519081900360640190fd5b600454421015611ed7576040805162461bcd60e51b815260206004820152601660248201527f45706f63683a206e6f7420737461727465642079657400000000000000000000604482015290519081900360640190fd5b6007546040805163570ca73560e01b8152905130926001600160a01b03169163570ca735916004808301926020929190829003018186803b158015611f1b57600080fd5b505afa158015611f2f573d6000803e3d6000fd5b505050506040513d6020811015611f4557600080fd5b50516001600160a01b0316148015611fd357506008546040805163570ca73560e01b8152905130926001600160a01b03169163570ca735916004808301926020929190829003018186803b158015611f9c57600080fd5b505afa158015611fb0573d6000803e3d6000fd5b505050506040513d6020811015611fc657600080fd5b50516001600160a01b0316145b80156120555750600b546040805163570ca73560e01b8152905130926001600160a01b03169163570ca735916004808301926020929190829003018186803b15801561201e57600080fd5b505afa158015612032573d6000803e3d6000fd5b505050506040513d602081101561204857600080fd5b50516001600160a01b0316145b80156120d75750600c546040805163570ca73560e01b8152905130926001600160a01b03169163570ca735916004808301926020929190829003018186803b1580156120a057600080fd5b505afa1580156120b4573d6000803e3d6000fd5b505050506040513d60208110156120ca57600080fd5b50516001600160a01b0316145b80156121595750600d546040805163570ca73560e01b8152905130926001600160a01b03169163570ca735916004808301926020929190829003018186803b15801561212257600080fd5b505afa158015612136573d6000803e3d6000fd5b505050506040513d602081101561214c57600080fd5b50516001600160a01b0316145b6121aa576040805162461bcd60e51b815260206004820152601e60248201527f54726561737572793a206e656564206d6f7265207065726d697373696f6e0000604482015290519081900360640190fd5b600083116121e95760405162461bcd60e51b8152600401808060200182810382526030815260200180615ee86030913960400191505060405180910390fd5b60006121f36139b5565b90508281111561224a576040805162461bcd60e51b815260206004820152601a60248201527f54726561737572793a2063617368207072696365206d6f766564000000000000604482015290519081900360640190fd5b612252612912565b8111156122905760405162461bcd60e51b8152600401808060200182810382526032815260200180615de56032913960400191505060405180910390fd5b6000601454116122d15760405162461bcd60e51b8152600401808060200182810382526026815260200180615d1c6026913960400191505060405180910390fd5b6040805160028082526060808301845292602083019080368337019050509050600660029054906101000a90046001600160a01b03168160008151811061231457fe5b6001600160a01b03928316602091820292909201015260075482519116908290600190811061233f57fe5b6001600160a01b03928316602091820292909201810191909152600a546040805163d06ca61f60e01b8152600481018a815260248201928352865160448301528651606096949094169463d06ca61f948c9489949092606490910191858201910280838360005b838110156123be5781810151838201526020016123a6565b50505050905001935050505060006040518083038186803b1580156123e257600080fd5b505afa1580156123f6573d6000803e3d6000fd5b505050506040513d6000823e601f3d908101601f19168201604052602081101561241f57600080fd5b810190808051604051939291908464010000000082111561243f57600080fd5b90830190602082018581111561245457600080fd5b825186602082028301116401000000008211171561247157600080fd5b82525081516020918201928201910280838360005b8381101561249e578181015183820152602001612486565b5050505090500160405250505090506000816001815181106124bc57fe5b60209081029190910101516006549091506124e8906201000090046001600160a01b031633308a615361565b600a5460065461250b916001600160a01b03620100009092048216911689614f3f565b600a546040517f38ed173900000000000000000000000000000000000000000000000000000000815260048101898152602482018490523360648301819052426084840181905260a060448501908152885160a486015288516060966001600160a01b0316956338ed1739958f958a958d959194909360c401906020808801910280838360005b838110156125aa578181015183820152602001612592565b505050509050019650505050505050600060405180830381600087803b1580156125d357600080fd5b505af11580156125e7573d6000803e3d6000fd5b505050506040513d6000823e601f3d908101601f19168201604052602081101561261057600080fd5b810190808051604051939291908464010000000082111561263057600080fd5b90830190602082018581111561264557600080fd5b825186602082028301116401000000008211171561266257600080fd5b82525081516020918201928201910280838360005b8381101561268f578181015183820152602001612677565b50505050919091016040525050600a546006549394506126c6936201000090046001600160a01b0390811693501690506000614f3f565b60006126e6826001815181106126d857fe5b602002602001015184614f29565b9050600061270a82612705601554601454614dc590919063ffffffff16565b614f29565b90506000811161274b5760405162461bcd60e51b8152600401808060200182810382526026815260200180615d1c6026913960400191505060405180910390fd5b60006127726064610fd461276b6019546064614cca90919063ffffffff16565b8590614c71565b6015549091506127829083614cca565b6015556007546040805163079cc67960e41b81523360048201526024810185905290516001600160a01b03909216916379cc67909160448082019260009290919082900301818387803b1580156127d857600080fd5b505af11580156127ec573d6000803e3d6000fd5b5050600854604080516340c10f1960e01b81523360048201526024810186905290516001600160a01b0390921693506340c10f1992506044808201926020929091908290030181600087803b15801561284457600080fd5b505af1158015612858573d6000803e3d6000fd5b505050506040513d602081101561286e57600080fd5b5050604080518c815260208101849052808201839052905133917fa86b4ae149813f0b5b4bae0377f5b265f21164f956d6c594b535e7b7e4522980919081900360600190a29750505050505050506128c461511e565b436000908152602081815260408083203284529091528082208054600160ff199182168117909255338452919092208054909116909117905592915050565b600c546001600160a01b031681565b6000610fda6064610fd4612932601a546064614dc590919063ffffffff16565b60135490614c71565b6002546001600160a01b031690565b60165490565b612958614e49565b156129945760405162461bcd60e51b8152600401808060200182810382526026815260200180615f666026913960400191505060405180910390fd5b61299c614e68565b156129d85760405162461bcd60e51b8152600401808060200182810382526026815260200180615f666026913960400191505060405180910390fd5b60065460ff1615612a30576040805162461bcd60e51b815260206004820152601260248201527f54726561737572793a206d696772617465640000000000000000000000000000604482015290519081900360640190fd5b600454421015612a87576040805162461bcd60e51b815260206004820152601660248201527f45706f63683a206e6f7420737461727465642079657400000000000000000000604482015290519081900360640190fd5b6004544211612add576040805162461bcd60e51b815260206004820152601660248201527f45706f63683a206e6f7420737461727465642079657400000000000000000000604482015290519081900360640190fd5b612ae56131e2565b612b36576040805162461bcd60e51b815260206004820152601260248201527f45706f63683a206e6f7420616c6c6f7765640000000000000000000000000000604482015290519081900360640190fd5b6007546040805163570ca73560e01b8152905130926001600160a01b03169163570ca735916004808301926020929190829003018186803b158015612b7a57600080fd5b505afa158015612b8e573d6000803e3d6000fd5b505050506040513d6020811015612ba457600080fd5b50516001600160a01b0316148015612c3257506008546040805163570ca73560e01b8152905130926001600160a01b03169163570ca735916004808301926020929190829003018186803b158015612bfb57600080fd5b505afa158015612c0f573d6000803e3d6000fd5b505050506040513d6020811015612c2557600080fd5b50516001600160a01b0316145b8015612cb45750600b546040805163570ca73560e01b8152905130926001600160a01b03169163570ca735916004808301926020929190829003018186803b158015612c7d57600080fd5b505afa158015612c91573d6000803e3d6000fd5b505050506040513d6020811015612ca757600080fd5b50516001600160a01b0316145b8015612d365750600c546040805163570ca73560e01b8152905130926001600160a01b03169163570ca735916004808301926020929190829003018186803b158015612cff57600080fd5b505afa158015612d13573d6000803e3d6000fd5b505050506040513d6020811015612d2957600080fd5b50516001600160a01b0316145b8015612db85750600d546040805163570ca73560e01b8152905130926001600160a01b03169163570ca735916004808301926020929190829003018186803b158015612d8157600080fd5b505afa158015612d95573d6000803e3d6000fd5b505050506040513d6020811015612dab57600080fd5b50516001600160a01b0316145b612e09576040805162461bcd60e51b815260206004820152601e60248201527f54726561737572793a206e656564206d6f7265207065726d697373696f6e0000604482015290519081900360640190fd5b612e1161511e565b6000612e1b6138c3565b90506000612e276139b5565b6007549091506001600160a01b03166340c10f1933612e4f60c8670de0b6b3a7640000614c71565b6040518363ffffffff1660e01b815260040180836001600160a01b0316815260200182815260200192505050602060405180830381600087803b158015612e9557600080fd5b505af1158015612ea9573d6000803e3d6000fd5b505050506040513d6020811015612ebf57600080fd5b50612ecb9050816153ef565b6013548211612edb575050613185565b612ee361387f565b8211613058576000612ef4836138db565b90506000612f8282612705601654600860009054906101000a90046001600160a01b03166001600160a01b03166318160ddd6040518163ffffffff1660e01b815260040160206040518083038186803b158015612f5057600080fd5b505afa158015612f64573d6000803e3d6000fd5b505050506040513d6020811015612f7a57600080fd5b505190614dc5565b905080612f925750505050613185565b600754604080516340c10f1960e01b81523060048201526024810184905290516001600160a01b03909216916340c10f19916044808201926020929091908290030181600087803b158015612fe657600080fd5b505af1158015612ffa573d6000803e3d6000fd5b505050506040513d602081101561301057600080fd5b50506040805182815290517f25f94c75ecc4f1017eb385f0739e72f250f3fa4afbe1b729cf1614233ca2f8ed9181900360200190a161304e8161546b565b5050505050613185565b6000613063836138db565b90508061307257505050613185565b600754604080516340c10f1960e01b81523060048201526024810184905290516001600160a01b03909216916340c10f19916044808201926020929091908290030181600087803b1580156130c657600080fd5b505af11580156130da573d6000803e3d6000fd5b505050506040513d60208110156130f057600080fd5b50506040805182815290517f25f94c75ecc4f1017eb385f0739e72f250f3fa4afbe1b729cf1614233ca2f8ed9181900360200190a1600061313082615529565b905061313c8282614dc5565b9150600061315a6064610fd4601d5486614c7190919063ffffffff16565b905060006131678261546b565b90506131738482614dc5565b935061317e84615692565b5050505050505b42600555436000908152602081815260408083203284529091528082208054600160ff1991821681179092553384529190922080549091169091179055565b6012546001600160a01b031681565b6008546001600160a01b031681565b60006131ec614874565b6131f4613937565b1015905090565b600f546001600160a01b031681565b613212614d24565b6001546001600160a01b03908116911614613274576040805162461bcd60e51b815260206004820181905260248201527f4f776e61626c653a2063616c6c6572206973206e6f7420746865206f776e6572604482015290519081900360640190fd5b6001546040516000916001600160a01b0316907f8be0079c531659141344cd1fd0a4f28419497f9722a3daafe3b4186f6b6457e0908390a3600180546001600160a01b0319169055565b60185481565b600a546001600160a01b031681565b600d546001600160a01b031681565b6132ea614d24565b6001546001600160a01b0390811691161461334c576040805162461bcd60e51b815260206004820181905260248201527f4f776e61626c653a2063616c6c6572206973206e6f7420746865206f776e6572604482015290519081900360640190fd5b60648110613397576040805162461bcd60e51b8152602060048201526013602482015272054726561737572793a2072617465203e3d203606c1b604482015290519081900360640190fd5b600e80546001600160a01b0319166001600160a01b038416908117909155601c829055604080519182526020820183905280517f898363c1d3dafa4cda5134e9c765767d934e8acff58b9bb919cebcdf6062313e9281900390910190a15050565b6007546040805163570ca73560e01b8152905130926001600160a01b03169163570ca735916004808301926020929190829003018186803b15801561343c57600080fd5b505afa158015613450573d6000803e3d6000fd5b505050506040513d602081101561346657600080fd5b50516001600160a01b03161480156134f457506008546040805163570ca73560e01b8152905130926001600160a01b03169163570ca735916004808301926020929190829003018186803b1580156134bd57600080fd5b505afa1580156134d1573d6000803e3d6000fd5b505050506040513d60208110156134e757600080fd5b50516001600160a01b0316145b80156135765750600b546040805163570ca73560e01b8152905130926001600160a01b03169163570ca735916004808301926020929190829003018186803b15801561353f57600080fd5b505afa158015613553573d6000803e3d6000fd5b505050506040513d602081101561356957600080fd5b50516001600160a01b0316145b80156135f85750600c546040805163570ca73560e01b8152905130926001600160a01b03169163570ca735916004808301926020929190829003018186803b1580156135c157600080fd5b505afa1580156135d5573d6000803e3d6000fd5b505050506040513d60208110156135eb57600080fd5b50516001600160a01b0316145b801561367a5750600d546040805163570ca73560e01b8152905130926001600160a01b03169163570ca735916004808301926020929190829003018186803b15801561364357600080fd5b505afa158015613657573d6000803e3d6000fd5b505050506040513d602081101561366d57600080fd5b50516001600160a01b0316145b6136cb576040805162461bcd60e51b815260206004820152601e60248201527f54726561737572793a206e656564206d6f7265207065726d697373696f6e0000604482015290519081900360640190fd5b600654610100900460ff1615613728576040805162461bcd60e51b815260206004820152601560248201527f54726561737572793a20696e697469616c697a65640000000000000000000000604482015290519081900360640190fd5b600754604080516370a0823160e01b815230600482015290516001600160a01b03909216916370a0823191602480820192602092909190829003018186803b15801561377357600080fd5b505afa158015613787573d6000803e3d6000fd5b505050506040513d602081101561379d57600080fd5b50516016556006805461ff00191661010017905560408051438152905133917f25ff68dd81b34665b5ba7e553ee5511bf6812e12adb4a7e2c0d9e26b3099ce79919081900360200190a2565b601c5481565b60155481565b6001546001600160a01b031690565b60008061381383601354613857565b905061382181601854614f29565b9150505b919050565b6007546001600160a01b031681565b600b546001600160a01b031681565b6011546001600160a01b031681565b600061387682610fd460646115fa670de0b6b3a764000081858a614dc5565b90505b92915050565b6000610fda6064610fd46129326064601a54614cca90919063ffffffff16565b60175460ff1681565b60145481565b6009546001600160a01b031681565b601b5481565b601054600090610fda906001600160a01b0316614e87565b600060135482116138ee57506000613825565b60006138fc60135484613857565b9050600061390c82601b54614f29565b905061392f6064610fd461391e613be3565b6115fa6064610fd4876115fa61481e565b949350505050565b6000610fda600354610fd4600454613951600454426159e1565b90614dc5565b600f54604080517f398bac6300000000000000000000000000000000000000000000000000000000815290516000926001600160a01b03169163398bac63916004808301926020929190829003018186803b158015610a4a57600080fd5b600f54600090610fda906001600160a01b0316614e87565b6139d5614d24565b6001546001600160a01b03908116911614613a37576040805162461bcd60e51b815260206004820181905260248201527f4f776e61626c653a2063616c6c6572206973206e6f7420746865206f776e6572604482015290519081900360640190fd5b601080546001600160a01b038381166001600160a01b0319831681179093556040805191909216808252602082019390935260608183018190526011908201527f736569676e696f726167654f7261636c650000000000000000000000000000006080820152905133917fca798e9a2cf1a302c5a9b4850b1a4b2b7e3cdd1f827df960076bd009b0b58fdf919081900360a00190a25050565b6000610fda613ae36003546115fa614874565b60045490614cca565b613af4614d24565b6001546001600160a01b03908116911614613b56576040805162461bcd60e51b815260206004820181905260248201527f4f776e61626c653a2063616c6c6572206973206e6f7420746865206f776e6572604482015290519081900360640190fd5b6064811115613ba2576040805162461bcd60e51b8152602060048201526013602482015272054726561737572793a2072617465203e3d203606c1b604482015290519081900360640190fd5b601d8190556040805182815290517f4f771c31cd2ff595bfeaa05b54580f8281c72c325d63a60cb267a3b1300239749181900360200190a150565b60045490565b60175460009060ff16613bf857506064610a79565b600a54604080517fc45a015500000000000000000000000000000000000000000000000000000000815290516000926001600160a01b03169163c45a0155916004808301926020929190829003018186803b158015613c5657600080fd5b505afa158015613c6a573d6000803e3d6000fd5b505050506040513d6020811015613c8057600080fd5b5051600754600654604080517fe6a439050000000000000000000000000000000000000000000000000000000081526001600160a01b0393841660048201526201000090920483166024830152519293506000929184169163e6a4390591604480820192602092909190829003018186803b158015613cfe57600080fd5b505afa158015613d12573d6000803e3d6000fd5b505050506040513d6020811015613d2857600080fd5b5051600754604080516370a0823160e01b81526001600160a01b038085166004830152915193945060009391909216916370a08231916024808301926020929190829003018186803b158015613d7d57600080fd5b505afa158015613d91573d6000803e3d6000fd5b505050506040513d6020811015613da757600080fd5b5051600754604080517f18160ddd0000000000000000000000000000000000000000000000000000000081529051929350613e45926001600160a01b03909216916318160ddd91600480820192602092909190829003018186803b158015613e0e57600080fd5b505afa158015613e22573d6000803e3d6000fd5b505050506040513d6020811015613e3857600080fd5b5051610fd4836064614c71565b935050505090565b6002546001600160a01b03163314613e965760405162461bcd60e51b8152600401808060200182810382526024815260200180615f186024913960400191505060405180910390fd5b6007546040805163570ca73560e01b8152905130926001600160a01b03169163570ca735916004808301926020929190829003018186803b158015613eda57600080fd5b505afa158015613eee573d6000803e3d6000fd5b505050506040513d6020811015613f0457600080fd5b50516001600160a01b0316148015613f9257506008546040805163570ca73560e01b8152905130926001600160a01b03169163570ca735916004808301926020929190829003018186803b158015613f5b57600080fd5b505afa158015613f6f573d6000803e3d6000fd5b505050506040513d6020811015613f8557600080fd5b50516001600160a01b0316145b80156140145750600b546040805163570ca73560e01b8152905130926001600160a01b03169163570ca735916004808301926020929190829003018186803b158015613fdd57600080fd5b505afa158015613ff1573d6000803e3d6000fd5b505050506040513d602081101561400757600080fd5b50516001600160a01b0316145b80156140965750600c546040805163570ca73560e01b8152905130926001600160a01b03169163570ca735916004808301926020929190829003018186803b15801561405f57600080fd5b505afa158015614073573d6000803e3d6000fd5b505050506040513d602081101561408957600080fd5b50516001600160a01b0316145b80156141185750600d546040805163570ca73560e01b8152905130926001600160a01b03169163570ca735916004808301926020929190829003018186803b1580156140e157600080fd5b505afa1580156140f5573d6000803e3d6000fd5b505050506040513d602081101561410b57600080fd5b50516001600160a01b0316145b614169576040805162461bcd60e51b815260206004820152601e60248201527f54726561737572793a206e656564206d6f7265207065726d697373696f6e0000604482015290519081900360640190fd5b6001600160a01b0381166141ae5760405162461bcd60e51b8152600401808060200182810382526025815260200180615d426025913960400191505060405180910390fd5b60065460ff1615614206576040805162461bcd60e51b815260206004820152601260248201527f54726561737572793a206d696772617465640000000000000000000000000000604482015290519081900360640190fd5b600754604080516329605e7760e01b81526001600160a01b038481166004830152915191909216916329605e7791602480830192600092919082900301818387803b15801561425457600080fd5b505af1158015614268573d6000803e3d6000fd5b50506007546040805163f2fde38b60e01b81526001600160a01b038681166004830152915191909216935063f2fde38b9250602480830192600092919082900301818387803b1580156142ba57600080fd5b505af11580156142ce573d6000803e3d6000fd5b5050600754604080516370a0823160e01b815230600482015290516001600160a01b03909216935063a9059cbb9250849184916370a08231916024808301926020929190829003018186803b15801561432657600080fd5b505afa15801561433a573d6000803e3d6000fd5b505050506040513d602081101561435057600080fd5b5051604080517fffffffff0000000000000000000000000000000000000000000000000000000060e086901b1681526001600160a01b03909316600484015260248301919091525160448083019260209291908290030181600087803b1580156143b957600080fd5b505af11580156143cd573d6000803e3d6000fd5b505050506040513d60208110156143e357600080fd5b5050600854604080516329605e7760e01b81526001600160a01b038481166004830152915191909216916329605e7791602480830192600092919082900301818387803b15801561443357600080fd5b505af1158015614447573d6000803e3d6000fd5b50506008546040805163f2fde38b60e01b81526001600160a01b038681166004830152915191909216935063f2fde38b9250602480830192600092919082900301818387803b15801561449957600080fd5b505af11580156144ad573d6000803e3d6000fd5b5050600854604080516370a0823160e01b815230600482015290516001600160a01b03909216935063a9059cbb9250849184916370a08231916024808301926020929190829003018186803b15801561450557600080fd5b505afa158015614519573d6000803e3d6000fd5b505050506040513d602081101561452f57600080fd5b5051604080517fffffffff0000000000000000000000000000000000000000000000000000000060e086901b1681526001600160a01b03909316600484015260248301919091525160448083019260209291908290030181600087803b15801561459857600080fd5b505af11580156145ac573d6000803e3d6000fd5b505050506040513d60208110156145c257600080fd5b5050600954604080516370a0823160e01b815230600482015290516001600160a01b039092169163a9059cbb91849184916370a08231916024808301926020929190829003018186803b15801561461857600080fd5b505afa15801561462c573d6000803e3d6000fd5b505050506040513d602081101561464257600080fd5b5051604080517fffffffff0000000000000000000000000000000000000000000000000000000060e086901b1681526001600160a01b03909316600484015260248301919091525160448083019260209291908290030181600087803b1580156146ab57600080fd5b505af11580156146bf573d6000803e3d6000fd5b505050506040513d60208110156146d557600080fd5b50506006805460ff191660011790556040516001600160a01b038216907f0caca70b66aed56b0630989a049110023c5a3f37e0ea4b6ce96fc747663f3ebc90600090a250565b614723614d24565b6001546001600160a01b03908116911614614785576040805162461bcd60e51b815260206004820181905260248201527f4f776e61626c653a2063616c6c6572206973206e6f7420746865206f776e6572604482015290519081900360640190fd5b600f80546001600160a01b038381166001600160a01b031983168117909355604080519190921680825260208201939093526060818301819052600a908201527f626f6e644f7261636c65000000000000000000000000000000000000000000006080820152905133917fca798e9a2cf1a302c5a9b4850b1a4b2b7e3cdd1f827df960076bd009b0b58fdf919081900360a00190a25050565b6000610fda601654600760009054906101000a90046001600160a01b03166001600160a01b03166318160ddd6040518163ffffffff1660e01b815260040160206040518083038186803b158015612f5057600080fd5b600060055460045414156148915761488a610fb5565b9050610a79565b610fda600161489e610fb5565b90614cca565b6148ac614d24565b6001546001600160a01b0390811691161461490e576040805162461bcd60e51b815260206004820181905260248201527f4f776e61626c653a2063616c6c6572206973206e6f7420746865206f776e6572604482015290519081900360640190fd5b6001600160a01b0381166149535760405162461bcd60e51b8152600401808060200182810382526026815260200180615d676026913960400191505060405180910390fd5b6001546040516001600160a01b038084169216907f8be0079c531659141344cd1fd0a4f28419497f9722a3daafe3b4186f6b6457e090600090a3600180546001600160a01b0319166001600160a01b0392909216919091179055565b6149b7614d24565b6001546001600160a01b03908116911614614a19576040805162461bcd60e51b815260206004820181905260248201527f4f776e61626c653a2063616c6c6572206973206e6f7420746865206f776e6572604482015290519081900360640190fd5b60648110614a64576040805162461bcd60e51b8152602060048201526013602482015272054726561737572793a2072617465203e3d203606c1b604482015290519081900360640190fd5b600b80546001600160a01b0384166001600160a01b03199091168117909155601e82905560408051918252602082018390526060828201819052600d908301527f617274684c6971756964697479000000000000000000000000000000000000006080830152517f1e735343686b5fc702ca1096085a657587a4c9f7b4d41dc028e97b53b67a42889181900360a00190a15050565b6006546201000090046001600160a01b031681565b60205481565b60195481565b614b22614d24565b6001546001600160a01b03908116911614614b84576040805162461bcd60e51b815260206004820181905260248201527f4f776e61626c653a2063616c6c6572206973206e6f7420746865206f776e6572604482015290519081900360640190fd5b60008111614bd9576040805162461bcd60e51b815260206004820152601160248201527f54726561737572793a20666565203c2030000000000000000000000000000000604482015290519081900360640190fd5b60648110614c2e576040805162461bcd60e51b815260206004820152601260248201527f54726561737572793a20666565203e3d20300000000000000000000000000000604482015290519081900360640190fd5b6021819055604080518281526020810183905281517f9062205e0e7d6f10fbc6756f2236d1e19f0f689c0836d3f32619e5c6f27e267f929181900390910190a150565b600082614c8057506000613879565b82820282848281614c8d57fe5b04146138765760405162461bcd60e51b8152600401808060200182810382526021815260200180615e916021913960400191505060405180910390fd5b600082820183811015613876576040805162461bcd60e51b815260206004820152601b60248201527f536166654d6174683a206164646974696f6e206f766572666c6f770000000000604482015290519081900360640190fd5b3390565b6001600160a01b038116614d6d5760405162461bcd60e51b815260040180806020018281038252602d815260200180615e17602d913960400191505060405180910390fd5b6040516001600160a01b038216906000907f74da04524d50c64947f5dd5381ef1a4dca5cba8ed1d816243f9e48aa0b5617ed908290a3600280546001600160a01b0319166001600160a01b0392909216919091179055565b600061387683836040518060400160405280601e81526020017f536166654d6174683a207375627472616374696f6e206f766572666c6f7700008152506159f1565b600061387683836040518060400160405280601a81526020017f536166654d6174683a206469766973696f6e206279207a65726f000000000000815250615a88565b4360009081526020818152604080832032845290915290205460ff1690565b4360009081526020818152604080832033845290915290205460ff1690565b6000816001600160a01b03166398d5fdca6040518163ffffffff1660e01b815260040160206040518083038186803b158015614ec257600080fd5b505afa925050508015614ee757506040513d6020811015614ee257600080fd5b505160015b614f225760405162461bcd60e51b8152600401808060200182810382526036815260200180615eb26036913960400191505060405180910390fd5b9050613825565b6000818310614f385781613876565b5090919050565b801580614fde5750604080517fdd62ed3e0000000000000000000000000000000000000000000000000000000081523060048201526001600160a01b03848116602483015291519185169163dd62ed3e91604480820192602092909190829003018186803b158015614fb057600080fd5b505afa158015614fc4573d6000803e3d6000fd5b505050506040513d6020811015614fda57600080fd5b5051155b6150195760405162461bcd60e51b8152600401808060200182810382526036815260200180615f8c6036913960400191505060405180910390fd5b604080516001600160a01b038416602482015260448082018490528251808303909101815260649091019091526020810180517bffffffffffffffffffffffffffffffffffffffffffffffffffffffff167f095ea7b300000000000000000000000000000000000000000000000000000000179052615099908490615aed565b505050565b604080516001600160a01b038416602482015260448082018490528251808303909101815260649091019091526020810180517bffffffffffffffffffffffffffffffffffffffffffffffffffffffff167fa9059cbb00000000000000000000000000000000000000000000000000000000179052615099908490615aed565b600f60009054906101000a90046001600160a01b03166001600160a01b0316636a2ab6026040518163ffffffff1660e01b815260040160206040518083038186803b15801561516c57600080fd5b505afa158015615180573d6000803e3d6000fd5b505050506040513d602081101561519657600080fd5b50511561520057600f60009054906101000a90046001600160a01b03166001600160a01b031663a2e620456040518163ffffffff1660e01b8152600401600060405180830381600087803b1580156151ed57600080fd5b505af19250505080156151fe575060015b505b601060009054906101000a90046001600160a01b03166001600160a01b0316636a2ab6026040518163ffffffff1660e01b815260040160206040518083038186803b15801561524e57600080fd5b505afa158015615262573d6000803e3d6000fd5b505050506040513d602081101561527857600080fd5b5051156152e257601060009054906101000a90046001600160a01b03166001600160a01b031663a2e620456040518163ffffffff1660e01b8152600401600060405180830381600087803b1580156152cf57600080fd5b505af19250505080156152e0575060015b505b601160009054906101000a90046001600160a01b03166001600160a01b03166398d5fdca6040518163ffffffff1660e01b815260040160206040518083038186803b15801561533057600080fd5b505afa158015615344573d6000803e3d6000fd5b505050506040513d602081101561535a57600080fd5b5051601355565b604080516001600160a01b0380861660248301528416604482015260648082018490528251808303909101815260849091019091526020810180517bffffffffffffffffffffffffffffffffffffffffffffffffffffffff167f23b872dd000000000000000000000000000000000000000000000000000000001790526153e9908590615aed565b50505050565b600060158190556153fe612912565b905080821161546257600061541283613804565b90506154246064610fd461391e613be3565b601481905560408051918252517f3126748fb7d2f0c4ceb4afad33fe522477f7a87035b1ce9ce7b7696485d860e89181900360200190a15050610d95565b50600060145550565b6000806154c683612705601654600860009054906101000a90046001600160a01b03166001600160a01b03166318160ddd6040518163ffffffff1660e01b815260040160206040518083038186803b158015612f5057600080fd5b90508015615520576016546154db9082614cca565b601655604080514281526020810183905281517ff705142bf09f04297640495ddf7c59b7fd6f51894c5aea9602d631cf05f0efc2929181900390910190a19050613825565b50600092915050565b6000806155466064610fd4601c5486614c7190919063ffffffff16565b9050801561552057600e5460075461556b916001600160a01b03918216911683614f3f565b600e546007546040517fbfe07da60000000000000000000000000000000000000000000000000000000081526001600160a01b039182166004820181815260248301869052606060448401908152602a60648501819052949095169463bfe07da69492938793608490910190615dbb82396040019350505050600060405180830381600087803b1580156155fe57600080fd5b505af1158015615612573d6000803e3d6000fd5b5050600e546040805185815260208101829052600d818301527f65636f73797374656d46756e6400000000000000000000000000000000000000606082015290516001600160a01b0390921693507f7a0f4fd6f84518e83a1dfb1aecc4f7b97e940a7860e4ead77ae4d4c79ba6e22c925081900360800190a29050613825565b6000811161569f57610d95565b60006156bb6064610fd4601e5485614c7190919063ffffffff16565b905060006156d96064610fd4601f5486614c7190919063ffffffff16565b905060006156f76064610fd460205487614c7190919063ffffffff16565b905082156157f757600b5460075461571c916001600160a01b03918216911685614f3f565b600b54604080516397ffe1d760e01b81526004810186905290516001600160a01b03909216916397ffe1d79160248082019260009290919082900301818387803b15801561576957600080fd5b505af115801561577d573d6000803e3d6000fd5b5050600b546040805187815260208101829052600d818301527f617274684c697175696469747900000000000000000000000000000000000000606082015290516001600160a01b0390921693507f7a0f4fd6f84518e83a1dfb1aecc4f7b97e940a7860e4ead77ae4d4c79ba6e22c925081900360800190a25b81156158dc57600c5460075461581a916001600160a01b03918216911684614f3f565b600c54604080516397ffe1d760e01b81526004810185905290516001600160a01b03909216916397ffe1d79160248082019260009290919082900301818387803b15801561586757600080fd5b505af115801561587b573d6000803e3d6000fd5b5050600c546040805186815260208101829052600481830152630c2e4e8d60e31b606082015290516001600160a01b0390921693507f7a0f4fd6f84518e83a1dfb1aecc4f7b97e940a7860e4ead77ae4d4c79ba6e22c925081900360800190a25b80156153e957600d546007546158ff916001600160a01b03918216911683614f3f565b600d54604080516397ffe1d760e01b81526004810184905290516001600160a01b03909216916397ffe1d79160248082019260009290919082900301818387803b15801561594c57600080fd5b505af1158015615960573d6000803e3d6000fd5b5050600d80546040805186815260208101829052808201939093527f6d6168614c6971756964697479000000000000000000000000000000000000006060840152516001600160a01b0390911693507f7a0f4fd6f84518e83a1dfb1aecc4f7b97e940a7860e4ead77ae4d4c79ba6e22c92509081900360800190a250505050565b600081831015614f385781613876565b60008184841115615a805760405162461bcd60e51b81526004018080602001828103825283818151815260200191508051906020019080838360005b83811015615a45578181015183820152602001615a2d565b50505050905090810190601f168015615a725780820380516001836020036101000a031916815260200191505b509250505060405180910390fd5b505050900390565b60008183615ad75760405162461bcd60e51b8152602060048201818152835160248401528351909283926044909101919085019080838360008315615a45578181015183820152602001615a2d565b506000838581615ae357fe5b0495945050505050565b6060615b42826040518060400160405280602081526020017f5361666545524332303a206c6f772d6c6576656c2063616c6c206661696c6564815250856001600160a01b0316615b9e9092919063ffffffff16565b80519091501561509957808060200190516020811015615b6157600080fd5b50516150995760405162461bcd60e51b815260040180806020018281038252602a815260200180615f3c602a913960400191505060405180910390fd5b606061392f84846000856060615bb385615d15565b615c04576040805162461bcd60e51b815260206004820152601d60248201527f416464726573733a2063616c6c20746f206e6f6e2d636f6e7472616374000000604482015290519081900360640190fd5b60006060866001600160a01b031685876040518082805190602001908083835b60208310615c435780518252601f199092019160209182019101615c24565b6001836020036101000a03801982511681845116808217855250505050505090500191505060006040518083038185875af1925050503d8060008114615ca5576040519150601f19603f3d011682016040523d82523d6000602084013e615caa565b606091505b50915091508115615cbe57915061392f9050565b805115615cce5780518082602001fd5b60405162461bcd60e51b8152602060048201818152865160248401528651879391928392604401919085019080838360008315615a45578181015183820152602001615a2d565b3b15159056fe54726561737572793a204e6f206d6f726520626f6e647320746f2062652072656465656d656454726561737572793a206d69677261746520746f20746865207a65726f20616464726573734f776e61626c653a206e6577206f776e657220697320746865207a65726f206164647265737354726561737572793a2063616e6e6f742072656465656d20626f6e64732077697468207a65726f20616d6f756e7454726561737572793a2045636f73797374656d20536569676e696f7261676520416c6c6f636174696f6e54726561737572793a20636173685072696365206e6f7420656c696769626c6520666f7220626f6e642070757263686173656f70657261746f723a207a65726f206164647265737320676976656e20666f72206e6577206f70657261746f7254726561737572793a20636173685072696365206c657373207468616e206365696c696e6754726561737572793a20747265617375727920686173206e6f7420656e6f75676820627564676574536166654d6174683a206d756c7469706c69636174696f6e206f766572666c6f7754726561737572793a206661696c656420746f20636f6e73756c7420636173682070726963652066726f6d20746865206f7261636c6554726561737572793a2063616e6e6f7420707572636861736520626f6e64732077697468207a65726f20616d6f756e746f70657261746f723a2063616c6c6572206973206e6f7420746865206f70657261746f725361666545524332303a204552433230206f7065726174696f6e20646964206e6f742073756363656564436f6e747261637447756172643a206f6e6520626c6f636b2c206f6e652066756e6374696f6e5361666545524332303a20617070726f76652066726f6d206e6f6e2d7a65726f20746f206e6f6e2d7a65726f20616c6c6f77616e6365a26469706673582212201b79a1dbd3d07ece725bd8bf8dffdc379a2a3b06e8dc94059c1feaff5edc151864736f6c634300060c0033536166654d6174683a206d756c7469706c69636174696f6e206f766572666c6f77",
  "immutableReferences": {},
  "source": "// SPDX-License-Identifier: MIT\n\npragma solidity ^0.6.10;\n\nimport '@openzeppelin/contracts/math/Math.sol';\nimport '@openzeppelin/contracts/token/ERC20/SafeERC20.sol';\nimport '@openzeppelin/contracts/utils/ReentrancyGuard.sol';\n\nimport '../interfaces/ICustomERC20.sol';\nimport '../interfaces/IUniswapV2Factory.sol';\nimport {IOracle} from '../interfaces/IOracle.sol';\nimport {IMultiUniswapOracle} from '../interfaces/IMultiUniswapOracle.sol';\nimport {IUniswapOracle} from '../interfaces/IUniswapOracle.sol';\nimport {IUniswapV2Router02} from '../interfaces/IUniswapV2Router02.sol';\nimport {IBoardroom} from '../interfaces/IBoardroom.sol';\nimport {IBasisAsset} from '../interfaces/IBasisAsset.sol';\nimport {ISimpleERCFund} from '../interfaces/ISimpleERCFund.sol';\nimport {Babylonian} from '../lib/Babylonian.sol';\nimport {FixedPoint} from '../lib/FixedPoint.sol';\nimport {Safe112} from '../lib/Safe112.sol';\nimport {Operator} from '../owner/Operator.sol';\nimport {Epoch} from '../utils/Epoch.sol';\nimport {ContractGuard} from '../utils/ContractGuard.sol';\n\nimport './TreasurySetters.sol';\n\n/**\n * @title ARTH Treasury contract\n * @notice Monetary policy logic to adjust supplies of basis cash assets\n * @author Steven Enamakel & Yash Agrawal. Original code written by Summer Smith & Rick Sanchez\n */\ncontract Treasury is TreasurySetters {\n    using SafeERC20 for ICustomERC20;\n\n    constructor(\n        address _dai,\n        address _cash,\n        address _bond,\n        address _share,\n        address _bondOracle,\n        address _arthMahaOracle,\n        address _seigniorageOracle,\n        address _arthLiquidityBoardroom,\n        address _mahaLiquidityBoardroom,\n        address _arthBoardroom,\n        address _fund,\n        address _uniswapRouter,\n        address _gmuOracle,\n        uint256 _startTime,\n        uint256 _period\n    ) public Epoch(_period, _startTime, 0) {\n        // tokens\n        dai = _dai;\n        cash = _cash;\n        bond = _bond;\n        share = _share;\n\n        // oracles\n        bondOracle = _bondOracle;\n        arthMahaOracle = _arthMahaOracle;\n        seigniorageOracle = _seigniorageOracle;\n        gmuOracle = _gmuOracle;\n\n        // funds\n        arthLiquidityBoardroom = _arthLiquidityBoardroom;\n        arthBoardroom = _arthBoardroom;\n        mahaLiquidityBoardroom = _mahaLiquidityBoardroom;\n        ecosystemFund = _fund;\n\n        // others\n        uniswapRouter = _uniswapRouter;\n\n        // _updateCashPrice();\n    }\n\n    modifier updatePrice {\n        _;\n\n        _updateCashPrice();\n    }\n\n    function initialize() public checkOperator {\n        require(!initialized, 'Treasury: initialized');\n\n        // set accumulatedSeigniorage to the treasury's balance\n        accumulatedSeigniorage = IERC20(cash).balanceOf(address(this));\n\n        initialized = true;\n        emit Initialized(msg.sender, block.number);\n    }\n\n    function migrate(address target) public onlyOperator checkOperator {\n        require(target != address(0), 'Treasury: migrate to the zero address');\n        require(!migrated, 'Treasury: migrated');\n\n        // cash\n        Operator(cash).transferOperator(target);\n        Operator(cash).transferOwnership(target);\n        ICustomERC20(cash).transfer(\n            target,\n            ICustomERC20(cash).balanceOf(address(this))\n        );\n\n        // bond\n        Operator(bond).transferOperator(target);\n        Operator(bond).transferOwnership(target);\n        ICustomERC20(bond).transfer(\n            target,\n            ICustomERC20(bond).balanceOf(address(this))\n        );\n\n        // share - disabled ownership and operator functions as MAHA tokens don't have these\n        ICustomERC20(share).transfer(\n            target,\n            ICustomERC20(share).balanceOf(address(this))\n        );\n\n        migrated = true;\n        emit Migration(target);\n    }\n\n    function buyBonds(uint256 amountInDai, uint256 targetPrice)\n        external\n        onlyOneBlock\n        checkMigration\n        checkStartTime\n        checkOperator\n        updatePrice\n        returns (uint256)\n    {\n        require(\n            amountInDai > 0,\n            'Treasury: cannot purchase bonds with zero amount'\n        );\n\n        // Update the price to latest before using.\n        uint256 cash1hPrice = getBondOraclePrice();\n\n        require(cash1hPrice <= targetPrice, 'Treasury: cash price moved');\n        require(\n            cash1hPrice <= getBondPurchasePrice(), // price < $0.95\n            'Treasury: cashPrice not eligible for bond purchase'\n        );\n        require(\n            cashToBondConversionLimit > 0,\n            'Treasury: No more bonds to be redeemed'\n        );\n\n        // Find the expected amount recieved when swapping the following\n        // tokens on uniswap.\n        address[] memory path = new address[](2);\n        path[0] = address(dai);\n        path[1] = address(cash);\n\n        uint256[] memory amountsOut =\n            IUniswapV2Router02(uniswapRouter).getAmountsOut(amountInDai, path);\n        uint256 expectedCashAmount = amountsOut[1];\n\n        // 1. Take Dai from the user\n        ICustomERC20(dai).safeTransferFrom(\n            msg.sender,\n            address(this),\n            amountInDai\n        );\n\n        // 2. Approve dai for trade on uniswap\n        ICustomERC20(dai).safeApprove(uniswapRouter, amountInDai);\n\n        // 3. Swap dai for ARTH from uniswap and send the ARTH to the sender\n        // we send the ARTH back to the sender just in case there is some slippage\n        // in our calculations and we end up with more ARTH than what is needed.\n        uint256[] memory output =\n            IUniswapV2Router02(uniswapRouter).swapExactTokensForTokens(\n                amountInDai,\n                expectedCashAmount,\n                path,\n                msg.sender,\n                block.timestamp\n            );\n\n        // set approve to 0 after transfer\n        ICustomERC20(dai).safeApprove(uniswapRouter, 0);\n\n        // we do this to understand how much ARTH was bought back as without this, we\n        // could witness a flash loan attack. (given that the minted amount of ARTHB\n        // minted is based how much ARTH was received)\n        uint256 boughtBackCash = Math.min(output[1], expectedCashAmount);\n\n        // basis the amount of ARTH being bought back; understand how much of it\n        // can we convert to bond tokens by looking at the conversion limits\n        uint256 cashToConvert =\n            Math.min(\n                boughtBackCash,\n                cashToBondConversionLimit.sub(accumulatedBonds)\n            );\n\n        // if all good then mint ARTHB, burn ARTH and update the counters\n        require(cashToConvert > 0, 'Treasury: No more bonds to be redeemed');\n\n        uint256 bondsToIssue =\n            cashToConvert.mul(uint256(100).add(bondDiscount)).div(100);\n        accumulatedBonds = accumulatedBonds.add(cashToConvert);\n\n        // 3. Burn bought ARTH cash and mint bonds at the discounted price.\n        // TODO: Set the minting amount according to bond price.\n        // TODO: calculate premium basis size of the trade\n        IBasisAsset(cash).burnFrom(msg.sender, cashToConvert);\n        IBasisAsset(bond).mint(msg.sender, bondsToIssue);\n\n        emit BoughtBonds(msg.sender, amountInDai, cashToConvert, bondsToIssue);\n\n        return bondsToIssue;\n    }\n\n    /**\n     * Redeeming bonds happen when\n     */\n    function redeemBonds(uint256 amount, bool sellForDai)\n        external\n        onlyOneBlock\n        checkMigration\n        checkStartTime\n        checkOperator\n        updatePrice\n    {\n        require(amount > 0, 'Treasury: cannot redeem bonds with zero amount');\n\n        uint256 cashPrice = _getCashPrice(bondOracle);\n        require(\n            cashPrice > getBondRedemtionPrice(), // price > $1.05\n            'Treasury: cashPrice less than ceiling'\n        );\n        require(\n            ICustomERC20(cash).balanceOf(address(this)) >= amount,\n            'Treasury: treasury has not enough budget'\n        );\n\n        amount = Math.min(accumulatedSeigniorage, amount);\n\n        // charge stabilty fees in MAHA\n        if (stabilityFee > 0) {\n            uint256 stabilityFeeInARTH = amount.mul(stabilityFee).div(100);\n            uint256 stabilityFeeInMAHA =\n                getArthMahaOraclePrice().mul(stabilityFeeInARTH).div(1e18);\n\n            // charge the stability fee\n            ICustomERC20(share).burnFrom(msg.sender, stabilityFeeInMAHA);\n\n            emit StabilityFeesCharged(msg.sender, stabilityFeeInMAHA);\n        }\n\n        accumulatedSeigniorage = accumulatedSeigniorage.sub(amount);\n        IBasisAsset(bond).burnFrom(msg.sender, amount);\n\n        // sell the ARTH for Dai right away\n        if (sellForDai) {\n            // calculate how much DAI will we get from Uniswap by selling ARTH\n            address[] memory path = new address[](2);\n            path[0] = address(cash);\n            path[1] = address(dai);\n            uint256[] memory amountsOut =\n                IUniswapV2Router02(uniswapRouter).getAmountsOut(amount, path);\n            uint256 expectedDaiAmount = amountsOut[1];\n\n            // TODO: write some checkes over here\n\n            // send it!\n            ICustomERC20(cash).safeApprove(uniswapRouter, amount);\n            IUniswapV2Router02(uniswapRouter).swapExactTokensForTokens(\n                amount,\n                expectedDaiAmount,\n                path,\n                msg.sender,\n                block.timestamp\n            );\n            // set approve to 0 after transfer\n            ICustomERC20(cash).safeApprove(uniswapRouter, 0);\n        } else {\n            // or just hand over the ARTH directly\n            ICustomERC20(cash).safeTransfer(msg.sender, amount);\n        }\n\n        emit RedeemedBonds(msg.sender, amount, sellForDai);\n    }\n\n    function allocateSeigniorage()\n        external\n        onlyOneBlock\n        checkMigration\n        checkStartTime\n        checkEpoch\n        checkOperator\n    {\n        _updateCashPrice();\n        uint256 cash12hPrice = getSeigniorageOraclePrice();\n        uint256 cash1hPrice = getBondOraclePrice();\n\n        // send 200 ARTH reward to the person advancing the epoch to compensate for gas\n        IBasisAsset(cash).mint(msg.sender, uint256(200).mul(1e18));\n\n        // update the bond limits\n        _updateConversionLimit(cash1hPrice);\n\n        if (cash12hPrice <= cashTargetPrice) {\n            return; // just advance epoch instead revert\n        }\n\n        if (cash12hPrice <= getExpansionLimitPrice()) {\n            // if we are below the ceiling price (or expansion limit price) but\n            // above the target price, then we try to pay off all the bond holders\n            // as much as possible.\n\n            // calculate how much seigniorage should be minted basis deviation from target price\n            uint256 seigniorage = estimateSeignorageToMint(cash12hPrice);\n\n            // check how much should we be paying to bond holders\n            uint256 treasuryReserve =\n                Math.min(\n                    seigniorage,\n                    ICustomERC20(bond).totalSupply().sub(accumulatedSeigniorage)\n                );\n\n            // if we don't have to pay them anything return..\n            if (treasuryReserve == 0) return;\n\n            // we have to pay them some amount; so mint, distribute and return\n            IBasisAsset(cash).mint(address(this), treasuryReserve);\n            emit SeigniorageMinted(treasuryReserve);\n            _allocateToBondHolers(treasuryReserve);\n            return;\n        }\n\n        uint256 seigniorage = estimateSeignorageToMint(cash12hPrice);\n        if (seigniorage == 0) return;\n\n        IBasisAsset(cash).mint(address(this), seigniorage);\n        emit SeigniorageMinted(seigniorage);\n\n        // send funds to the community development fund\n        uint256 ecosystemReserve = _allocateToEcosystemFund(seigniorage);\n        seigniorage = seigniorage.sub(ecosystemReserve);\n\n        // keep 90% of the funds to bond token holders; and send the remaining to the boardroom\n        uint256 allocatedForBondHolders =\n            seigniorage.mul(bondSeigniorageRate).div(100);\n        uint256 treasuryReserve =\n            _allocateToBondHolers(allocatedForBondHolders);\n        seigniorage = seigniorage.sub(treasuryReserve);\n\n        // allocate everything else to the boardroom\n        _allocateToBoardrooms(seigniorage);\n    }\n\n    function _allocateToEcosystemFund(uint256 seigniorage)\n        internal\n        returns (uint256)\n    {\n        uint256 ecosystemReserve =\n            seigniorage.mul(ecosystemFundAllocationRate).div(100);\n        if (ecosystemReserve > 0) {\n            ICustomERC20(cash).safeApprove(ecosystemFund, ecosystemReserve);\n            ISimpleERCFund(ecosystemFund).deposit(\n                cash,\n                ecosystemReserve,\n                'Treasury: Ecosystem Seigniorage Allocation'\n            );\n            emit PoolFunded(ecosystemFund, ecosystemReserve, 'ecosystemFund');\n            return ecosystemReserve;\n        }\n\n        return 0;\n    }\n\n    /**\n     * Updates the cash price from the various oracles.\n     * TODO: this function needs to be optimised for gas\n     */\n    function _updateCashPrice() internal {\n        if (Epoch(bondOracle).callable()) {\n            try IUniswapOracle(bondOracle).update() {} catch {}\n        }\n\n        if (Epoch(seigniorageOracle).callable()) {\n            try IUniswapOracle(seigniorageOracle).update() {} catch {}\n        }\n\n        // TODO: do the same for the gmu oracle as well\n        // if (Epoch(seigniorageOracle).callable()) {\n        //     try IOracle(seigniorageOracle).update() {} catch {}\n        // }\n\n        cashTargetPrice = IOracle(gmuOracle).getPrice();\n    }\n\n    /**\n     * Helper function to allocate seigniorage to bond token holders. Seigniorage\n     * before the boardrooms get paid.\n     */\n    function _allocateToBondHolers(uint256 seigniorage)\n        internal\n        returns (uint256)\n    {\n        uint256 treasuryReserve =\n            Math.min(\n                seigniorage,\n                ICustomERC20(bond).totalSupply().sub(accumulatedSeigniorage)\n            );\n\n        if (treasuryReserve > 0) {\n            // update accumulated seigniorage\n            accumulatedSeigniorage = accumulatedSeigniorage.add(\n                treasuryReserve\n            );\n            emit TreasuryFunded(now, treasuryReserve);\n            return treasuryReserve;\n        }\n\n        return 0;\n    }\n\n    /**\n     * Helper function to allocate seigniorage to boardooms. Seigniorage is allocated\n     * after bond token holders have been paid first.\n     */\n    function _allocateToBoardrooms(uint256 boardroomReserve) internal {\n        if (boardroomReserve <= 0) return;\n\n        // Calculate boardroom reserves.\n        uint256 arthLiquidityBoardroomReserve =\n            boardroomReserve.mul(arthLiquidityBoardroomAllocationRate).div(100);\n        uint256 arthBoardroomReserve =\n            boardroomReserve.mul(arthBoardroomAllocationRate).div(100);\n        uint256 mahaLiquidityBoardroomReserve =\n            boardroomReserve.mul(mahaLiquidityBoardroomAllocationRate).div(100);\n\n        if (arthLiquidityBoardroomReserve > 0) {\n            ICustomERC20(cash).safeApprove(\n                arthLiquidityBoardroom,\n                arthLiquidityBoardroomReserve\n            );\n            IBoardroom(arthLiquidityBoardroom).allocateSeigniorage(\n                arthLiquidityBoardroomReserve\n            );\n            emit PoolFunded(\n                arthLiquidityBoardroom,\n                arthLiquidityBoardroomReserve,\n                'arthLiquidity'\n            );\n        }\n\n        if (arthBoardroomReserve > 0) {\n            ICustomERC20(cash).safeApprove(arthBoardroom, arthBoardroomReserve);\n            IBoardroom(arthBoardroom).allocateSeigniorage(arthBoardroomReserve);\n            emit PoolFunded(arthBoardroom, arthBoardroomReserve, 'arth');\n        }\n\n        if (mahaLiquidityBoardroomReserve > 0) {\n            ICustomERC20(cash).safeApprove(\n                mahaLiquidityBoardroom,\n                mahaLiquidityBoardroomReserve\n            );\n            IBoardroom(mahaLiquidityBoardroom).allocateSeigniorage(\n                mahaLiquidityBoardroomReserve\n            );\n            emit PoolFunded(\n                mahaLiquidityBoardroom,\n                mahaLiquidityBoardroomReserve,\n                'mahaLiquidity'\n            );\n        }\n    }\n\n    /**\n     * This function calculates how much bonds should be minted given an epoch\n     * https://github.com/Basis-Cash/basiscash-protocol/issues/27\n     *\n     * The cap will be of the following size: ($1-1hTWAP)*(Circ $BAC),\n     * where 1hTWAP is the 1h TWAP of the $ARTH price and Circ $ARTH is\n     * the Circulating $ARTH supply. The cap will last for one hour; after\n     * an hour a new TWAP will be calculated and the cap is reset based on\n     * next 12h epoch.\n     */\n    function _updateConversionLimit(uint256 cash1hPrice) internal {\n        // reset this counter so that new bonds can now be minted.\n        accumulatedBonds = 0;\n\n        uint256 bondPurchasePrice = getBondPurchasePrice();\n\n        // check if we are in contract mode.\n        if (cash1hPrice <= bondPurchasePrice) {\n            // in contraction mode -> issue bonds.\n            // set a limit to how many bonds are there.\n\n            // understand how much % deviation do we have from target price\n            // if target price is 2.5$ and we are at 2$; then percentage should be 20%\n            uint256 percentage = estimatePercentageOfBondsToIssue(cash1hPrice);\n\n            // accordingly set the new conversion limit to be that % from the\n            // current circulating supply of ARTH and if uniswap enabled then uniswap liquidity.\n            cashToBondConversionLimit = arthCirculatingSupply()\n                .mul(percentage)\n                .div(100)\n                .mul(getCashSupplyInLiquidity())\n                .div(100);\n\n            emit BondsAllocated(cashToBondConversionLimit);\n\n            return;\n        }\n\n        // if not in contraction then we do nothing.\n        cashToBondConversionLimit = 0;\n    }\n\n    // GOV\n    event Initialized(address indexed executor, uint256 at);\n    event Migration(address indexed target);\n    event RedeemedBonds(address indexed from, uint256 amount, bool sellForDai);\n    event BoughtBonds(\n        address indexed from,\n        uint256 amountDaiIn,\n        uint256 amountBurnt,\n        uint256 bondsIssued\n    );\n    event Log(uint256 data);\n    event TreasuryFunded(uint256 timestamp, uint256 seigniorage);\n    event SeigniorageMinted(uint256 seigniorage);\n    event BondsAllocated(uint256 limit);\n    event PoolFunded(address indexed pool, uint256 seigniorage, string label);\n    event StabilityFeesCharged(address indexed from, uint256 stabilityFeeValue);\n}\n",
  "sourcePath": "/Users/enamakel/Work/mahadao/arthcoin/arthcoin-v2/contracts/treasury/Treasury.sol",
  "compiler": {
    "name": "solc",
    "version": "0.6.12+commit.27d51765.Emscripten.clang"
  },
  "schemaVersion": "3.3.3",
  "updatedAt": "2021-01-22T05:56:56.723Z",
  "networkType": "ethereum",
  "devdoc": {
    "author": "Steven Enamakel & Yash Agrawal. Original code written by Summer Smith & Rick Sanchez",
    "kind": "dev",
    "methods": {
      "owner()": {
        "details": "Returns the address of the current owner."
      },
      "renounceOwnership()": {
        "details": "Leaves the contract without owner. It will not be possible to call `onlyOwner` functions anymore. Can only be called by the current owner. NOTE: Renouncing ownership will leave the contract without an owner, thereby removing any functionality that is only available to the owner."
      },
      "transferOwnership(address)": {
        "details": "Transfers ownership of the contract to a new account (`newOwner`). Can only be called by the current owner."
      }
    },
    "title": "ARTH Treasury contract",
    "version": 1
  },
  "userdoc": {
    "kind": "user",
    "methods": {
      "estimateSeignorageToMint(uint256)": {
        "notice": "Understand how much Seignorage should be minted"
      },
      "redeemBonds(uint256,bool)": {
        "notice": "Redeeming bonds happen when"
      }
    },
    "notice": "Monetary policy logic to adjust supplies of basis cash assets",
    "version": 1
  }
}