{
  "contractName": "Treasury",
  "abi": [
    {
      "inputs": [
        {
          "internalType": "address",
          "name": "_dai",
          "type": "address"
        },
        {
          "internalType": "address",
          "name": "_cash",
          "type": "address"
        },
        {
          "internalType": "address",
          "name": "_bond",
          "type": "address"
        },
        {
          "internalType": "address",
          "name": "_share",
          "type": "address"
        },
        {
          "internalType": "address",
          "name": "_bondOracle",
          "type": "address"
        },
        {
          "internalType": "address",
          "name": "_mahausdOracle",
          "type": "address"
        },
        {
          "internalType": "address",
          "name": "_seigniorageOracle",
          "type": "address"
        },
        {
          "internalType": "address",
          "name": "_arthLiquidityBoardroom",
          "type": "address"
        },
        {
          "internalType": "address",
          "name": "_arthBoardroom",
          "type": "address"
        },
        {
          "internalType": "address",
          "name": "_fund",
          "type": "address"
        },
        {
          "internalType": "address",
          "name": "_uniswapRouter",
          "type": "address"
        },
        {
          "internalType": "address",
          "name": "_gmuOracle",
          "type": "address"
        },
        {
          "internalType": "uint256",
          "name": "_startTime",
          "type": "uint256"
        },
        {
          "internalType": "uint256",
          "name": "_period",
          "type": "uint256"
        }
      ],
      "stateMutability": "nonpayable",
      "type": "constructor"
    },
    {
      "anonymous": false,
      "inputs": [
        {
          "indexed": true,
          "internalType": "address",
          "name": "operator",
          "type": "address"
        },
        {
          "indexed": false,
          "internalType": "address",
          "name": "newFund",
          "type": "address"
        }
      ],
      "name": "ArthBoardroomChanged",
      "type": "event"
    },
    {
      "anonymous": false,
      "inputs": [
        {
          "indexed": true,
          "internalType": "address",
          "name": "operator",
          "type": "address"
        },
        {
          "indexed": false,
          "internalType": "uint256",
          "name": "newRate",
          "type": "uint256"
        }
      ],
      "name": "ArthBoardroomRateChanged",
      "type": "event"
    },
    {
      "anonymous": false,
      "inputs": [
        {
          "indexed": true,
          "internalType": "address",
          "name": "operator",
          "type": "address"
        },
        {
          "indexed": false,
          "internalType": "address",
          "name": "newFund",
          "type": "address"
        }
      ],
      "name": "ArthLiquidityBoardroomChanged",
      "type": "event"
    },
    {
      "anonymous": false,
      "inputs": [
        {
          "indexed": true,
          "internalType": "address",
          "name": "operator",
          "type": "address"
        },
        {
          "indexed": false,
          "internalType": "uint256",
          "name": "newRate",
          "type": "uint256"
        }
      ],
      "name": "ArthLiquidityBoardroomRateChanged",
      "type": "event"
    },
    {
      "anonymous": false,
      "inputs": [
        {
          "indexed": false,
          "internalType": "uint256",
          "name": "timestamp",
          "type": "uint256"
        },
        {
          "indexed": false,
          "internalType": "uint256",
          "name": "seigniorage",
          "type": "uint256"
        }
      ],
      "name": "BoardroomFunded",
      "type": "event"
    },
    {
      "anonymous": false,
      "inputs": [
        {
          "indexed": true,
          "internalType": "address",
          "name": "from",
          "type": "address"
        },
        {
          "indexed": false,
          "internalType": "uint256",
          "name": "amount",
          "type": "uint256"
        }
      ],
      "name": "BoughtBonds",
      "type": "event"
    },
    {
      "anonymous": false,
      "inputs": [
        {
          "indexed": true,
          "internalType": "address",
          "name": "operator",
          "type": "address"
        },
        {
          "indexed": false,
          "internalType": "address",
          "name": "newFund",
          "type": "address"
        }
      ],
      "name": "ContributionPoolChanged",
      "type": "event"
    },
    {
      "anonymous": false,
      "inputs": [
        {
          "indexed": false,
          "internalType": "uint256",
          "name": "timestamp",
          "type": "uint256"
        },
        {
          "indexed": false,
          "internalType": "uint256",
          "name": "seigniorage",
          "type": "uint256"
        }
      ],
      "name": "ContributionPoolFunded",
      "type": "event"
    },
    {
      "anonymous": false,
      "inputs": [
        {
          "indexed": true,
          "internalType": "address",
          "name": "operator",
          "type": "address"
        },
        {
          "indexed": false,
          "internalType": "uint256",
          "name": "newRate",
          "type": "uint256"
        }
      ],
      "name": "ContributionPoolRateChanged",
      "type": "event"
    },
    {
      "anonymous": false,
      "inputs": [
        {
          "indexed": true,
          "internalType": "address",
          "name": "executor",
          "type": "address"
        },
        {
          "indexed": false,
          "internalType": "uint256",
          "name": "at",
          "type": "uint256"
        }
      ],
      "name": "Initialized",
      "type": "event"
    },
    {
      "anonymous": false,
      "inputs": [
        {
          "indexed": true,
          "internalType": "address",
          "name": "target",
          "type": "address"
        }
      ],
      "name": "Migration",
      "type": "event"
    },
    {
      "anonymous": false,
      "inputs": [
        {
          "indexed": true,
          "internalType": "address",
          "name": "previousOperator",
          "type": "address"
        },
        {
          "indexed": true,
          "internalType": "address",
          "name": "newOperator",
          "type": "address"
        }
      ],
      "name": "OperatorTransferred",
      "type": "event"
    },
    {
      "anonymous": false,
      "inputs": [
        {
          "indexed": true,
          "internalType": "address",
          "name": "previousOwner",
          "type": "address"
        },
        {
          "indexed": true,
          "internalType": "address",
          "name": "newOwner",
          "type": "address"
        }
      ],
      "name": "OwnershipTransferred",
      "type": "event"
    },
    {
      "anonymous": false,
      "inputs": [
        {
          "indexed": true,
          "internalType": "address",
          "name": "from",
          "type": "address"
        },
        {
          "indexed": false,
          "internalType": "uint256",
          "name": "amount",
          "type": "uint256"
        }
      ],
      "name": "RedeemedBonds",
      "type": "event"
    },
    {
      "anonymous": false,
      "inputs": [
        {
          "indexed": false,
          "internalType": "uint256",
          "name": "old",
          "type": "uint256"
        },
        {
          "indexed": false,
          "internalType": "uint256",
          "name": "newRate",
          "type": "uint256"
        }
      ],
      "name": "StabilityFeeChanged",
      "type": "event"
    },
    {
      "anonymous": false,
      "inputs": [
        {
          "indexed": false,
          "internalType": "uint256",
          "name": "timestamp",
          "type": "uint256"
        },
        {
          "indexed": false,
          "internalType": "uint256",
          "name": "seigniorage",
          "type": "uint256"
        }
      ],
      "name": "TreasuryFunded",
      "type": "event"
    },
    {
      "inputs": [],
      "name": "accumulatedSeigniorage",
      "outputs": [
        {
          "internalType": "uint256",
          "name": "",
          "type": "uint256"
        }
      ],
      "stateMutability": "view",
      "type": "function",
      "constant": true
    },
    {
      "inputs": [],
      "name": "arthBoardroom",
      "outputs": [
        {
          "internalType": "address",
          "name": "",
          "type": "address"
        }
      ],
      "stateMutability": "view",
      "type": "function",
      "constant": true
    },
    {
      "inputs": [],
      "name": "arthBoardroomAllocationRate",
      "outputs": [
        {
          "internalType": "uint256",
          "name": "",
          "type": "uint256"
        }
      ],
      "stateMutability": "view",
      "type": "function",
      "constant": true
    },
    {
      "inputs": [],
      "name": "arthLiquidityBoardroom",
      "outputs": [
        {
          "internalType": "address",
          "name": "",
          "type": "address"
        }
      ],
      "stateMutability": "view",
      "type": "function",
      "constant": true
    },
    {
      "inputs": [],
      "name": "arthLiquidityBoardroomAllocationRate",
      "outputs": [
        {
          "internalType": "uint256",
          "name": "",
          "type": "uint256"
        }
      ],
      "stateMutability": "view",
      "type": "function",
      "constant": true
    },
    {
      "inputs": [],
      "name": "bond",
      "outputs": [
        {
          "internalType": "address",
          "name": "",
          "type": "address"
        }
      ],
      "stateMutability": "view",
      "type": "function",
      "constant": true
    },
    {
      "inputs": [],
      "name": "bondDepletionFloor",
      "outputs": [
        {
          "internalType": "uint256",
          "name": "",
          "type": "uint256"
        }
      ],
      "stateMutability": "view",
      "type": "function",
      "constant": true
    },
    {
      "inputs": [],
      "name": "bondOracle",
      "outputs": [
        {
          "internalType": "address",
          "name": "",
          "type": "address"
        }
      ],
      "stateMutability": "view",
      "type": "function",
      "constant": true
    },
    {
      "inputs": [],
      "name": "cash",
      "outputs": [
        {
          "internalType": "address",
          "name": "",
          "type": "address"
        }
      ],
      "stateMutability": "view",
      "type": "function",
      "constant": true
    },
    {
      "inputs": [],
      "name": "cashPriceCeiling",
      "outputs": [
        {
          "internalType": "uint256",
          "name": "",
          "type": "uint256"
        }
      ],
      "stateMutability": "view",
      "type": "function",
      "constant": true
    },
    {
      "inputs": [],
      "name": "cashTargetPrice",
      "outputs": [
        {
          "internalType": "uint256",
          "name": "",
          "type": "uint256"
        }
      ],
      "stateMutability": "view",
      "type": "function",
      "constant": true
    },
    {
      "inputs": [],
      "name": "dai",
      "outputs": [
        {
          "internalType": "address",
          "name": "",
          "type": "address"
        }
      ],
      "stateMutability": "view",
      "type": "function",
      "constant": true
    },
    {
      "inputs": [],
      "name": "ecosystemFund",
      "outputs": [
        {
          "internalType": "address",
          "name": "",
          "type": "address"
        }
      ],
      "stateMutability": "view",
      "type": "function",
      "constant": true
    },
    {
      "inputs": [],
      "name": "ecosystemFundAllocationRate",
      "outputs": [
        {
          "internalType": "uint256",
          "name": "",
          "type": "uint256"
        }
      ],
      "stateMutability": "view",
      "type": "function",
      "constant": true
    },
    {
      "inputs": [],
      "name": "getCurrentEpoch",
      "outputs": [
        {
          "internalType": "uint256",
          "name": "",
          "type": "uint256"
        }
      ],
      "stateMutability": "view",
      "type": "function",
      "constant": true
    },
    {
      "inputs": [],
      "name": "getPeriod",
      "outputs": [
        {
          "internalType": "uint256",
          "name": "",
          "type": "uint256"
        }
      ],
      "stateMutability": "view",
      "type": "function",
      "constant": true
    },
    {
      "inputs": [],
      "name": "getStartTime",
      "outputs": [
        {
          "internalType": "uint256",
          "name": "",
          "type": "uint256"
        }
      ],
      "stateMutability": "view",
      "type": "function",
      "constant": true
    },
    {
      "inputs": [],
      "name": "gmuOracle",
      "outputs": [
        {
          "internalType": "address",
          "name": "",
          "type": "address"
        }
      ],
      "stateMutability": "view",
      "type": "function",
      "constant": true
    },
    {
      "inputs": [],
      "name": "initialCashPriceOne",
      "outputs": [
        {
          "internalType": "uint256",
          "name": "",
          "type": "uint256"
        }
      ],
      "stateMutability": "view",
      "type": "function",
      "constant": true
    },
    {
      "inputs": [],
      "name": "initialized",
      "outputs": [
        {
          "internalType": "bool",
          "name": "",
          "type": "bool"
        }
      ],
      "stateMutability": "view",
      "type": "function",
      "constant": true
    },
    {
      "inputs": [],
      "name": "isOperator",
      "outputs": [
        {
          "internalType": "bool",
          "name": "",
          "type": "bool"
        }
      ],
      "stateMutability": "view",
      "type": "function",
      "constant": true
    },
    {
      "inputs": [],
      "name": "mahausdOracle",
      "outputs": [
        {
          "internalType": "address",
          "name": "",
          "type": "address"
        }
      ],
      "stateMutability": "view",
      "type": "function",
      "constant": true
    },
    {
      "inputs": [],
      "name": "migrated",
      "outputs": [
        {
          "internalType": "bool",
          "name": "",
          "type": "bool"
        }
      ],
      "stateMutability": "view",
      "type": "function",
      "constant": true
    },
    {
      "inputs": [],
      "name": "nextEpochPoint",
      "outputs": [
        {
          "internalType": "uint256",
          "name": "",
          "type": "uint256"
        }
      ],
      "stateMutability": "view",
      "type": "function",
      "constant": true
    },
    {
      "inputs": [],
      "name": "operator",
      "outputs": [
        {
          "internalType": "address",
          "name": "",
          "type": "address"
        }
      ],
      "stateMutability": "view",
      "type": "function",
      "constant": true
    },
    {
      "inputs": [],
      "name": "owner",
      "outputs": [
        {
          "internalType": "address",
          "name": "",
          "type": "address"
        }
      ],
      "stateMutability": "view",
      "type": "function",
      "constant": true
    },
    {
      "inputs": [],
      "name": "renounceOwnership",
      "outputs": [],
      "stateMutability": "nonpayable",
      "type": "function"
    },
    {
      "inputs": [],
      "name": "seigniorageOracle",
      "outputs": [
        {
          "internalType": "address",
          "name": "",
          "type": "address"
        }
      ],
      "stateMutability": "view",
      "type": "function",
      "constant": true
    },
    {
      "inputs": [
        {
          "internalType": "uint256",
          "name": "_period",
          "type": "uint256"
        }
      ],
      "name": "setPeriod",
      "outputs": [],
      "stateMutability": "nonpayable",
      "type": "function"
    },
    {
      "inputs": [],
      "name": "share",
      "outputs": [
        {
          "internalType": "address",
          "name": "",
          "type": "address"
        }
      ],
      "stateMutability": "view",
      "type": "function",
      "constant": true
    },
    {
      "inputs": [],
      "name": "stabilityFee",
      "outputs": [
        {
          "internalType": "uint256",
          "name": "",
          "type": "uint256"
        }
      ],
      "stateMutability": "view",
      "type": "function",
      "constant": true
    },
    {
      "inputs": [
        {
          "internalType": "address",
          "name": "newOperator_",
          "type": "address"
        }
      ],
      "name": "transferOperator",
      "outputs": [],
      "stateMutability": "nonpayable",
      "type": "function"
    },
    {
      "inputs": [
        {
          "internalType": "address",
          "name": "newOwner",
          "type": "address"
        }
      ],
      "name": "transferOwnership",
      "outputs": [],
      "stateMutability": "nonpayable",
      "type": "function"
    },
    {
      "inputs": [],
      "name": "uniswapRouter",
      "outputs": [
        {
          "internalType": "address",
          "name": "",
          "type": "address"
        }
      ],
      "stateMutability": "view",
      "type": "function",
      "constant": true
    },
    {
      "inputs": [
        {
          "internalType": "uint256",
          "name": "_stabilityFee",
          "type": "uint256"
        }
      ],
      "name": "setStabilityFee",
      "outputs": [],
      "stateMutability": "nonpayable",
      "type": "function"
    },
    {
      "inputs": [
        {
          "internalType": "address",
          "name": "newFund",
          "type": "address"
        },
        {
          "internalType": "uint256",
          "name": "rate",
          "type": "uint256"
        }
      ],
      "name": "setFund",
      "outputs": [],
      "stateMutability": "nonpayable",
      "type": "function"
    },
    {
      "inputs": [
        {
          "internalType": "address",
          "name": "newFund",
          "type": "address"
        },
        {
          "internalType": "uint256",
          "name": "rate",
          "type": "uint256"
        }
      ],
      "name": "setArthBoardroom",
      "outputs": [],
      "stateMutability": "nonpayable",
      "type": "function"
    },
    {
      "inputs": [
        {
          "internalType": "address",
          "name": "newFund",
          "type": "address"
        },
        {
          "internalType": "uint256",
          "name": "rate",
          "type": "uint256"
        }
      ],
      "name": "setArthLiquidityBoardroom",
      "outputs": [],
      "stateMutability": "nonpayable",
      "type": "function"
    },
    {
      "inputs": [],
      "name": "getReserve",
      "outputs": [
        {
          "internalType": "uint256",
          "name": "",
          "type": "uint256"
        }
      ],
      "stateMutability": "view",
      "type": "function",
      "constant": true
    },
    {
      "inputs": [],
      "name": "getStabilityFee",
      "outputs": [
        {
          "internalType": "uint256",
          "name": "",
          "type": "uint256"
        }
      ],
      "stateMutability": "view",
      "type": "function",
      "constant": true
    },
    {
      "inputs": [],
      "name": "getCashPriceCeiling",
      "outputs": [
        {
          "internalType": "uint256",
          "name": "",
          "type": "uint256"
        }
      ],
      "stateMutability": "view",
      "type": "function",
      "constant": true
    },
    {
      "inputs": [],
      "name": "getBondOraclePrice",
      "outputs": [
        {
          "internalType": "uint256",
          "name": "",
          "type": "uint256"
        }
      ],
      "stateMutability": "view",
      "type": "function",
      "constant": true
    },
    {
      "inputs": [],
      "name": "getGMUOraclePrice",
      "outputs": [
        {
          "internalType": "uint256",
          "name": "",
          "type": "uint256"
        }
      ],
      "stateMutability": "view",
      "type": "function",
      "constant": true
    },
    {
      "inputs": [],
      "name": "getSeigniorageOraclePrice",
      "outputs": [
        {
          "internalType": "uint256",
          "name": "",
          "type": "uint256"
        }
      ],
      "stateMutability": "view",
      "type": "function",
      "constant": true
    },
    {
      "inputs": [],
      "name": "initialize",
      "outputs": [],
      "stateMutability": "nonpayable",
      "type": "function"
    },
    {
      "inputs": [
        {
          "internalType": "address",
          "name": "target",
          "type": "address"
        }
      ],
      "name": "migrate",
      "outputs": [],
      "stateMutability": "nonpayable",
      "type": "function"
    },
    {
      "inputs": [
        {
          "internalType": "uint256",
          "name": "amountInDai",
          "type": "uint256"
        },
        {
          "internalType": "uint256",
          "name": "targetPrice",
          "type": "uint256"
        }
      ],
      "name": "buyBonds",
      "outputs": [
        {
          "internalType": "uint256",
          "name": "",
          "type": "uint256"
        }
      ],
      "stateMutability": "nonpayable",
      "type": "function"
    },
    {
      "inputs": [
        {
          "internalType": "uint256",
          "name": "amount",
          "type": "uint256"
        },
        {
          "internalType": "uint256",
          "name": "targetPrice",
          "type": "uint256"
        }
      ],
      "name": "redeemBonds",
      "outputs": [],
      "stateMutability": "nonpayable",
      "type": "function"
    },
    {
      "inputs": [],
      "name": "allocateSeigniorage",
      "outputs": [],
      "stateMutability": "nonpayable",
      "type": "function"
    }
  ],
  "bytecode": "0x60806040526006805461ffff1916905560006016556002601755601460185560506019556001601a553480156200003557600080fd5b5060405162004c6138038062004c6183398181016040526101c08110156200005c57600080fd5b508051602082015160408301516060840151608085015160a086015160c087015160e08801516101008901516101208a01516101408b01516101608c01516101808d01516101a0909d01519b9c9a9b999a9899979896979596949593949293919290918082600080620000ce6200045b565b600180546001600160a01b0319166001600160a01b038316908117909155604051919250906000907f8be0079c531659141344cd1fd0a4f28419497f9722a3daafe3b4186f6b6457e0908290a350620001266200045b565b600280546001600160a01b0319166001600160a01b0392831617908190556040519116906000907f74da04524d50c64947f5dd5381ef1a4dca5cba8ed1d816243f9e48aa0b5617ed908290a38260038190555081600481905550806005819055505050508d600660026101000a8154816001600160a01b0302191690836001600160a01b031602179055508c600760006101000a8154816001600160a01b0302191690836001600160a01b031602179055508b600860006101000a8154816001600160a01b0302191690836001600160a01b031602179055508a600960006101000a8154816001600160a01b0302191690836001600160a01b0316021790555089601060006101000a8154816001600160a01b0302191690836001600160a01b0316021790555088600b60006101000a8154816001600160a01b0302191690836001600160a01b0316021790555087601160006101000a8154816001600160a01b0302191690836001600160a01b0316021790555082600a60006101000a8154816001600160a01b0302191690836001600160a01b0316021790555086600d60006101000a8154816001600160a01b0302191690836001600160a01b0316021790555085600e60006101000a8154816001600160a01b0302191690836001600160a01b0316021790555084600f60006101000a8154816001600160a01b0302191690836001600160a01b0316021790555083600c60006101000a8154816001600160a01b0302191690836001600160a01b03160217905550600a60009054906101000a90046001600160a01b03166001600160a01b03166398d5fdca6040518163ffffffff1660e01b815260040160206040518083038186803b158015620003ad57600080fd5b505afa158015620003c2573d6000803e3d6000fd5b505050506040513d6020811015620003d957600080fd5b5051601481905560128190556200041b9060649062000407906005906200045f602090811b6200360317901c565b620004c660201b620036651790919060201c565b60125401601381905550620004436012546103e86200045f60201b620036031790919060201c565b60155550620005b79c50505050505050505050505050565b3390565b6000826200047057506000620004c0565b828202828482816200047e57fe5b0414620004bd5760405162461bcd60e51b815260040180806020018281038252602181526020018062004c406021913960400191505060405180910390fd5b90505b92915050565b6000620004bd83836040518060400160405280601a81526020017f536166654d6174683a206469766973696f6e206279207a65726f0000000000008152506200051060201b60201c565b60008183620005a05760405162461bcd60e51b81526004018080602001828103825283818151815260200191508051906020019080838360005b83811015620005645781810151838201526020016200054a565b50505050905090810190601f168015620005925780820380516001836020036101000a031916815260200191505b509250505060405180910390fd5b506000838581620005ad57fe5b0495945050505050565b61467980620005c76000396000f3fe608060405234801561001057600080fd5b506004361061032b5760003560e01c80635b756179116101b25780639da3fe2e116100f9578063c828371e116100a2578063f2fde38b1161007c578063f2fde38b146105ab578063f40fda1d146105d1578063f4b9fa75146105fd578063fb4ca35b146106055761032b565b8063c828371e14610575578063ce5494bb1461057d578063e03047b7146105a35761032b565b8063b97dd9e2116100d3578063b97dd9e21461055d578063c1a2977214610565578063c5967c261461056d5761032b565b80639da3fe2e14610545578063a8d5fd651461054d578063b8e2cf8e146105555761032b565b80637f804a201161015b5780638da5cb5b116101355780638da5cb5b1461052d578063961be391146105355780639d42f96f1461053d5761032b565b80637f804a20146104f15780638129fc1c1461051d5780638d0a0383146105255761032b565b80636d19921d1161018c5780636d19921d146104d9578063715018a6146104e1578063735de9f7146104e95761032b565b80635b756179146104c15780635fb80455146104c957806364c9ec6f146104d15761032b565b80632c678c64116102765780634456eda21161021f578063570ca735116101f9578063570ca735146104a957806359bf5d39146104b157806359f9d5ae146104b95761032b565b80634456eda21461047657806354f04a111461047e578063558d07bc146104a15761032b565b80633330642011610250578063333064201461045e578063361416e1146104665780633d6c90571461046e5761032b565b80632c678c641461042257806330770ada1461042a5780633253e9bf146104565761032b565b80631d0cf683116102d857806327aef822116102b257806327aef822146103ec57806328334908146103f457806329605e77146103fc5761032b565b80631d0cf683146103d45780631ed24195146103dc57806323ced135146103e45761032b565b8063118ebbf911610309578063118ebbf914610371578063132eeaa714610394578063158ef93e146103b85761032b565b80630266fdb4146103305780630f3a9f651461034a5780631039825a14610369575b600080fd5b610338610622565b60408051918252519081900360200190f35b6103676004803603602081101561036057600080fd5b50356106b1565b005b610338610720565b6103676004803603604081101561038757600080fd5b5080359060200135610726565b61039c610f9b565b604080516001600160a01b039092168252519081900360200190f35b6103c0610faa565b604080519115158252519081900360200190f35b61039c610fb8565b610338610fc7565b610338610fcd565b610338610fd3565b610338610fd9565b6103676004803603602081101561041257600080fd5b50356001600160a01b0316610fdf565b6103c0611055565b6103676004803603604081101561044057600080fd5b506001600160a01b03813516906020013561105e565b61039c611179565b610338611188565b61033861118e565b610338611194565b6103c061119a565b6103386004803603604081101561049457600080fd5b50803590602001356111c0565b61039c611c6c565b61039c611c7b565b610338611c8a565b610338611c90565b610367611cb6565b610338612346565b61039c61234c565b61039c61235b565b61036761236a565b61039c61242b565b6103676004803603604081101561050757600080fd5b506001600160a01b03813516906020013561243a565b610367612544565b6103386129a0565b61039c6129a6565b61039c6129b5565b61039c6129c4565b61039c6129d3565b61039c6129e2565b6103386129f1565b610338612a0e565b610338612a14565b610338612a2c565b610338612a51565b6103676004803603602081101561059357600080fd5b50356001600160a01b0316612a57565b61033861325e565b610367600480360360208110156105c157600080fd5b50356001600160a01b0316613264565b610367600480360360408110156105e757600080fd5b506001600160a01b03813516906020013561337c565b61039c613497565b6103676004803603602081101561061b57600080fd5b50356134ac565b600a54604080517f98d5fdca00000000000000000000000000000000000000000000000000000000815290516000926001600160a01b0316916398d5fdca916004808301926020929190829003018186803b15801561068057600080fd5b505afa158015610694573d6000803e3d6000fd5b505050506040513d60208110156106aa57600080fd5b5051905090565b6106b96136a7565b6001546001600160a01b0390811691161461071b576040805162461bcd60e51b815260206004820181905260248201527f4f776e61626c653a2063616c6c6572206973206e6f7420746865206f776e6572604482015290519081900360640190fd5b600355565b60145481565b61072e6136ab565b1561076a5760405162461bcd60e51b81526004018080602001828103825260268152602001806145e86026913960400191505060405180910390fd5b6107726136ca565b156107ae5760405162461bcd60e51b81526004018080602001828103825260268152602001806145e86026913960400191505060405180910390fd5b60065460ff1615610806576040805162461bcd60e51b815260206004820152601260248201527f54726561737572793a206d696772617465640000000000000000000000000000604482015290519081900360640190fd5b60045442101561085d576040805162461bcd60e51b815260206004820152601660248201527f45706f63683a206e6f7420737461727465642079657400000000000000000000604482015290519081900360640190fd5b6007546040805163570ca73560e01b8152905130926001600160a01b03169163570ca735916004808301926020929190829003018186803b1580156108a157600080fd5b505afa1580156108b5573d6000803e3d6000fd5b505050506040513d60208110156108cb57600080fd5b50516001600160a01b031614801561095957506008546040805163570ca73560e01b8152905130926001600160a01b03169163570ca735916004808301926020929190829003018186803b15801561092257600080fd5b505afa158015610936573d6000803e3d6000fd5b505050506040513d602081101561094c57600080fd5b50516001600160a01b0316145b80156109db5750600d546040805163570ca73560e01b8152905130926001600160a01b03169163570ca735916004808301926020929190829003018186803b1580156109a457600080fd5b505afa1580156109b8573d6000803e3d6000fd5b505050506040513d60208110156109ce57600080fd5b50516001600160a01b0316145b8015610a5d5750600e546040805163570ca73560e01b8152905130926001600160a01b03169163570ca735916004808301926020929190829003018186803b158015610a2657600080fd5b505afa158015610a3a573d6000803e3d6000fd5b505050506040513d6020811015610a5057600080fd5b50516001600160a01b0316145b610aae576040805162461bcd60e51b815260206004820152601e60248201527f54726561737572793a206e656564206d6f7265207065726d697373696f6e0000604482015290519081900360640190fd5b60008211610aed5760405162461bcd60e51b815260040180806020018281038252602e8152602001806143f3602e913960400191505060405180910390fd5b601054600090610b05906001600160a01b03166136e9565b9050818114610b5b576040805162461bcd60e51b815260206004820152601a60248201527f54726561737572793a2063617368207072696365206d6f766564000000000000604482015290519081900360640190fd5b6013548111610b9b5760405162461bcd60e51b815260040180806020018281038252603281526020018061444b6032913960400191505060405180910390fd5b600754604080516370a0823160e01b8152306004820152905185926001600160a01b0316916370a08231916024808301926020929190829003018186803b158015610be557600080fd5b505afa158015610bf9573d6000803e3d6000fd5b505050506040513d6020811015610c0f57600080fd5b50511015610c4e5760405162461bcd60e51b81526004018080602001828103825260258152602001806144aa6025913960400191505060405180910390fd5b610c66610c5d601654856137ad565b601654906137c3565b601655601a54600090610c8790606490610c81908790613603565b90613665565b600b5460095460408051633ddac95360e01b81526001600160a01b0392831660048201526024810185905290519394506000939190921691633ddac953916044808301926020929190829003018186803b158015610ce457600080fd5b505afa158015610cf8573d6000803e3d6000fd5b505050506040513d6020811015610d0e57600080fd5b5051600954604080516370a0823160e01b8152336004820152905192935083926001600160a01b03909216916370a0823191602480820192602092909190829003018186803b158015610d6057600080fd5b505afa158015610d74573d6000803e3d6000fd5b505050506040513d6020811015610d8a57600080fd5b50511015610dc95760405162461bcd60e51b815260040180806020018281038252602181526020018061457a6021913960400191505060405180910390fd5b60095460408051636eb1769f60e11b8152336004820152306024820152905183926001600160a01b03169163dd62ed3e916044808301926020929190829003018186803b158015610e1957600080fd5b505afa158015610e2d573d6000803e3d6000fd5b505050506040513d6020811015610e4357600080fd5b50511015610e825760405162461bcd60e51b815260040180806020018281038252602381526020018061459b6023913960400191505060405180910390fd5b600954610e9a906001600160a01b0316333084613805565b6008546040805163079cc67960e41b81523360048201526024810188905290516001600160a01b03909216916379cc67909160448082019260009290919082900301818387803b158015610eed57600080fd5b505af1158015610f01573d6000803e3d6000fd5b5050600754610f1d92506001600160a01b031690503387613893565b610f25613918565b60408051868152905133917f9c3478f12dce08d85673d802af16ed5b9ebab8420ffd7b145d65d3157084b2ce919081900360200190a25050436000908152602081815260408083203284529091528082208054600160ff1991821681179092553384529190922080549091169091179055505050565b6011546001600160a01b031681565b600654610100900460ff1681565b600f546001600160a01b031681565b60035490565b60135481565b60165481565b60195481565b610fe76136a7565b6001546001600160a01b03908116911614611049576040805162461bcd60e51b815260206004820181905260248201527f4f776e61626c653a2063616c6c6572206973206e6f7420746865206f776e6572604482015290519081900360640190fd5b61105281613a89565b50565b60065460ff1681565b6110666136a7565b6001546001600160a01b039081169116146110c8576040805162461bcd60e51b815260206004820181905260248201527f4f776e61626c653a2063616c6c6572206973206e6f7420746865206f776e6572604482015290519081900360640190fd5b60185481016064146110d957600080fd5b600e80546001600160a01b03841673ffffffffffffffffffffffffffffffffffffffff1990911681179091556019829055604080519182525133917fb98132963277cb377d3217aaab40f3a1dd404fe0a8232013766929bf685cc4cc919081900360200190a260408051828152905133917fee9d28786567ba848c7805cbed0ebbc0b66a102d2ab3d621359221b6555e83a2919081900360200190a25050565b600b546001600160a01b031681565b60185481565b601a5481565b601a5490565b6002546000906001600160a01b03166111b16136a7565b6001600160a01b031614905090565b60006111ca6136ab565b156112065760405162461bcd60e51b81526004018080602001828103825260268152602001806145e86026913960400191505060405180910390fd5b61120e6136ca565b1561124a5760405162461bcd60e51b81526004018080602001828103825260268152602001806145e86026913960400191505060405180910390fd5b60065460ff16156112a2576040805162461bcd60e51b815260206004820152601260248201527f54726561737572793a206d696772617465640000000000000000000000000000604482015290519081900360640190fd5b6004544210156112f9576040805162461bcd60e51b815260206004820152601660248201527f45706f63683a206e6f7420737461727465642079657400000000000000000000604482015290519081900360640190fd5b6007546040805163570ca73560e01b8152905130926001600160a01b03169163570ca735916004808301926020929190829003018186803b15801561133d57600080fd5b505afa158015611351573d6000803e3d6000fd5b505050506040513d602081101561136757600080fd5b50516001600160a01b03161480156113f557506008546040805163570ca73560e01b8152905130926001600160a01b03169163570ca735916004808301926020929190829003018186803b1580156113be57600080fd5b505afa1580156113d2573d6000803e3d6000fd5b505050506040513d60208110156113e857600080fd5b50516001600160a01b0316145b80156114775750600d546040805163570ca73560e01b8152905130926001600160a01b03169163570ca735916004808301926020929190829003018186803b15801561144057600080fd5b505afa158015611454573d6000803e3d6000fd5b505050506040513d602081101561146a57600080fd5b50516001600160a01b0316145b80156114f95750600e546040805163570ca73560e01b8152905130926001600160a01b03169163570ca735916004808301926020929190829003018186803b1580156114c257600080fd5b505afa1580156114d6573d6000803e3d6000fd5b505050506040513d60208110156114ec57600080fd5b50516001600160a01b0316145b61154a576040805162461bcd60e51b815260206004820152601e60248201527f54726561737572793a206e656564206d6f7265207065726d697373696f6e0000604482015290519081900360640190fd5b600083116115895760405162461bcd60e51b81526004018080602001828103825260308152602001806145266030913960400191505060405180910390fd5b611591613918565b6010546000906115a9906001600160a01b03166136e9565b90508281146115ff576040805162461bcd60e51b815260206004820152601a60248201527f54726561737572793a2063617368207072696365206d6f766564000000000000604482015290519081900360640190fd5b601454811061163f5760405162461bcd60e51b815260040180806020018281038252603281526020018061444b6032913960400191505060405180910390fd5b6007546040805163079cc67960e41b81523360048201526024810187905290516001600160a01b03909216916379cc67909160448082019260009290919082900301818387803b15801561169257600080fd5b505af11580156116a6573d6000803e3d6000fd5b50506008546001600160a01b031691506340c10f199050336116d484610c8189670de0b6b3a7640000613603565b6040518363ffffffff1660e01b815260040180836001600160a01b0316815260200182815260200192505050602060405180830381600087803b15801561171a57600080fd5b505af115801561172e573d6000803e3d6000fd5b505050506040513d602081101561174457600080fd5b50506040805160028082526060808301845292602083019080368337019050509050600660029054906101000a90046001600160a01b03168160008151811061178957fe5b6001600160a01b0392831660209182029290920101526007548251911690829060019081106117b457fe5b6001600160a01b03928316602091820292909201810191909152600c54604080517fd06ca61f000000000000000000000000000000000000000000000000000000008152600481018a815260248201928352865160448301528651606096949094169463d06ca61f948c9489949092606490910191858201910280838360005b8381101561184c578181015183820152602001611834565b50505050905001935050505060006040518083038186803b15801561187057600080fd5b505afa158015611884573d6000803e3d6000fd5b505050506040513d6000823e601f3d908101601f1916820160405260208110156118ad57600080fd5b81019080805160405193929190846401000000008211156118cd57600080fd5b9083019060208201858111156118e257600080fd5b82518660208202830111640100000000821117156118ff57600080fd5b82525081516020918201928201910280838360005b8381101561192c578181015183820152602001611914565b50505050905001604052505050905060008160018151811061194a57fe5b602002602001015190506060600c60009054906101000a90046001600160a01b03166001600160a01b03166338ed173989848733426040518663ffffffff1660e01b81526004018086815260200185815260200180602001846001600160a01b03168152602001838152602001828103825285818151815260200191508051906020019060200280838360005b838110156119ef5781810151838201526020016119d7565b505050509050019650505050505050600060405180830381600087803b158015611a1857600080fd5b505af1158015611a2c573d6000803e3d6000fd5b505050506040513d6000823e601f3d908101601f191682016040526020811015611a5557600080fd5b8101908080516040519392919084640100000000821115611a7557600080fd5b908301906020820185811115611a8a57600080fd5b8251866020820283011164010000000082111715611aa757600080fd5b82525081516020918201928201910280838360005b83811015611ad4578181015183820152602001611abc565b5050505090500160405250505090506000611b0382600181518110611af557fe5b6020026020010151846137ad565b6007546040805163079cc67960e41b81523360048201526024810184905290519293506001600160a01b03909116916379cc67909160448082019260009290919082900301818387803b158015611b5957600080fd5b505af1158015611b6d573d6000803e3d6000fd5b5050600854604080516340c10f1960e01b81523360048201526024810186905290516001600160a01b0390921693506340c10f1992506044808201926020929091908290030181600087803b158015611bc557600080fd5b505af1158015611bd9573d6000803e3d6000fd5b505050506040513d6020811015611bef57600080fd5b505060408051828152905133917fdbf5270c3cf4729fec4fdac76fda864aa4f3d14d657ad21772ac28f627141ed9919081900360200190a2436000908152602081815260408083203284529091528082208054600160ff199182168117909255338452919092208054909116909117905598975050505050505050565b600e546001600160a01b031681565b6002546001600160a01b031690565b60165490565b6000611cad6064610c81601454600561360390919063ffffffff16565b60145401905090565b611cbe6136ab565b15611cfa5760405162461bcd60e51b81526004018080602001828103825260268152602001806145e86026913960400191505060405180910390fd5b611d026136ca565b15611d3e5760405162461bcd60e51b81526004018080602001828103825260268152602001806145e86026913960400191505060405180910390fd5b60065460ff1615611d96576040805162461bcd60e51b815260206004820152601260248201527f54726561737572793a206d696772617465640000000000000000000000000000604482015290519081900360640190fd5b600454421015611ded576040805162461bcd60e51b815260206004820152601660248201527f45706f63683a206e6f7420737461727465642079657400000000000000000000604482015290519081900360640190fd5b611df5612a2c565b421015611e49576040805162461bcd60e51b815260206004820152601260248201527f45706f63683a206e6f7420616c6c6f7765640000000000000000000000000000604482015290519081900360640190fd5b6007546040805163570ca73560e01b8152905130926001600160a01b03169163570ca735916004808301926020929190829003018186803b158015611e8d57600080fd5b505afa158015611ea1573d6000803e3d6000fd5b505050506040513d6020811015611eb757600080fd5b50516001600160a01b0316148015611f4557506008546040805163570ca73560e01b8152905130926001600160a01b03169163570ca735916004808301926020929190829003018186803b158015611f0e57600080fd5b505afa158015611f22573d6000803e3d6000fd5b505050506040513d6020811015611f3857600080fd5b50516001600160a01b0316145b8015611fc75750600d546040805163570ca73560e01b8152905130926001600160a01b03169163570ca735916004808301926020929190829003018186803b158015611f9057600080fd5b505afa158015611fa4573d6000803e3d6000fd5b505050506040513d6020811015611fba57600080fd5b50516001600160a01b0316145b80156120495750600e546040805163570ca73560e01b8152905130926001600160a01b03169163570ca735916004808301926020929190829003018186803b15801561201257600080fd5b505afa158015612026573d6000803e3d6000fd5b505050506040513d602081101561203c57600080fd5b50516001600160a01b0316145b61209a576040805162461bcd60e51b815260206004820152601e60248201527f54726561737572793a206e656564206d6f7265207065726d697373696f6e0000604482015290519081900360640190fd5b6120a2613918565b6011546000906120ba906001600160a01b03166136e9565b6007549091506001600160a01b03166340c10f19336120e36103e8670de0b6b3a7640000613603565b6040518363ffffffff1660e01b815260040180836001600160a01b0316815260200182815260200192505050602060405180830381600087803b15801561212957600080fd5b505af115801561213d573d6000803e3d6000fd5b505050506040513d602081101561215357600080fd5b5050601354811161216457506122fa565b60006121ec601654600760009054906101000a90046001600160a01b03166001600160a01b03166318160ddd6040518163ffffffff1660e01b815260040160206040518083038186803b1580156121ba57600080fd5b505afa1580156121ce573d6000803e3d6000fd5b505050506040513d60208110156121e457600080fd5b5051906137c3565b90506000612205601454846137c390919063ffffffff16565b9050600061221f670de0b6b3a7640000610c818585613603565b600754604080516340c10f1960e01b81523060048201526024810184905290519293506001600160a01b03909116916340c10f19916044808201926020929091908290030181600087803b15801561227657600080fd5b505af115801561228a573d6000803e3d6000fd5b505050506040513d60208110156122a057600080fd5b50600090506122ae82613b33565b90506122ba82826137c3565b915060006122ce6064610c8185605a613603565b905060006122db82613c6b565b90506122e784826137c3565b93506122f284613d25565b505050505050505b600554612308906001613efa565b600555436000908152602081815260408083203284529091528082208054600160ff1991821681179092553384529190922080549091169091179055565b60125481565b6008546001600160a01b031681565b6010546001600160a01b031681565b6123726136a7565b6001546001600160a01b039081169116146123d4576040805162461bcd60e51b815260206004820181905260248201527f4f776e61626c653a2063616c6c6572206973206e6f7420746865206f776e6572604482015290519081900360640190fd5b6001546040516000916001600160a01b0316907f8be0079c531659141344cd1fd0a4f28419497f9722a3daafe3b4186f6b6457e0908390a36001805473ffffffffffffffffffffffffffffffffffffffff19169055565b600c546001600160a01b031681565b6124426136a7565b6001546001600160a01b039081169116146124a4576040805162461bcd60e51b815260206004820181905260248201527f4f776e61626c653a2063616c6c6572206973206e6f7420746865206f776e6572604482015290519081900360640190fd5b600f80546001600160a01b03841673ffffffffffffffffffffffffffffffffffffffff1990911681179091556017829055604080519182525133917f970b0c70d6e9879d19345f9dbfd8bacae71546478b8bb2d8a56ad8927d3d436e919081900360200190a260408051828152905133917f25ba333c9a98f8f18bb40ff507a4a1fb423614f442759c754d038a9de3f81cf3919081900360200190a25050565b6007546040805163570ca73560e01b8152905130926001600160a01b03169163570ca735916004808301926020929190829003018186803b15801561258857600080fd5b505afa15801561259c573d6000803e3d6000fd5b505050506040513d60208110156125b257600080fd5b50516001600160a01b031614801561264057506008546040805163570ca73560e01b8152905130926001600160a01b03169163570ca735916004808301926020929190829003018186803b15801561260957600080fd5b505afa15801561261d573d6000803e3d6000fd5b505050506040513d602081101561263357600080fd5b50516001600160a01b0316145b80156126c25750600d546040805163570ca73560e01b8152905130926001600160a01b03169163570ca735916004808301926020929190829003018186803b15801561268b57600080fd5b505afa15801561269f573d6000803e3d6000fd5b505050506040513d60208110156126b557600080fd5b50516001600160a01b0316145b80156127445750600e546040805163570ca73560e01b8152905130926001600160a01b03169163570ca735916004808301926020929190829003018186803b15801561270d57600080fd5b505afa158015612721573d6000803e3d6000fd5b505050506040513d602081101561273757600080fd5b50516001600160a01b0316145b612795576040805162461bcd60e51b815260206004820152601e60248201527f54726561737572793a206e656564206d6f7265207065726d697373696f6e0000604482015290519081900360640190fd5b600654610100900460ff16156127f2576040805162461bcd60e51b815260206004820152601560248201527f54726561737572793a20696e697469616c697a65640000000000000000000000604482015290519081900360640190fd5b600754604080516370a0823160e01b815230600482015290516001600160a01b03909216916342966c689183916370a0823191602480820192602092909190829003018186803b15801561284557600080fd5b505afa158015612859573d6000803e3d6000fd5b505050506040513d602081101561286f57600080fd5b5051604080517fffffffff0000000000000000000000000000000000000000000000000000000060e085901b168152600481019290925251602480830192600092919082900301818387803b1580156128c757600080fd5b505af11580156128db573d6000803e3d6000fd5b5050600754604080516370a0823160e01b815230600482015290516001600160a01b0390921693506370a082319250602480820192602092909190829003018186803b15801561292a57600080fd5b505afa15801561293e573d6000803e3d6000fd5b505050506040513d602081101561295457600080fd5b50516016556006805461ff00191661010017905560408051438152905133917f25ff68dd81b34665b5ba7e553ee5511bf6812e12adb4a7e2c0d9e26b3099ce79919081900360200190a2565b60175481565b6001546001600160a01b031690565b6007546001600160a01b031681565b600d546001600160a01b031681565b600a546001600160a01b031681565b6009546001600160a01b031681565b601154600090612a09906001600160a01b03166136e9565b905090565b60055490565b601054600090612a09906001600160a01b03166136e9565b6000612a09612a4860035460055461360390919063ffffffff16565b60045490613efa565b60045490565b6002546001600160a01b03163314612aa05760405162461bcd60e51b81526004018080602001828103825260248152602001806145566024913960400191505060405180910390fd5b6007546040805163570ca73560e01b8152905130926001600160a01b03169163570ca735916004808301926020929190829003018186803b158015612ae457600080fd5b505afa158015612af8573d6000803e3d6000fd5b505050506040513d6020811015612b0e57600080fd5b50516001600160a01b0316148015612b9c57506008546040805163570ca73560e01b8152905130926001600160a01b03169163570ca735916004808301926020929190829003018186803b158015612b6557600080fd5b505afa158015612b79573d6000803e3d6000fd5b505050506040513d6020811015612b8f57600080fd5b50516001600160a01b0316145b8015612c1e5750600d546040805163570ca73560e01b8152905130926001600160a01b03169163570ca735916004808301926020929190829003018186803b158015612be757600080fd5b505afa158015612bfb573d6000803e3d6000fd5b505050506040513d6020811015612c1157600080fd5b50516001600160a01b0316145b8015612ca05750600e546040805163570ca73560e01b8152905130926001600160a01b03169163570ca735916004808301926020929190829003018186803b158015612c6957600080fd5b505afa158015612c7d573d6000803e3d6000fd5b505050506040513d6020811015612c9357600080fd5b50516001600160a01b0316145b612cf1576040805162461bcd60e51b815260206004820152601e60248201527f54726561737572793a206e656564206d6f7265207065726d697373696f6e0000604482015290519081900360640190fd5b60065460ff1615612d49576040805162461bcd60e51b815260206004820152601260248201527f54726561737572793a206d696772617465640000000000000000000000000000604482015290519081900360640190fd5b600754604080516329605e7760e01b81526001600160a01b038481166004830152915191909216916329605e7791602480830192600092919082900301818387803b158015612d9757600080fd5b505af1158015612dab573d6000803e3d6000fd5b50506007546040805163f2fde38b60e01b81526001600160a01b038681166004830152915191909216935063f2fde38b9250602480830192600092919082900301818387803b158015612dfd57600080fd5b505af1158015612e11573d6000803e3d6000fd5b5050600754604080516370a0823160e01b815230600482015290516001600160a01b03909216935063a9059cbb9250849184916370a08231916024808301926020929190829003018186803b158015612e6957600080fd5b505afa158015612e7d573d6000803e3d6000fd5b505050506040513d6020811015612e9357600080fd5b5051604080517fffffffff0000000000000000000000000000000000000000000000000000000060e086901b1681526001600160a01b03909316600484015260248301919091525160448083019260209291908290030181600087803b158015612efc57600080fd5b505af1158015612f10573d6000803e3d6000fd5b505050506040513d6020811015612f2657600080fd5b5050600854604080516329605e7760e01b81526001600160a01b038481166004830152915191909216916329605e7791602480830192600092919082900301818387803b158015612f7657600080fd5b505af1158015612f8a573d6000803e3d6000fd5b50506008546040805163f2fde38b60e01b81526001600160a01b038681166004830152915191909216935063f2fde38b9250602480830192600092919082900301818387803b158015612fdc57600080fd5b505af1158015612ff0573d6000803e3d6000fd5b5050600854604080516370a0823160e01b815230600482015290516001600160a01b03909216935063a9059cbb9250849184916370a08231916024808301926020929190829003018186803b15801561304857600080fd5b505afa15801561305c573d6000803e3d6000fd5b505050506040513d602081101561307257600080fd5b5051604080517fffffffff0000000000000000000000000000000000000000000000000000000060e086901b1681526001600160a01b03909316600484015260248301919091525160448083019260209291908290030181600087803b1580156130db57600080fd5b505af11580156130ef573d6000803e3d6000fd5b505050506040513d602081101561310557600080fd5b5050600954604080516370a0823160e01b815230600482015290516001600160a01b039092169163a9059cbb91849184916370a08231916024808301926020929190829003018186803b15801561315b57600080fd5b505afa15801561316f573d6000803e3d6000fd5b505050506040513d602081101561318557600080fd5b5051604080517fffffffff0000000000000000000000000000000000000000000000000000000060e086901b1681526001600160a01b03909316600484015260248301919091525160448083019260209291908290030181600087803b1580156131ee57600080fd5b505af1158015613202573d6000803e3d6000fd5b505050506040513d602081101561321857600080fd5b50506006805460ff191660011790556040516001600160a01b038216907f0caca70b66aed56b0630989a049110023c5a3f37e0ea4b6ce96fc747663f3ebc90600090a250565b60155481565b61326c6136a7565b6001546001600160a01b039081169116146132ce576040805162461bcd60e51b815260206004820181905260248201527f4f776e61626c653a2063616c6c6572206973206e6f7420746865206f776e6572604482015290519081900360640190fd5b6001600160a01b0381166133135760405162461bcd60e51b81526004018080602001828103825260268152602001806143cd6026913960400191505060405180910390fd5b6001546040516001600160a01b038084169216907f8be0079c531659141344cd1fd0a4f28419497f9722a3daafe3b4186f6b6457e090600090a36001805473ffffffffffffffffffffffffffffffffffffffff19166001600160a01b0392909216919091179055565b6133846136a7565b6001546001600160a01b039081169116146133e6576040805162461bcd60e51b815260206004820181905260248201527f4f776e61626c653a2063616c6c6572206973206e6f7420746865206f776e6572604482015290519081900360640190fd5b60195481016064146133f757600080fd5b600d80546001600160a01b03841673ffffffffffffffffffffffffffffffffffffffff1990911681179091556018829055604080519182525133917f09bd253baf7f3f600456bb4918201a36c128307ef4f7afd11a402bfedf64e09b919081900360200190a260408051828152905133917f5eb2c43aaaecd8cfdfc1cb31d34012c4046714805e610c1e2c019ee60ddf388a919081900360200190a25050565b6006546201000090046001600160a01b031681565b6134b46136a7565b6001546001600160a01b03908116911614613516576040805162461bcd60e51b815260206004820181905260248201527f4f776e61626c653a2063616c6c6572206973206e6f7420746865206f776e6572604482015290519081900360640190fd5b6000811161356b576040805162461bcd60e51b815260206004820152601160248201527f54726561737572793a20666565203c2030000000000000000000000000000000604482015290519081900360640190fd5b606481106135c0576040805162461bcd60e51b815260206004820152601260248201527f54726561737572793a20666565203e3d20300000000000000000000000000000604482015290519081900360640190fd5b601a819055604080518281526020810183905281517f9062205e0e7d6f10fbc6756f2236d1e19f0f689c0836d3f32619e5c6f27e267f929181900390910190a150565b6000826136125750600061365f565b8282028284828161361f57fe5b041461365c5760405162461bcd60e51b81526004018080602001828103825260218152602001806144cf6021913960400191505060405180910390fd5b90505b92915050565b600061365c83836040518060400160405280601a81526020017f536166654d6174683a206469766973696f6e206279207a65726f000000000000815250613f54565b3390565b4360009081526020818152604080832032845290915290205460ff1690565b4360009081526020818152604080832033845290915290205460ff1690565b60075460408051633ddac95360e01b81526001600160a01b039283166004820152670de0b6b3a764000060248201529051600092841691633ddac953916044808301926020929190829003018186803b15801561374557600080fd5b505afa92505050801561376a57506040513d602081101561376557600080fd5b505160015b6137a55760405162461bcd60e51b81526004018080602001828103825260368152602001806144f06036913960400191505060405180910390fd5b90505b919050565b60008183106137bc578161365c565b5090919050565b600061365c83836040518060400160405280601e81526020017f536166654d6174683a207375627472616374696f6e206f766572666c6f770000815250613ff6565b604080516001600160a01b0380861660248301528416604482015260648082018490528251808303909101815260849091019091526020810180517bffffffffffffffffffffffffffffffffffffffffffffffffffffffff167f23b872dd0000000000000000000000000000000000000000000000000000000017905261388d908590614050565b50505050565b604080516001600160a01b038416602482015260448082018490528251808303909101815260649091019091526020810180517bffffffffffffffffffffffffffffffffffffffffffffffffffffffff167fa9059cbb00000000000000000000000000000000000000000000000000000000179052613913908490614050565b505050565b601060009054906101000a90046001600160a01b03166001600160a01b031663a2e620456040518163ffffffff1660e01b8152600401600060405180830381600087803b15801561396857600080fd5b505af1925050508015613979575060015b50601160009054906101000a90046001600160a01b03166001600160a01b031663a2e620456040518163ffffffff1660e01b8152600401600060405180830381600087803b1580156139ca57600080fd5b505af19250505080156139db575060015b50600a60009054906101000a90046001600160a01b03166001600160a01b03166398d5fdca6040518163ffffffff1660e01b815260040160206040518083038186803b158015613a2a57600080fd5b505afa158015613a3e573d6000803e3d6000fd5b505050506040513d6020811015613a5457600080fd5b50516014819055613a6e90606490610c8190600590613603565b601454908101601355613a84906103e890613603565b601555565b6001600160a01b038116613ace5760405162461bcd60e51b815260040180806020018281038252602d81526020018061447d602d913960400191505060405180910390fd5b6040516001600160a01b038216906000907f74da04524d50c64947f5dd5381ef1a4dca5cba8ed1d816243f9e48aa0b5617ed908290a36002805473ffffffffffffffffffffffffffffffffffffffff19166001600160a01b0392909216919091179055565b600080613b506064610c816017548661360390919063ffffffff16565b90508015613c6257600f54600754613b75916001600160a01b03918216911683614101565b600f546007546040517fbfe07da60000000000000000000000000000000000000000000000000000000081526001600160a01b039182166004820181815260248301869052606060448401908152602a60648501819052949095169463bfe07da6949293879360849091019061442182396040019350505050600060405180830381600087803b158015613c0857600080fd5b505af1158015613c1c573d6000803e3d6000fd5b5050604080514281526020810185905281517f4caa64211297e9263667fef70732dc65ca7a8e8c60dc72539ed94518628212d09450908190039091019150a190506137a8565b50600092915050565b600080613ccb83613cc6601654600860009054906101000a90046001600160a01b03166001600160a01b03166318160ddd6040518163ffffffff1660e01b815260040160206040518083038186803b1580156121ba57600080fd5b6137ad565b90508015613c6257601654613ce09082613efa565b601655604080514281526020810183905281517ff705142bf09f04297640495ddf7c59b7fd6f51894c5aea9602d631cf05f0efc2929181900390910190a190506137a8565b60008111613d3257611052565b6000613d4e6064610c816018548561360390919063ffffffff16565b90506000613d6c6064610c816019548661360390919063ffffffff16565b90508115613e3257600d54600754613d91916001600160a01b03918216911684614101565b600d54604080516397ffe1d760e01b81526004810185905290516001600160a01b03909216916397ffe1d79160248082019260009290919082900301818387803b158015613dde57600080fd5b505af1158015613df2573d6000803e3d6000fd5b5050604080514281526020810186905281517f03ca7276ab7799bf73fb79d27ff0610cd7049574f2508ef8445162833d439aea9450908190039091019150a15b801561391357600e54600754613e55916001600160a01b03918216911683614101565b600e54604080516397ffe1d760e01b81526004810184905290516001600160a01b03909216916397ffe1d79160248082019260009290919082900301818387803b158015613ea257600080fd5b505af1158015613eb6573d6000803e3d6000fd5b5050604080514281526020810185905281517f03ca7276ab7799bf73fb79d27ff0610cd7049574f2508ef8445162833d439aea9450908190039091019150a1505050565b60008282018381101561365c576040805162461bcd60e51b815260206004820152601b60248201527f536166654d6174683a206164646974696f6e206f766572666c6f770000000000604482015290519081900360640190fd5b60008183613fe05760405162461bcd60e51b81526004018080602001828103825283818151815260200191508051906020019080838360005b83811015613fa5578181015183820152602001613f8d565b50505050905090810190601f168015613fd25780820380516001836020036101000a031916815260200191505b509250505060405180910390fd5b506000838581613fec57fe5b0495945050505050565b600081848411156140485760405162461bcd60e51b8152602060048201818152835160248401528351909283926044909101919085019080838360008315613fa5578181015183820152602001613f8d565b505050900390565b60606140a5826040518060400160405280602081526020017f5361666545524332303a206c6f772d6c6576656c2063616c6c206661696c6564815250856001600160a01b03166142429092919063ffffffff16565b805190915015613913578080602001905160208110156140c457600080fd5b50516139135760405162461bcd60e51b815260040180806020018281038252602a8152602001806145be602a913960400191505060405180910390fd5b801580614187575060408051636eb1769f60e11b81523060048201526001600160a01b03848116602483015291519185169163dd62ed3e91604480820192602092909190829003018186803b15801561415957600080fd5b505afa15801561416d573d6000803e3d6000fd5b505050506040513d602081101561418357600080fd5b5051155b6141c25760405162461bcd60e51b815260040180806020018281038252603681526020018061460e6036913960400191505060405180910390fd5b604080516001600160a01b038416602482015260448082018490528251808303909101815260649091019091526020810180517bffffffffffffffffffffffffffffffffffffffffffffffffffffffff167f095ea7b300000000000000000000000000000000000000000000000000000000179052613913908490614050565b60606142518484600085614259565b949350505050565b6060614264856143c6565b6142b5576040805162461bcd60e51b815260206004820152601d60248201527f416464726573733a2063616c6c20746f206e6f6e2d636f6e7472616374000000604482015290519081900360640190fd5b60006060866001600160a01b031685876040518082805190602001908083835b602083106142f45780518252601f1990920191602091820191016142d5565b6001836020036101000a03801982511681845116808217855250505050505090500191505060006040518083038185875af1925050503d8060008114614356576040519150601f19603f3d011682016040523d82523d6000602084013e61435b565b606091505b5091509150811561436f5791506142519050565b80511561437f5780518082602001fd5b60405162461bcd60e51b8152602060048201818152865160248401528651879391928392604401919085019080838360008315613fa5578181015183820152602001613f8d565b3b15159056fe4f776e61626c653a206e6577206f776e657220697320746865207a65726f206164647265737354726561737572793a2063616e6e6f742072656465656d20626f6e64732077697468207a65726f20616d6f756e7454726561737572793a2045636f73797374656d20536569676e696f7261676520416c6c6f636174696f6e54726561737572793a20636173685072696365206e6f7420656c696769626c6520666f7220626f6e642070757263686173656f70657261746f723a207a65726f206164647265737320676976656e20666f72206e6577206f70657261746f7254726561737572793a20747265617375727920686173206e6f206d6f726520627564676574536166654d6174683a206d756c7469706c69636174696f6e206f766572666c6f7754726561737572793a206661696c656420746f20636f6e73756c7420636173682070726963652066726f6d20746865206f7261636c6554726561737572793a2063616e6e6f7420707572636861736520626f6e64732077697468207a65726f20616d6f756e746f70657261746f723a2063616c6c6572206973206e6f7420746865206f70657261746f7254726561737572793a206e6f7420656e6f756768204d4148412062616c616e636554726561737572793a206e6f7420656e6f756768204d41484120616c6c6f77616e63655361666545524332303a204552433230206f7065726174696f6e20646964206e6f742073756363656564436f6e747261637447756172643a206f6e6520626c6f636b2c206f6e652066756e6374696f6e5361666545524332303a20617070726f76652066726f6d206e6f6e2d7a65726f20746f206e6f6e2d7a65726f20616c6c6f77616e6365a2646970667358221220d67cf0fa4d0cfde09ef5facb2d9d7895bb96d8fd3ca6beb4ea7e1a68eab68d1364736f6c634300060c0033536166654d6174683a206d756c7469706c69636174696f6e206f766572666c6f77",
  "immutableReferences": {},
  "source": "// SPDX-License-Identifier: MIT\n\npragma solidity ^0.6.0;\n\nimport '@openzeppelin/contracts/math/Math.sol';\nimport '@openzeppelin/contracts/token/ERC20/IERC20.sol';\nimport '@openzeppelin/contracts/token/ERC20/SafeERC20.sol';\nimport '@openzeppelin/contracts/utils/ReentrancyGuard.sol';\nimport '@uniswap/v2-periphery/contracts/interfaces/IUniswapV2Router02.sol';\n\nimport '../interfaces/IOracle.sol';\nimport '../interfaces/IBoardroom.sol';\nimport '../interfaces/IBasisAsset.sol';\nimport '../interfaces/ISimpleERCFund.sol';\nimport '../lib/Babylonian.sol';\nimport '../lib/FixedPoint.sol';\nimport '../lib/Safe112.sol';\nimport '../owner/Operator.sol';\nimport '../utils/Epoch.sol';\nimport '../utils/ContractGuard.sol';\nimport '../interfaces/IGMUOracle.sol';\n\n/**\n * @title Basis ARTH Treasury contract\n * @notice Monetary policy logic to adjust supplies of basis cash assets\n * @author Summer Smith & Rick Sanchez\n */\ncontract Treasury is ContractGuard, Epoch {\n    using FixedPoint for *;\n    using SafeERC20 for IERC20;\n    using Address for address;\n    using SafeMath for uint256;\n    using Safe112 for uint112;\n\n    /* ========== STATE VARIABLES ========== */\n\n    // ========== FLAGS\n    bool public migrated = false;\n    bool public initialized = false;\n\n    // ========== CORE\n    address public dai;\n    address public cash;\n    address public bond;\n    address public share;\n    address public gmuOracle;\n    address public mahausdOracle;\n    address public uniswapRouter;\n\n    address public arthLiquidityBoardroom;\n    address public arthBoardroom;\n    address public ecosystemFund;\n\n    address public bondOracle;\n    address public seigniorageOracle;\n\n    // ========== PARAMS\n    uint256 public initialCashPriceOne;\n    uint256 public cashPriceCeiling;\n    uint256 public cashTargetPrice;\n    uint256 public bondDepletionFloor;\n    uint256 public accumulatedSeigniorage = 0;\n\n    uint256 public ecosystemFundAllocationRate = 2;\n    uint256 public arthLiquidityBoardroomAllocationRate = 20; // In %.\n    uint256 public arthBoardroomAllocationRate = 80; // IN %.\n    uint256 public stabilityFee = 1; // IN %;\n\n    /* ========== CONSTRUCTOR ========== */\n\n    constructor(\n        address _dai,\n        address _cash,\n        address _bond,\n        address _share,\n        address _bondOracle,\n        address _mahausdOracle,\n        address _seigniorageOracle,\n        address _arthLiquidityBoardroom,\n        address _arthBoardroom,\n        address _fund,\n        address _uniswapRouter,\n        address _gmuOracle,\n        uint256 _startTime,\n        uint256 _period\n    ) public Epoch(_period, _startTime, 0) {\n        dai = _dai;\n        cash = _cash;\n        bond = _bond;\n        share = _share;\n        bondOracle = _bondOracle;\n        mahausdOracle = _mahausdOracle;\n        seigniorageOracle = _seigniorageOracle;\n        gmuOracle = _gmuOracle;\n        arthLiquidityBoardroom = _arthLiquidityBoardroom;\n        arthBoardroom = _arthBoardroom;\n        ecosystemFund = _fund;\n        uniswapRouter = _uniswapRouter;\n\n        cashTargetPrice = IGMUOracle(gmuOracle).getPrice();\n        initialCashPriceOne = cashTargetPrice;\n\n        // Set the ceiling price to be 5% above the inital price.\n        cashPriceCeiling =\n            initialCashPriceOne +\n            uint256(5).mul(initialCashPriceOne).div(10**2);\n\n        bondDepletionFloor = uint256(1000).mul(initialCashPriceOne);\n    }\n\n    /* =================== Modifier =================== */\n\n    modifier checkMigration {\n        require(!migrated, 'Treasury: migrated');\n        _;\n    }\n\n    modifier checkOperator {\n        require(\n            IBasisAsset(cash).operator() == address(this) &&\n                IBasisAsset(bond).operator() == address(this) &&\n                Operator(arthLiquidityBoardroom).operator() == address(this) &&\n                Operator(arthBoardroom).operator() == address(this),\n            'Treasury: need more permission'\n        );\n        _;\n    }\n\n    function setStabilityFee(uint256 _stabilityFee) public onlyOwner {\n        require(_stabilityFee > 0, 'Treasury: fee < 0');\n        require(_stabilityFee < 100, 'Treasury: fee >= 0');\n        stabilityFee = _stabilityFee;\n\n        emit StabilityFeeChanged(stabilityFee, _stabilityFee);\n    }\n\n    function setFund(address newFund, uint256 rate) public onlyOwner {\n        ecosystemFund = newFund;\n        ecosystemFundAllocationRate = rate;\n\n        emit ContributionPoolChanged(msg.sender, newFund);\n        emit ContributionPoolRateChanged(msg.sender, rate);\n    }\n\n    function setArthBoardroom(address newFund, uint256 rate) public onlyOwner {\n        require(rate + arthLiquidityBoardroomAllocationRate == 100);\n\n        arthBoardroom = newFund;\n        arthBoardroomAllocationRate = rate;\n\n        emit ArthBoardroomChanged(msg.sender, newFund);\n        emit ArthBoardroomRateChanged(msg.sender, rate);\n    }\n\n    function setArthLiquidityBoardroom(address newFund, uint256 rate)\n        public\n        onlyOwner\n    {\n        require(rate + arthBoardroomAllocationRate == 100);\n\n        arthLiquidityBoardroom = newFund;\n        arthLiquidityBoardroomAllocationRate = rate;\n\n        emit ArthLiquidityBoardroomChanged(msg.sender, newFund);\n        emit ArthLiquidityBoardroomRateChanged(msg.sender, rate);\n    }\n\n    /* ========== VIEW FUNCTIONS ========== */\n    function getReserve() public view returns (uint256) {\n        return accumulatedSeigniorage;\n    }\n\n    function getStabilityFee() public view returns (uint256) {\n        return stabilityFee;\n    }\n\n    function getCashPriceCeiling() public view returns (uint256) {\n        return cashTargetPrice + uint256(5).mul(cashTargetPrice).div(10**2);\n    }\n\n    // oracle\n    function getBondOraclePrice() public view returns (uint256) {\n        return _getCashPrice(bondOracle);\n    }\n\n    function getGMUOraclePrice() public view returns (uint256) {\n        return IGMUOracle(gmuOracle).getPrice();\n    }\n\n    function getSeigniorageOraclePrice() public view returns (uint256) {\n        return _getCashPrice(seigniorageOracle);\n    }\n\n    function _getCashPrice(address oracle) internal view returns (uint256) {\n        try IOracle(oracle).consult(cash, 1e18) returns (uint256 price) {\n            return price;\n        } catch {\n            revert('Treasury: failed to consult cash price from the oracle');\n        }\n    }\n\n    /* ========== GOVERNANCE ========== */\n\n    function initialize() public checkOperator {\n        require(!initialized, 'Treasury: initialized');\n\n        // burn all of it's balance\n        IBasisAsset(cash).burn(IERC20(cash).balanceOf(address(this)));\n\n        // set accumulatedSeigniorage to it's balance\n        accumulatedSeigniorage = IERC20(cash).balanceOf(address(this));\n\n        initialized = true;\n        emit Initialized(msg.sender, block.number);\n    }\n\n    function migrate(address target) public onlyOperator checkOperator {\n        require(!migrated, 'Treasury: migrated');\n\n        // cash\n        Operator(cash).transferOperator(target);\n        Operator(cash).transferOwnership(target);\n        IERC20(cash).transfer(target, IERC20(cash).balanceOf(address(this)));\n\n        // bond\n        Operator(bond).transferOperator(target);\n        Operator(bond).transferOwnership(target);\n        IERC20(bond).transfer(target, IERC20(bond).balanceOf(address(this)));\n\n        // share - disabled ownership and operator functions as MAHA tokens don't have these\n        // Operator(share).transferOperator(target);\n        // Operator(share).transferOwnership(target);\n        IERC20(share).transfer(target, IERC20(share).balanceOf(address(this)));\n\n        migrated = true;\n        emit Migration(target);\n    }\n\n    /* ========== MUTABLE FUNCTIONS ========== */\n\n    function _updateCashPrice() internal {\n        try IOracle(bondOracle).update() {} catch {}\n        try IOracle(seigniorageOracle).update() {} catch {}\n\n        cashTargetPrice = IGMUOracle(gmuOracle).getPrice();\n\n        // Set the ceiling price to be 5% above the target price.\n        cashPriceCeiling =\n            cashTargetPrice +\n            uint256(5).mul(cashTargetPrice).div(10**2);\n\n        bondDepletionFloor = uint256(1000).mul(cashTargetPrice);\n    }\n\n    function buyBonds(uint256 amountInDai, uint256 targetPrice)\n        external\n        onlyOneBlock\n        checkMigration\n        checkStartTime\n        checkOperator\n        returns (uint256)\n    {\n        require(\n            amountInDai > 0,\n            'Treasury: cannot purchase bonds with zero amount'\n        );\n        // Update the price to latest before using.\n        _updateCashPrice();\n        uint256 bondPrice = _getCashPrice(bondOracle);\n\n        require(bondPrice == targetPrice, 'Treasury: cash price moved');\n        require(\n            bondPrice < cashTargetPrice, // price < $1\n            'Treasury: cashPrice not eligible for bond purchase'\n        );\n\n        IBasisAsset(cash).burnFrom(msg.sender, amountInDai);\n        IBasisAsset(bond).mint(\n            msg.sender,\n            amountInDai.mul(1e18).div(bondPrice)\n        );\n\n        // Get price of dai and cash.\n\n        // Eg. Let's say 1 dai(d) = 10 usd and 1 cash(c) = 20 usd.\n        // Then taking c/d = 20/10 = 2.\n        // Then c = 2d.\n        // Then say x amount of dai is 2 * x amount of cash. Where 2 is c/d\n        address[] memory path = new address[](2);\n        path[0] = address(dai);\n        path[1] = address(cash);\n\n        uint256[] memory amountsOut =\n            IUniswapV2Router02(uniswapRouter).getAmountsOut(amountInDai, path);\n        uint256 expectedCashAmount = amountsOut[1];\n\n        // uint256 rewardAmount = daiAmount.mul(rewardRate).div(100);\n\n        uint256[] memory output =\n            IUniswapV2Router02(uniswapRouter).swapExactTokensForTokens(\n                amountInDai,\n                expectedCashAmount,\n                path,\n                msg.sender,\n                block.timestamp\n            );\n\n        // Burn bought back cash and mint bonds.\n        uint256 boughtBackARTH = Math.min(output[1], expectedCashAmount);\n        IBasisAsset(cash).burnFrom(msg.sender, boughtBackARTH);\n        // TODO: Set the minting amount according to bond price.\n        IBasisAsset(bond).mint(msg.sender, boughtBackARTH);\n\n        emit BoughtBonds(msg.sender, boughtBackARTH);\n        return boughtBackARTH;\n    }\n\n    function redeemBonds(uint256 amount, uint256 targetPrice)\n        external\n        onlyOneBlock\n        checkMigration\n        checkStartTime\n        checkOperator\n    {\n        require(amount > 0, 'Treasury: cannot redeem bonds with zero amount');\n\n        uint256 cashPrice = _getCashPrice(bondOracle);\n        require(cashPrice == targetPrice, 'Treasury: cash price moved');\n        require(\n            cashPrice > cashPriceCeiling, // price > $1.05\n            'Treasury: cashPrice not eligible for bond purchase'\n        );\n        require(\n            IERC20(cash).balanceOf(address(this)) >= amount,\n            'Treasury: treasury has no more budget'\n        );\n\n        accumulatedSeigniorage = accumulatedSeigniorage.sub(\n            Math.min(accumulatedSeigniorage, amount)\n        );\n\n        uint256 stabilityFeeAmount = amount.mul(stabilityFee).div(100);\n        uint256 stabilityFeeValue =\n            IOracle(mahausdOracle).consult(share, stabilityFeeAmount);\n\n        // check balances\n        require(\n            IERC20(share).balanceOf(msg.sender) >= stabilityFeeValue,\n            'Treasury: not enough MAHA balance'\n        );\n        require(\n            IERC20(share).allowance(msg.sender, address(this)) >=\n                stabilityFeeValue,\n            'Treasury: not enough MAHA allowance'\n        );\n\n        IERC20(share).safeTransferFrom(\n            msg.sender,\n            address(this),\n            stabilityFeeValue\n        );\n\n        IBasisAsset(bond).burnFrom(msg.sender, amount);\n        IERC20(cash).safeTransfer(msg.sender, amount);\n        _updateCashPrice();\n\n        emit RedeemedBonds(msg.sender, amount);\n    }\n\n    function allocateSeigniorage()\n        external\n        onlyOneBlock\n        checkMigration\n        checkStartTime\n        checkEpoch\n        checkOperator\n    {\n        _updateCashPrice();\n        uint256 cashPrice = _getCashPrice(seigniorageOracle);\n\n        // send 1000 ARTH reward to the person advancing the epoch to compensate for gas\n        IBasisAsset(cash).mint(msg.sender, uint256(1000).mul(1e18));\n\n        if (cashPrice <= cashPriceCeiling) {\n            return; // just advance epoch instead revert\n        }\n\n        // circulating supply\n        uint256 cashSupply =\n            IERC20(cash).totalSupply().sub(accumulatedSeigniorage);\n\n        uint256 percentage = cashPrice.sub(cashTargetPrice);\n        uint256 seigniorage = cashSupply.mul(percentage).div(1e18);\n        IBasisAsset(cash).mint(address(this), seigniorage);\n\n        // send funds to the community development fund\n        uint256 ecosystemReserve = _allocateToEcosystemFund(seigniorage);\n        seigniorage = seigniorage.sub(ecosystemReserve);\n\n        // keep 90% of the funds to bond token holders; and send the remaing for rewards\n        uint256 allocatedForTreasury = seigniorage.mul(90).div(100);\n        uint256 treasuryReserve = _allocateToBondHolers(allocatedForTreasury);\n        seigniorage = seigniorage.sub(treasuryReserve);\n\n        // allocate everything else to theboardroom\n        _allocateToBoardrooms(seigniorage);\n    }\n\n    function _allocateToEcosystemFund(uint256 seigniorage)\n        internal\n        returns (uint256)\n    {\n        uint256 ecosystemReserve =\n            seigniorage.mul(ecosystemFundAllocationRate).div(100);\n        if (ecosystemReserve > 0) {\n            IERC20(cash).safeApprove(ecosystemFund, ecosystemReserve);\n            ISimpleERCFund(ecosystemFund).deposit(\n                cash,\n                ecosystemReserve,\n                'Treasury: Ecosystem Seigniorage Allocation'\n            );\n            emit ContributionPoolFunded(now, ecosystemReserve);\n            return ecosystemReserve;\n        }\n\n        return 0;\n    }\n\n    function _allocateToBondHolers(uint256 seigniorage)\n        internal\n        returns (uint256)\n    {\n        uint256 treasuryReserve =\n            Math.min(\n                seigniorage,\n                IERC20(bond).totalSupply().sub(accumulatedSeigniorage)\n            );\n\n        if (treasuryReserve > 0) {\n            // update accumulated seigniorage\n            accumulatedSeigniorage = accumulatedSeigniorage.add(\n                treasuryReserve\n            );\n            emit TreasuryFunded(now, treasuryReserve);\n            return treasuryReserve;\n        }\n\n        return 0;\n    }\n\n    function _allocateToBoardrooms(uint256 boardroomReserve) internal {\n        if (boardroomReserve <= 0) return;\n\n        // Calculate boardroom reserves.\n        uint256 arthLiquidityBoardroomReserve =\n            boardroomReserve.mul(arthLiquidityBoardroomAllocationRate).div(100);\n        uint256 arthBoardroomReserve =\n            boardroomReserve.mul(arthBoardroomAllocationRate).div(100);\n\n        if (arthLiquidityBoardroomReserve > 0) {\n            IERC20(cash).safeApprove(\n                arthLiquidityBoardroom,\n                arthLiquidityBoardroomReserve\n            );\n            IBoardroom(arthLiquidityBoardroom).allocateSeigniorage(\n                arthLiquidityBoardroomReserve\n            );\n            emit BoardroomFunded(now, arthLiquidityBoardroomReserve);\n        }\n\n        if (arthBoardroomReserve > 0) {\n            IERC20(cash).safeApprove(arthBoardroom, arthBoardroomReserve);\n            IBoardroom(arthBoardroom).allocateSeigniorage(arthBoardroomReserve);\n            emit BoardroomFunded(now, arthBoardroomReserve);\n        }\n    }\n\n    // GOV\n    event Initialized(address indexed executor, uint256 at);\n    event Migration(address indexed target);\n    event ContributionPoolChanged(address indexed operator, address newFund);\n    event ContributionPoolRateChanged(\n        address indexed operator,\n        uint256 newRate\n    );\n    event ArthBoardroomChanged(address indexed operator, address newFund);\n    event ArthBoardroomRateChanged(address indexed operator, uint256 newRate);\n    event ArthLiquidityBoardroomChanged(\n        address indexed operator,\n        address newFund\n    );\n    event ArthLiquidityBoardroomRateChanged(\n        address indexed operator,\n        uint256 newRate\n    );\n\n    // CORE\n    event RedeemedBonds(address indexed from, uint256 amount);\n    event BoughtBonds(address indexed from, uint256 amount);\n    event TreasuryFunded(uint256 timestamp, uint256 seigniorage);\n    event BoardroomFunded(uint256 timestamp, uint256 seigniorage);\n    event ContributionPoolFunded(uint256 timestamp, uint256 seigniorage);\n    event StabilityFeeChanged(uint256 old, uint256 newRate);\n}\n",
  "sourcePath": "/home/enamakel/Work/mahadao.com/arthcoin/smart-contracts/contracts/treasury/Treasury.sol",
  "compiler": {
    "name": "solc",
    "version": "0.6.12+commit.27d51765.Emscripten.clang"
  },
  "schemaVersion": "3.3.3",
  "updatedAt": "2021-01-10T16:12:45.757Z",
  "networkType": "ethereum",
  "devdoc": {
    "author": "Summer Smith & Rick Sanchez",
    "kind": "dev",
    "methods": {
      "owner()": {
        "details": "Returns the address of the current owner."
      },
      "renounceOwnership()": {
        "details": "Leaves the contract without owner. It will not be possible to call `onlyOwner` functions anymore. Can only be called by the current owner. NOTE: Renouncing ownership will leave the contract without an owner, thereby removing any functionality that is only available to the owner."
      },
      "transferOwnership(address)": {
        "details": "Transfers ownership of the contract to a new account (`newOwner`). Can only be called by the current owner."
      }
    },
    "title": "Basis ARTH Treasury contract",
    "version": 1
  },
  "userdoc": {
    "kind": "user",
    "methods": {},
    "notice": "Monetary policy logic to adjust supplies of basis cash assets",
    "version": 1
  }
}